{
	"contracts/Voting.sol": {
		"OnlineVoting": {
			"abi": [
				{
					"inputs": [
						{
							"internalType": "string",
							"name": "electionName",
							"type": "string"
						}
					],
					"stateMutability": "nonpayable",
					"type": "constructor"
				},
				{
					"inputs": [
						{
							"internalType": "string",
							"name": "addName",
							"type": "string"
						}
					],
					"name": "addCandidate",
					"outputs": [],
					"stateMutability": "nonpayable",
					"type": "function"
				},
				{
					"inputs": [
						{
							"internalType": "address",
							"name": "voter",
							"type": "address"
						}
					],
					"name": "addPermissionForVote",
					"outputs": [],
					"stateMutability": "nonpayable",
					"type": "function"
				},
				{
					"inputs": [
						{
							"internalType": "uint256",
							"name": "",
							"type": "uint256"
						}
					],
					"name": "candidates",
					"outputs": [
						{
							"internalType": "string",
							"name": "candidateName",
							"type": "string"
						},
						{
							"internalType": "uint256",
							"name": "voteCount",
							"type": "uint256"
						}
					],
					"stateMutability": "view",
					"type": "function"
				},
				{
					"inputs": [],
					"name": "electName",
					"outputs": [
						{
							"internalType": "string",
							"name": "",
							"type": "string"
						}
					],
					"stateMutability": "view",
					"type": "function"
				},
				{
					"inputs": [],
					"name": "endTime",
					"outputs": [
						{
							"internalType": "uint256",
							"name": "",
							"type": "uint256"
						}
					],
					"stateMutability": "view",
					"type": "function"
				},
				{
					"inputs": [],
					"name": "getCandidateNumbers",
					"outputs": [
						{
							"internalType": "uint256",
							"name": "",
							"type": "uint256"
						}
					],
					"stateMutability": "view",
					"type": "function"
				},
				{
					"inputs": [],
					"name": "getGivenVotersNumber",
					"outputs": [
						{
							"internalType": "uint256",
							"name": "",
							"type": "uint256"
						}
					],
					"stateMutability": "view",
					"type": "function"
				},
				{
					"inputs": [],
					"name": "isStarted",
					"outputs": [
						{
							"internalType": "bool",
							"name": "",
							"type": "bool"
						}
					],
					"stateMutability": "view",
					"type": "function"
				},
				{
					"inputs": [],
					"name": "organizerName",
					"outputs": [
						{
							"internalType": "address",
							"name": "",
							"type": "address"
						}
					],
					"stateMutability": "view",
					"type": "function"
				},
				{
					"inputs": [],
					"name": "resultCount",
					"outputs": [],
					"stateMutability": "nonpayable",
					"type": "function"
				},
				{
					"inputs": [
						{
							"internalType": "uint256",
							"name": "duration",
							"type": "uint256"
						}
					],
					"name": "start",
					"outputs": [],
					"stateMutability": "nonpayable",
					"type": "function"
				},
				{
					"inputs": [
						{
							"internalType": "uint256",
							"name": "chosenCandidate",
							"type": "uint256"
						}
					],
					"name": "vote",
					"outputs": [],
					"stateMutability": "nonpayable",
					"type": "function"
				},
				{
					"inputs": [
						{
							"internalType": "address",
							"name": "",
							"type": "address"
						}
					],
					"name": "voters",
					"outputs": [
						{
							"internalType": "bool",
							"name": "isVoted",
							"type": "bool"
						},
						{
							"internalType": "bool",
							"name": "votingPermission",
							"type": "bool"
						},
						{
							"internalType": "uint256",
							"name": "votingCandidateNumber",
							"type": "uint256"
						}
					],
					"stateMutability": "view",
					"type": "function"
				},
				{
					"inputs": [
						{
							"internalType": "uint256",
							"name": "",
							"type": "uint256"
						}
					],
					"name": "votersAddresses",
					"outputs": [
						{
							"internalType": "address",
							"name": "",
							"type": "address"
						}
					],
					"stateMutability": "view",
					"type": "function"
				},
				{
					"inputs": [],
					"name": "winnerName",
					"outputs": [
						{
							"internalType": "string",
							"name": "",
							"type": "string"
						}
					],
					"stateMutability": "view",
					"type": "function"
				}
			],
			"devdoc": {
				"kind": "dev",
				"methods": {},
				"version": 1
			},
			"evm": {
				"assembly": "    /* \"contracts/Voting.sol\":57:4120  contract OnlineVoting {... */\n  mstore(0x40, 0x80)\n    /* \"contracts/Voting.sol\":610:728  constructor (string memory electionName) {... */\n  callvalue\n  dup1\n  iszero\n  tag_1\n  jumpi\n  0x00\n  dup1\n  revert\ntag_1:\n  pop\n  mload(0x40)\n  sub(codesize, bytecodeSize)\n  dup1\n  bytecodeSize\n  dup4\n  codecopy\n  dup2\n  dup2\n  add\n  0x40\n  mstore\n  dup2\n  add\n  swap1\n  tag_2\n  swap2\n  swap1\n  tag_3\n  jump\t// in\ntag_2:\n    /* \"contracts/Voting.sol\":677:687  msg.sender */\n  caller\n    /* \"contracts/Voting.sol\":661:674  organizerName */\n  0x00\n  dup1\n    /* \"contracts/Voting.sol\":661:687  organizerName = msg.sender */\n  0x0100\n  exp\n  dup2\n  sload\n  dup2\n  0xffffffffffffffffffffffffffffffffffffffff\n  mul\n  not\n  and\n  swap1\n  dup4\n  0xffffffffffffffffffffffffffffffffffffffff\n  and\n  mul\n  or\n  swap1\n  sstore\n  pop\n    /* \"contracts/Voting.sol\":709:721  electionName */\n  dup1\n    /* \"contracts/Voting.sol\":697:706  electName */\n  0x01\n    /* \"contracts/Voting.sol\":697:721  electName = electionName */\n  swap1\n  dup1\n  mload\n  swap1\n  0x20\n  add\n  swap1\n  tag_6\n  swap3\n  swap2\n  swap1\n  tag_7\n  jump\t// in\ntag_6:\n  pop\n    /* \"contracts/Voting.sol\":610:728  constructor (string memory electionName) {... */\n  pop\n    /* \"contracts/Voting.sol\":57:4120  contract OnlineVoting {... */\n  jump(tag_8)\ntag_7:\n  dup3\n  dup1\n  sload\n  tag_9\n  swap1\n  tag_10\n  jump\t// in\ntag_9:\n  swap1\n  0x00\n  mstore\n  keccak256(0x00, 0x20)\n  swap1\n  0x1f\n  add\n  0x20\n  swap1\n  div\n  dup2\n  add\n  swap3\n  dup3\n  tag_12\n  jumpi\n  0x00\n  dup6\n  sstore\n  jump(tag_11)\ntag_12:\n  dup3\n  0x1f\n  lt\n  tag_13\n  jumpi\n  dup1\n  mload\n  not(0xff)\n  and\n  dup4\n  dup1\n  add\n  or\n  dup6\n  sstore\n  jump(tag_11)\ntag_13:\n  dup3\n  dup1\n  add\n  0x01\n  add\n  dup6\n  sstore\n  dup3\n  iszero\n  tag_11\n  jumpi\n  swap2\n  dup3\n  add\ntag_14:\n  dup3\n  dup2\n  gt\n  iszero\n  tag_15\n  jumpi\n  dup3\n  mload\n  dup3\n  sstore\n  swap2\n  0x20\n  add\n  swap2\n  swap1\n  0x01\n  add\n  swap1\n  jump(tag_14)\ntag_15:\ntag_11:\n  pop\n  swap1\n  pop\n  tag_16\n  swap2\n  swap1\n  tag_17\n  jump\t// in\ntag_16:\n  pop\n  swap1\n  jump\t// out\ntag_17:\ntag_18:\n  dup1\n  dup3\n  gt\n  iszero\n  tag_19\n  jumpi\n  0x00\n  dup2\n  0x00\n  swap1\n  sstore\n  pop\n  0x01\n  add\n  jump(tag_18)\ntag_19:\n  pop\n  swap1\n  jump\t// out\n    /* \"#utility.yul\":7:428   */\ntag_21:\n    /* \"#utility.yul\":96:101   */\n  0x00\n    /* \"#utility.yul\":121:187   */\n  tag_23\n    /* \"#utility.yul\":137:186   */\n  tag_24\n    /* \"#utility.yul\":179:185   */\n  dup5\n    /* \"#utility.yul\":137:186   */\n  tag_25\n  jump\t// in\ntag_24:\n    /* \"#utility.yul\":121:187   */\n  tag_26\n  jump\t// in\ntag_23:\n    /* \"#utility.yul\":112:187   */\n  swap1\n  pop\n    /* \"#utility.yul\":210:216   */\n  dup3\n    /* \"#utility.yul\":203:208   */\n  dup2\n    /* \"#utility.yul\":196:217   */\n  mstore\n    /* \"#utility.yul\":248:252   */\n  0x20\n    /* \"#utility.yul\":241:246   */\n  dup2\n    /* \"#utility.yul\":237:253   */\n  add\n    /* \"#utility.yul\":286:289   */\n  dup5\n    /* \"#utility.yul\":277:283   */\n  dup5\n    /* \"#utility.yul\":272:275   */\n  dup5\n    /* \"#utility.yul\":268:284   */\n  add\n    /* \"#utility.yul\":265:290   */\n  gt\n    /* \"#utility.yul\":262:374   */\n  iszero\n  tag_27\n  jumpi\n    /* \"#utility.yul\":293:372   */\n  tag_28\n  tag_29\n  jump\t// in\ntag_28:\n    /* \"#utility.yul\":262:374   */\ntag_27:\n    /* \"#utility.yul\":383:422   */\n  tag_30\n    /* \"#utility.yul\":415:421   */\n  dup5\n    /* \"#utility.yul\":410:413   */\n  dup3\n    /* \"#utility.yul\":405:408   */\n  dup6\n    /* \"#utility.yul\":383:422   */\n  tag_31\n  jump\t// in\ntag_30:\n    /* \"#utility.yul\":102:428   */\n  pop\n    /* \"#utility.yul\":7:428   */\n  swap4\n  swap3\n  pop\n  pop\n  pop\n  jump\t// out\n    /* \"#utility.yul\":448:803   */\ntag_32:\n    /* \"#utility.yul\":515:520   */\n  0x00\n    /* \"#utility.yul\":564:567   */\n  dup3\n    /* \"#utility.yul\":557:561   */\n  0x1f\n    /* \"#utility.yul\":549:555   */\n  dup4\n    /* \"#utility.yul\":545:562   */\n  add\n    /* \"#utility.yul\":541:568   */\n  slt\n    /* \"#utility.yul\":531:653   */\n  tag_34\n  jumpi\n    /* \"#utility.yul\":572:651   */\n  tag_35\n  tag_36\n  jump\t// in\ntag_35:\n    /* \"#utility.yul\":531:653   */\ntag_34:\n    /* \"#utility.yul\":682:688   */\n  dup2\n    /* \"#utility.yul\":676:689   */\n  mload\n    /* \"#utility.yul\":707:797   */\n  tag_37\n    /* \"#utility.yul\":793:796   */\n  dup5\n    /* \"#utility.yul\":785:791   */\n  dup3\n    /* \"#utility.yul\":778:782   */\n  0x20\n    /* \"#utility.yul\":770:776   */\n  dup7\n    /* \"#utility.yul\":766:783   */\n  add\n    /* \"#utility.yul\":707:797   */\n  tag_21\n  jump\t// in\ntag_37:\n    /* \"#utility.yul\":698:797   */\n  swap2\n  pop\n    /* \"#utility.yul\":521:803   */\n  pop\n    /* \"#utility.yul\":448:803   */\n  swap3\n  swap2\n  pop\n  pop\n  jump\t// out\n    /* \"#utility.yul\":809:1333   */\ntag_3:\n    /* \"#utility.yul\":889:895   */\n  0x00\n    /* \"#utility.yul\":938:940   */\n  0x20\n    /* \"#utility.yul\":926:935   */\n  dup3\n    /* \"#utility.yul\":917:924   */\n  dup5\n    /* \"#utility.yul\":913:936   */\n  sub\n    /* \"#utility.yul\":909:941   */\n  slt\n    /* \"#utility.yul\":906:1025   */\n  iszero\n  tag_39\n  jumpi\n    /* \"#utility.yul\":944:1023   */\n  tag_40\n  tag_41\n  jump\t// in\ntag_40:\n    /* \"#utility.yul\":906:1025   */\ntag_39:\n    /* \"#utility.yul\":1085:1086   */\n  0x00\n    /* \"#utility.yul\":1074:1083   */\n  dup3\n    /* \"#utility.yul\":1070:1087   */\n  add\n    /* \"#utility.yul\":1064:1088   */\n  mload\n    /* \"#utility.yul\":1115:1133   */\n  0xffffffffffffffff\n    /* \"#utility.yul\":1107:1113   */\n  dup2\n    /* \"#utility.yul\":1104:1134   */\n  gt\n    /* \"#utility.yul\":1101:1218   */\n  iszero\n  tag_42\n  jumpi\n    /* \"#utility.yul\":1137:1216   */\n  tag_43\n  tag_44\n  jump\t// in\ntag_43:\n    /* \"#utility.yul\":1101:1218   */\ntag_42:\n    /* \"#utility.yul\":1242:1316   */\n  tag_45\n    /* \"#utility.yul\":1308:1315   */\n  dup5\n    /* \"#utility.yul\":1299:1305   */\n  dup3\n    /* \"#utility.yul\":1288:1297   */\n  dup6\n    /* \"#utility.yul\":1284:1306   */\n  add\n    /* \"#utility.yul\":1242:1316   */\n  tag_32\n  jump\t// in\ntag_45:\n    /* \"#utility.yul\":1232:1316   */\n  swap2\n  pop\n    /* \"#utility.yul\":1035:1326   */\n  pop\n    /* \"#utility.yul\":809:1333   */\n  swap3\n  swap2\n  pop\n  pop\n  jump\t// out\n    /* \"#utility.yul\":1339:1468   */\ntag_26:\n    /* \"#utility.yul\":1373:1379   */\n  0x00\n    /* \"#utility.yul\":1400:1420   */\n  tag_47\n  tag_48\n  jump\t// in\ntag_47:\n    /* \"#utility.yul\":1390:1420   */\n  swap1\n  pop\n    /* \"#utility.yul\":1429:1462   */\n  tag_49\n    /* \"#utility.yul\":1457:1461   */\n  dup3\n    /* \"#utility.yul\":1449:1455   */\n  dup3\n    /* \"#utility.yul\":1429:1462   */\n  tag_50\n  jump\t// in\ntag_49:\n    /* \"#utility.yul\":1339:1468   */\n  swap2\n  swap1\n  pop\n  jump\t// out\n    /* \"#utility.yul\":1474:1549   */\ntag_48:\n    /* \"#utility.yul\":1507:1513   */\n  0x00\n    /* \"#utility.yul\":1540:1542   */\n  0x40\n    /* \"#utility.yul\":1534:1543   */\n  mload\n    /* \"#utility.yul\":1524:1543   */\n  swap1\n  pop\n    /* \"#utility.yul\":1474:1549   */\n  swap1\n  jump\t// out\n    /* \"#utility.yul\":1555:1863   */\ntag_25:\n    /* \"#utility.yul\":1617:1621   */\n  0x00\n    /* \"#utility.yul\":1707:1725   */\n  0xffffffffffffffff\n    /* \"#utility.yul\":1699:1705   */\n  dup3\n    /* \"#utility.yul\":1696:1726   */\n  gt\n    /* \"#utility.yul\":1693:1749   */\n  iszero\n  tag_53\n  jumpi\n    /* \"#utility.yul\":1729:1747   */\n  tag_54\n  tag_55\n  jump\t// in\ntag_54:\n    /* \"#utility.yul\":1693:1749   */\ntag_53:\n    /* \"#utility.yul\":1767:1796   */\n  tag_56\n    /* \"#utility.yul\":1789:1795   */\n  dup3\n    /* \"#utility.yul\":1767:1796   */\n  tag_57\n  jump\t// in\ntag_56:\n    /* \"#utility.yul\":1759:1796   */\n  swap1\n  pop\n    /* \"#utility.yul\":1851:1855   */\n  0x20\n    /* \"#utility.yul\":1845:1849   */\n  dup2\n    /* \"#utility.yul\":1841:1856   */\n  add\n    /* \"#utility.yul\":1833:1856   */\n  swap1\n  pop\n    /* \"#utility.yul\":1555:1863   */\n  swap2\n  swap1\n  pop\n  jump\t// out\n    /* \"#utility.yul\":1869:2176   */\ntag_31:\n    /* \"#utility.yul\":1937:1938   */\n  0x00\n    /* \"#utility.yul\":1947:2060   */\ntag_59:\n    /* \"#utility.yul\":1961:1967   */\n  dup4\n    /* \"#utility.yul\":1958:1959   */\n  dup2\n    /* \"#utility.yul\":1955:1968   */\n  lt\n    /* \"#utility.yul\":1947:2060   */\n  iszero\n  tag_61\n  jumpi\n    /* \"#utility.yul\":2046:2047   */\n  dup1\n    /* \"#utility.yul\":2041:2044   */\n  dup3\n    /* \"#utility.yul\":2037:2048   */\n  add\n    /* \"#utility.yul\":2031:2049   */\n  mload\n    /* \"#utility.yul\":2027:2028   */\n  dup2\n    /* \"#utility.yul\":2022:2025   */\n  dup5\n    /* \"#utility.yul\":2018:2029   */\n  add\n    /* \"#utility.yul\":2011:2050   */\n  mstore\n    /* \"#utility.yul\":1983:1985   */\n  0x20\n    /* \"#utility.yul\":1980:1981   */\n  dup2\n    /* \"#utility.yul\":1976:1986   */\n  add\n    /* \"#utility.yul\":1971:1986   */\n  swap1\n  pop\n    /* \"#utility.yul\":1947:2060   */\n  jump(tag_59)\ntag_61:\n    /* \"#utility.yul\":2078:2084   */\n  dup4\n    /* \"#utility.yul\":2075:2076   */\n  dup2\n    /* \"#utility.yul\":2072:2085   */\n  gt\n    /* \"#utility.yul\":2069:2170   */\n  iszero\n  tag_62\n  jumpi\n    /* \"#utility.yul\":2158:2159   */\n  0x00\n    /* \"#utility.yul\":2149:2155   */\n  dup5\n    /* \"#utility.yul\":2144:2147   */\n  dup5\n    /* \"#utility.yul\":2140:2156   */\n  add\n    /* \"#utility.yul\":2133:2160   */\n  mstore\n    /* \"#utility.yul\":2069:2170   */\ntag_62:\n    /* \"#utility.yul\":1918:2176   */\n  pop\n    /* \"#utility.yul\":1869:2176   */\n  pop\n  pop\n  pop\n  jump\t// out\n    /* \"#utility.yul\":2182:2502   */\ntag_10:\n    /* \"#utility.yul\":2226:2232   */\n  0x00\n    /* \"#utility.yul\":2263:2264   */\n  0x02\n    /* \"#utility.yul\":2257:2261   */\n  dup3\n    /* \"#utility.yul\":2253:2265   */\n  div\n    /* \"#utility.yul\":2243:2265   */\n  swap1\n  pop\n    /* \"#utility.yul\":2310:2311   */\n  0x01\n    /* \"#utility.yul\":2304:2308   */\n  dup3\n    /* \"#utility.yul\":2300:2312   */\n  and\n    /* \"#utility.yul\":2331:2349   */\n  dup1\n    /* \"#utility.yul\":2321:2402   */\n  tag_64\n  jumpi\n    /* \"#utility.yul\":2387:2391   */\n  0x7f\n    /* \"#utility.yul\":2379:2385   */\n  dup3\n    /* \"#utility.yul\":2375:2392   */\n  and\n    /* \"#utility.yul\":2365:2392   */\n  swap2\n  pop\n    /* \"#utility.yul\":2321:2402   */\ntag_64:\n    /* \"#utility.yul\":2449:2451   */\n  0x20\n    /* \"#utility.yul\":2441:2447   */\n  dup3\n    /* \"#utility.yul\":2438:2452   */\n  lt\n    /* \"#utility.yul\":2418:2436   */\n  dup2\n    /* \"#utility.yul\":2415:2453   */\n  eq\n    /* \"#utility.yul\":2412:2496   */\n  iszero\n  tag_65\n  jumpi\n    /* \"#utility.yul\":2468:2486   */\n  tag_66\n  tag_67\n  jump\t// in\ntag_66:\n    /* \"#utility.yul\":2412:2496   */\ntag_65:\n    /* \"#utility.yul\":2233:2502   */\n  pop\n    /* \"#utility.yul\":2182:2502   */\n  swap2\n  swap1\n  pop\n  jump\t// out\n    /* \"#utility.yul\":2508:2789   */\ntag_50:\n    /* \"#utility.yul\":2591:2618   */\n  tag_69\n    /* \"#utility.yul\":2613:2617   */\n  dup3\n    /* \"#utility.yul\":2591:2618   */\n  tag_57\n  jump\t// in\ntag_69:\n    /* \"#utility.yul\":2583:2589   */\n  dup2\n    /* \"#utility.yul\":2579:2619   */\n  add\n    /* \"#utility.yul\":2721:2727   */\n  dup2\n    /* \"#utility.yul\":2709:2719   */\n  dup2\n    /* \"#utility.yul\":2706:2728   */\n  lt\n    /* \"#utility.yul\":2685:2703   */\n  0xffffffffffffffff\n    /* \"#utility.yul\":2673:2683   */\n  dup3\n    /* \"#utility.yul\":2670:2704   */\n  gt\n    /* \"#utility.yul\":2667:2729   */\n  or\n    /* \"#utility.yul\":2664:2752   */\n  iszero\n  tag_70\n  jumpi\n    /* \"#utility.yul\":2732:2750   */\n  tag_71\n  tag_55\n  jump\t// in\ntag_71:\n    /* \"#utility.yul\":2664:2752   */\ntag_70:\n    /* \"#utility.yul\":2772:2782   */\n  dup1\n    /* \"#utility.yul\":2768:2770   */\n  0x40\n    /* \"#utility.yul\":2761:2783   */\n  mstore\n    /* \"#utility.yul\":2551:2789   */\n  pop\n    /* \"#utility.yul\":2508:2789   */\n  pop\n  pop\n  jump\t// out\n    /* \"#utility.yul\":2795:2975   */\ntag_67:\n    /* \"#utility.yul\":2843:2920   */\n  0x4e487b7100000000000000000000000000000000000000000000000000000000\n    /* \"#utility.yul\":2840:2841   */\n  0x00\n    /* \"#utility.yul\":2833:2921   */\n  mstore\n    /* \"#utility.yul\":2940:2944   */\n  0x22\n    /* \"#utility.yul\":2937:2938   */\n  0x04\n    /* \"#utility.yul\":2930:2945   */\n  mstore\n    /* \"#utility.yul\":2964:2968   */\n  0x24\n    /* \"#utility.yul\":2961:2962   */\n  0x00\n    /* \"#utility.yul\":2954:2969   */\n  revert\n    /* \"#utility.yul\":2981:3161   */\ntag_55:\n    /* \"#utility.yul\":3029:3106   */\n  0x4e487b7100000000000000000000000000000000000000000000000000000000\n    /* \"#utility.yul\":3026:3027   */\n  0x00\n    /* \"#utility.yul\":3019:3107   */\n  mstore\n    /* \"#utility.yul\":3126:3130   */\n  0x41\n    /* \"#utility.yul\":3123:3124   */\n  0x04\n    /* \"#utility.yul\":3116:3131   */\n  mstore\n    /* \"#utility.yul\":3150:3154   */\n  0x24\n    /* \"#utility.yul\":3147:3148   */\n  0x00\n    /* \"#utility.yul\":3140:3155   */\n  revert\n    /* \"#utility.yul\":3167:3284   */\ntag_36:\n    /* \"#utility.yul\":3276:3277   */\n  0x00\n    /* \"#utility.yul\":3273:3274   */\n  dup1\n    /* \"#utility.yul\":3266:3278   */\n  revert\n    /* \"#utility.yul\":3290:3407   */\ntag_29:\n    /* \"#utility.yul\":3399:3400   */\n  0x00\n    /* \"#utility.yul\":3396:3397   */\n  dup1\n    /* \"#utility.yul\":3389:3401   */\n  revert\n    /* \"#utility.yul\":3413:3530   */\ntag_44:\n    /* \"#utility.yul\":3522:3523   */\n  0x00\n    /* \"#utility.yul\":3519:3520   */\n  dup1\n    /* \"#utility.yul\":3512:3524   */\n  revert\n    /* \"#utility.yul\":3536:3653   */\ntag_41:\n    /* \"#utility.yul\":3645:3646   */\n  0x00\n    /* \"#utility.yul\":3642:3643   */\n  dup1\n    /* \"#utility.yul\":3635:3647   */\n  revert\n    /* \"#utility.yul\":3659:3761   */\ntag_57:\n    /* \"#utility.yul\":3700:3706   */\n  0x00\n    /* \"#utility.yul\":3751:3753   */\n  0x1f\n    /* \"#utility.yul\":3747:3754   */\n  not\n    /* \"#utility.yul\":3742:3744   */\n  0x1f\n    /* \"#utility.yul\":3735:3740   */\n  dup4\n    /* \"#utility.yul\":3731:3745   */\n  add\n    /* \"#utility.yul\":3727:3755   */\n  and\n    /* \"#utility.yul\":3717:3755   */\n  swap1\n  pop\n    /* \"#utility.yul\":3659:3761   */\n  swap2\n  swap1\n  pop\n  jump\t// out\n    /* \"contracts/Voting.sol\":57:4120  contract OnlineVoting {... */\ntag_8:\n  dataSize(sub_0)\n  dup1\n  dataOffset(sub_0)\n  0x00\n  codecopy\n  0x00\n  return\nstop\n\nsub_0: assembly {\n        /* \"contracts/Voting.sol\":57:4120  contract OnlineVoting {... */\n      mstore(0x40, 0x80)\n      callvalue\n      dup1\n      iszero\n      tag_1\n      jumpi\n      0x00\n      dup1\n      revert\n    tag_1:\n      pop\n      jumpi(tag_2, lt(calldatasize, 0x04))\n      shr(0xe0, calldataload(0x00))\n      dup1\n      0x5a7cd373\n      gt\n      tag_18\n      jumpi\n      dup1\n      0xaa4fdefb\n      gt\n      tag_19\n      jumpi\n      dup1\n      0xaa4fdefb\n      eq\n      tag_14\n      jumpi\n      dup1\n      0xce05c1fa\n      eq\n      tag_15\n      jumpi\n      dup1\n      0xd32bb1c9\n      eq\n      tag_16\n      jumpi\n      dup1\n      0xe2ba53f0\n      eq\n      tag_17\n      jumpi\n      jump(tag_2)\n    tag_19:\n      dup1\n      0x5a7cd373\n      eq\n      tag_10\n      jumpi\n      dup1\n      0x87ee6d5b\n      eq\n      tag_11\n      jumpi\n      dup1\n      0x95805dad\n      eq\n      tag_12\n      jumpi\n      dup1\n      0xa3ec138d\n      eq\n      tag_13\n      jumpi\n      jump(tag_2)\n    tag_18:\n      dup1\n      0x3477ee2e\n      gt\n      tag_20\n      jumpi\n      dup1\n      0x3477ee2e\n      eq\n      tag_6\n      jumpi\n      dup1\n      0x3c4101fb\n      eq\n      tag_7\n      jumpi\n      dup1\n      0x462e91ec\n      eq\n      tag_8\n      jumpi\n      dup1\n      0x544736e6\n      eq\n      tag_9\n      jumpi\n      jump(tag_2)\n    tag_20:\n      dup1\n      0x0121b93f\n      eq\n      tag_3\n      jumpi\n      dup1\n      0x1af10679\n      eq\n      tag_4\n      jumpi\n      dup1\n      0x3197cbb6\n      eq\n      tag_5\n      jumpi\n    tag_2:\n      0x00\n      dup1\n      revert\n        /* \"contracts/Voting.sol\":2018:2818  function vote(uint chosenCandidate) public {... */\n    tag_3:\n      tag_21\n      0x04\n      dup1\n      calldatasize\n      sub\n      dup2\n      add\n      swap1\n      tag_22\n      swap2\n      swap1\n      tag_23\n      jump\t// in\n    tag_22:\n      tag_24\n      jump\t// in\n    tag_21:\n      stop\n        /* \"contracts/Voting.sol\":239:272  address [] public votersAddresses */\n    tag_4:\n      tag_25\n      0x04\n      dup1\n      calldatasize\n      sub\n      dup2\n      add\n      swap1\n      tag_26\n      swap2\n      swap1\n      tag_23\n      jump\t// in\n    tag_26:\n      tag_27\n      jump\t// in\n    tag_25:\n      mload(0x40)\n      tag_28\n      swap2\n      swap1\n      tag_29\n      jump\t// in\n    tag_28:\n      mload(0x40)\n      dup1\n      swap2\n      sub\n      swap1\n      return\n        /* \"contracts/Voting.sol\":184:203  uint public endTime */\n    tag_5:\n      tag_30\n      tag_31\n      jump\t// in\n    tag_30:\n      mload(0x40)\n      tag_32\n      swap2\n      swap1\n      tag_33\n      jump\t// in\n    tag_32:\n      mload(0x40)\n      dup1\n      swap2\n      sub\n      swap1\n      return\n        /* \"contracts/Voting.sol\":280:310  Candidate [] public candidates */\n    tag_6:\n      tag_34\n      0x04\n      dup1\n      calldatasize\n      sub\n      dup2\n      add\n      swap1\n      tag_35\n      swap2\n      swap1\n      tag_23\n      jump\t// in\n    tag_35:\n      tag_36\n      jump\t// in\n    tag_34:\n      mload(0x40)\n      tag_37\n      swap3\n      swap2\n      swap1\n      tag_38\n      jump\t// in\n    tag_37:\n      mload(0x40)\n      dup1\n      swap2\n      sub\n      swap1\n      return\n        /* \"contracts/Voting.sol\":86:114  address public organizerName */\n    tag_7:\n      tag_39\n      tag_40\n      jump\t// in\n    tag_39:\n      mload(0x40)\n      tag_41\n      swap2\n      swap1\n      tag_29\n      jump\t// in\n    tag_41:\n      mload(0x40)\n      dup1\n      swap2\n      sub\n      swap1\n      return\n        /* \"contracts/Voting.sol\":963:1626  function addCandidate (string memory addName) public {... */\n    tag_8:\n      tag_42\n      0x04\n      dup1\n      calldatasize\n      sub\n      dup2\n      add\n      swap1\n      tag_43\n      swap2\n      swap1\n      tag_44\n      jump\t// in\n    tag_43:\n      tag_45\n      jump\t// in\n    tag_42:\n      stop\n        /* \"contracts/Voting.sol\":210:231  bool public isStarted */\n    tag_9:\n      tag_46\n      tag_47\n      jump\t// in\n    tag_46:\n      mload(0x40)\n      tag_48\n      swap2\n      swap1\n      tag_49\n      jump\t// in\n    tag_48:\n      mload(0x40)\n      dup1\n      swap2\n      sub\n      swap1\n      return\n        /* \"contracts/Voting.sol\":1633:2011  function addPermissionForVote(address voter) public {... */\n    tag_10:\n      tag_50\n      0x04\n      dup1\n      calldatasize\n      sub\n      dup2\n      add\n      swap1\n      tag_51\n      swap2\n      swap1\n      tag_52\n      jump\t// in\n    tag_51:\n      tag_53\n      jump\t// in\n    tag_50:\n      stop\n        /* \"contracts/Voting.sol\":4013:4117  function getGivenVotersNumber() public view returns(uint) {... */\n    tag_11:\n      tag_54\n      tag_55\n      jump\t// in\n    tag_54:\n      mload(0x40)\n      tag_56\n      swap2\n      swap1\n      tag_33\n      jump\t// in\n    tag_56:\n      mload(0x40)\n      dup1\n      swap2\n      sub\n      swap1\n      return\n        /* \"contracts/Voting.sol\":734:956  function start (uint duration) public {... */\n    tag_12:\n      tag_57\n      0x04\n      dup1\n      calldatasize\n      sub\n      dup2\n      add\n      swap1\n      tag_58\n      swap2\n      swap1\n      tag_23\n      jump\t// in\n    tag_58:\n      tag_59\n      jump\t// in\n    tag_57:\n      stop\n        /* \"contracts/Voting.sol\":317:356  mapping(address => Voter) public voters */\n    tag_13:\n      tag_60\n      0x04\n      dup1\n      calldatasize\n      sub\n      dup2\n      add\n      swap1\n      tag_61\n      swap2\n      swap1\n      tag_52\n      jump\t// in\n    tag_61:\n      tag_62\n      jump\t// in\n    tag_60:\n      mload(0x40)\n      tag_63\n      swap4\n      swap3\n      swap2\n      swap1\n      tag_64\n      jump\t// in\n    tag_63:\n      mload(0x40)\n      dup1\n      swap2\n      sub\n      swap1\n      return\n        /* \"contracts/Voting.sol\":2825:3900  function resultCount() public {... */\n    tag_14:\n      tag_65\n      tag_66\n      jump\t// in\n    tag_65:\n      stop\n        /* \"contracts/Voting.sol\":121:144  string public electName */\n    tag_15:\n      tag_67\n      tag_68\n      jump\t// in\n    tag_67:\n      mload(0x40)\n      tag_69\n      swap2\n      swap1\n      tag_70\n      jump\t// in\n    tag_69:\n      mload(0x40)\n      dup1\n      swap2\n      sub\n      swap1\n      return\n        /* \"contracts/Voting.sol\":3908:4006  function getCandidateNumbers() public view returns(uint) {... */\n    tag_16:\n      tag_71\n      tag_72\n      jump\t// in\n    tag_71:\n      mload(0x40)\n      tag_73\n      swap2\n      swap1\n      tag_33\n      jump\t// in\n    tag_73:\n      mload(0x40)\n      dup1\n      swap2\n      sub\n      swap1\n      return\n        /* \"contracts/Voting.sol\":151:175  string public winnerName */\n    tag_17:\n      tag_74\n      tag_75\n      jump\t// in\n    tag_74:\n      mload(0x40)\n      tag_76\n      swap2\n      swap1\n      tag_70\n      jump\t// in\n    tag_76:\n      mload(0x40)\n      dup1\n      swap2\n      sub\n      swap1\n      return\n        /* \"contracts/Voting.sol\":2018:2818  function vote(uint chosenCandidate) public {... */\n    tag_24:\n        /* \"contracts/Voting.sol\":2118:2122  true */\n      0x01\n        /* \"contracts/Voting.sol\":2079:2122  voters[msg.sender].votingPermission == true */\n      iszero\n      iszero\n        /* \"contracts/Voting.sol\":2079:2085  voters */\n      0x07\n        /* \"contracts/Voting.sol\":2079:2097  voters[msg.sender] */\n      0x00\n        /* \"contracts/Voting.sol\":2086:2096  msg.sender */\n      caller\n        /* \"contracts/Voting.sol\":2079:2097  voters[msg.sender] */\n      0xffffffffffffffffffffffffffffffffffffffff\n      and\n      0xffffffffffffffffffffffffffffffffffffffff\n      and\n      dup2\n      mstore\n      0x20\n      add\n      swap1\n      dup2\n      mstore\n      0x20\n      add\n      0x00\n      keccak256\n        /* \"contracts/Voting.sol\":2079:2114  voters[msg.sender].votingPermission */\n      0x00\n      add\n      0x01\n      swap1\n      sload\n      swap1\n      0x0100\n      exp\n      swap1\n      div\n      0xff\n      and\n        /* \"contracts/Voting.sol\":2079:2122  voters[msg.sender].votingPermission == true */\n      iszero\n      iszero\n      eq\n        /* \"contracts/Voting.sol\":2071:2165  require(voters[msg.sender].votingPermission == true, \"You are not authorized to give a vote.\") */\n      tag_78\n      jumpi\n      mload(0x40)\n      0x08c379a000000000000000000000000000000000000000000000000000000000\n      dup2\n      mstore\n      0x04\n      add\n      tag_79\n      swap1\n      tag_80\n      jump\t// in\n    tag_79:\n      mload(0x40)\n      dup1\n      swap2\n      sub\n      swap1\n      revert\n    tag_78:\n        /* \"contracts/Voting.sol\":2201:2208  endTime */\n      sload(0x03)\n        /* \"contracts/Voting.sol\":2183:2198  block.timestamp */\n      timestamp\n        /* \"contracts/Voting.sol\":2183:2208  block.timestamp < endTime */\n      lt\n        /* \"contracts/Voting.sol\":2175:2245  require(block.timestamp < endTime, \"Time is up! You cannot vote now.\") */\n      tag_81\n      jumpi\n      mload(0x40)\n      0x08c379a000000000000000000000000000000000000000000000000000000000\n      dup2\n      mstore\n      0x04\n      add\n      tag_82\n      swap1\n      tag_83\n      jump\t// in\n    tag_82:\n      mload(0x40)\n      dup1\n      swap2\n      sub\n      swap1\n      revert\n    tag_81:\n        /* \"contracts/Voting.sol\":2277:2281  true */\n      0x01\n        /* \"contracts/Voting.sol\":2264:2281  isStarted == true */\n      iszero\n      iszero\n        /* \"contracts/Voting.sol\":2264:2273  isStarted */\n      0x04\n      0x00\n      swap1\n      sload\n      swap1\n      0x0100\n      exp\n      swap1\n      div\n      0xff\n      and\n        /* \"contracts/Voting.sol\":2264:2281  isStarted == true */\n      iszero\n      iszero\n      eq\n        /* \"contracts/Voting.sol\":2255:2318  require (isStarted == true, \"Voting has not been started yet!\") */\n      tag_84\n      jumpi\n      mload(0x40)\n      0x08c379a000000000000000000000000000000000000000000000000000000000\n      dup2\n      mstore\n      0x04\n      add\n      tag_85\n      swap1\n      tag_86\n      jump\t// in\n    tag_85:\n      mload(0x40)\n      dup1\n      swap2\n      sub\n      swap1\n      revert\n    tag_84:\n        /* \"contracts/Voting.sol\":2366:2371  false */\n      0x00\n        /* \"contracts/Voting.sol\":2336:2371  voters[msg.sender].isVoted == false */\n      iszero\n      iszero\n        /* \"contracts/Voting.sol\":2336:2342  voters */\n      0x07\n        /* \"contracts/Voting.sol\":2336:2354  voters[msg.sender] */\n      0x00\n        /* \"contracts/Voting.sol\":2343:2353  msg.sender */\n      caller\n        /* \"contracts/Voting.sol\":2336:2354  voters[msg.sender] */\n      0xffffffffffffffffffffffffffffffffffffffff\n      and\n      0xffffffffffffffffffffffffffffffffffffffff\n      and\n      dup2\n      mstore\n      0x20\n      add\n      swap1\n      dup2\n      mstore\n      0x20\n      add\n      0x00\n      keccak256\n        /* \"contracts/Voting.sol\":2336:2362  voters[msg.sender].isVoted */\n      0x00\n      add\n      0x00\n      swap1\n      sload\n      swap1\n      0x0100\n      exp\n      swap1\n      div\n      0xff\n      and\n        /* \"contracts/Voting.sol\":2336:2371  voters[msg.sender].isVoted == false */\n      iszero\n      iszero\n      eq\n        /* \"contracts/Voting.sol\":2328:2404  require(voters[msg.sender].isVoted == false, \"Your voting is already done.\") */\n      tag_87\n      jumpi\n      mload(0x40)\n      0x08c379a000000000000000000000000000000000000000000000000000000000\n      dup2\n      mstore\n      0x04\n      add\n      tag_88\n      swap1\n      tag_89\n      jump\t// in\n    tag_88:\n      mload(0x40)\n      dup1\n      swap2\n      sub\n      swap1\n      revert\n    tag_87:\n        /* \"contracts/Voting.sol\":2440:2461  getCandidateNumbers() */\n      tag_90\n        /* \"contracts/Voting.sol\":2440:2459  getCandidateNumbers */\n      tag_72\n        /* \"contracts/Voting.sol\":2440:2461  getCandidateNumbers() */\n      jump\t// in\n    tag_90:\n        /* \"contracts/Voting.sol\":2422:2437  chosenCandidate */\n      dup2\n        /* \"contracts/Voting.sol\":2422:2461  chosenCandidate < getCandidateNumbers() */\n      lt\n        /* \"contracts/Voting.sol\":2414:2504  require(chosenCandidate < getCandidateNumbers(), \"Please enter a valid candidate number.\") */\n      tag_91\n      jumpi\n      mload(0x40)\n      0x08c379a000000000000000000000000000000000000000000000000000000000\n      dup2\n      mstore\n      0x04\n      add\n      tag_92\n      swap1\n      tag_93\n      jump\t// in\n    tag_92:\n      mload(0x40)\n      dup1\n      swap2\n      sub\n      swap1\n      revert\n    tag_91:\n        /* \"contracts/Voting.sol\":2558:2573  chosenCandidate */\n      dup1\n        /* \"contracts/Voting.sol\":2515:2521  voters */\n      0x07\n        /* \"contracts/Voting.sol\":2515:2533  voters[msg.sender] */\n      0x00\n        /* \"contracts/Voting.sol\":2522:2532  msg.sender */\n      caller\n        /* \"contracts/Voting.sol\":2515:2533  voters[msg.sender] */\n      0xffffffffffffffffffffffffffffffffffffffff\n      and\n      0xffffffffffffffffffffffffffffffffffffffff\n      and\n      dup2\n      mstore\n      0x20\n      add\n      swap1\n      dup2\n      mstore\n      0x20\n      add\n      0x00\n      keccak256\n        /* \"contracts/Voting.sol\":2515:2555  voters[msg.sender].votingCandidateNumber */\n      0x01\n      add\n        /* \"contracts/Voting.sol\":2515:2573  voters[msg.sender].votingCandidateNumber = chosenCandidate */\n      dup2\n      swap1\n      sstore\n      pop\n        /* \"contracts/Voting.sol\":2612:2616  true */\n      0x01\n        /* \"contracts/Voting.sol\":2583:2589  voters */\n      0x07\n        /* \"contracts/Voting.sol\":2583:2601  voters[msg.sender] */\n      0x00\n        /* \"contracts/Voting.sol\":2590:2600  msg.sender */\n      caller\n        /* \"contracts/Voting.sol\":2583:2601  voters[msg.sender] */\n      0xffffffffffffffffffffffffffffffffffffffff\n      and\n      0xffffffffffffffffffffffffffffffffffffffff\n      and\n      dup2\n      mstore\n      0x20\n      add\n      swap1\n      dup2\n      mstore\n      0x20\n      add\n      0x00\n      keccak256\n        /* \"contracts/Voting.sol\":2583:2609  voters[msg.sender].isVoted */\n      0x00\n      add\n      0x00\n        /* \"contracts/Voting.sol\":2583:2616  voters[msg.sender].isVoted = true */\n      0x0100\n      exp\n      dup2\n      sload\n      dup2\n      0xff\n      mul\n      not\n      and\n      swap1\n      dup4\n      iszero\n      iszero\n      mul\n      or\n      swap1\n      sstore\n      pop\n        /* \"contracts/Voting.sol\":2627:2646  uint candidateIndex */\n      0x00\n        /* \"contracts/Voting.sol\":2649:2655  voters */\n      0x07\n        /* \"contracts/Voting.sol\":2649:2667  voters[msg.sender] */\n      0x00\n        /* \"contracts/Voting.sol\":2656:2666  msg.sender */\n      caller\n        /* \"contracts/Voting.sol\":2649:2667  voters[msg.sender] */\n      0xffffffffffffffffffffffffffffffffffffffff\n      and\n      0xffffffffffffffffffffffffffffffffffffffff\n      and\n      dup2\n      mstore\n      0x20\n      add\n      swap1\n      dup2\n      mstore\n      0x20\n      add\n      0x00\n      keccak256\n        /* \"contracts/Voting.sol\":2649:2689  voters[msg.sender].votingCandidateNumber */\n      0x01\n      add\n      sload\n        /* \"contracts/Voting.sol\":2627:2689  uint candidateIndex = voters[msg.sender].votingCandidateNumber */\n      swap1\n      pop\n        /* \"contracts/Voting.sol\":2699:2709  candidates */\n      0x06\n        /* \"contracts/Voting.sol\":2710:2724  candidateIndex */\n      dup2\n        /* \"contracts/Voting.sol\":2699:2725  candidates[candidateIndex] */\n      dup2\n      sload\n      dup2\n      lt\n      tag_94\n      jumpi\n      tag_95\n      tag_96\n      jump\t// in\n    tag_95:\n    tag_94:\n      swap1\n      0x00\n      mstore\n      keccak256(0x00, 0x20)\n      swap1\n      0x03\n      mul\n      add\n        /* \"contracts/Voting.sol\":2699:2750  candidates[candidateIndex].voterAddressForCandidate */\n      0x02\n      add\n        /* \"contracts/Voting.sol\":2756:2766  msg.sender */\n      caller\n        /* \"contracts/Voting.sol\":2699:2767  candidates[candidateIndex].voterAddressForCandidate.push(msg.sender) */\n      swap1\n      dup1\n      0x01\n      dup2\n      sload\n      add\n      dup1\n      dup3\n      sstore\n      dup1\n      swap2\n      pop\n      pop\n      0x01\n      swap1\n      sub\n      swap1\n      0x00\n      mstore\n      keccak256(0x00, 0x20)\n      add\n      0x00\n      swap1\n      swap2\n      swap1\n      swap2\n      swap1\n      swap2\n      0x0100\n      exp\n      dup2\n      sload\n      dup2\n      0xffffffffffffffffffffffffffffffffffffffff\n      mul\n      not\n      and\n      swap1\n      dup4\n      0xffffffffffffffffffffffffffffffffffffffff\n      and\n      mul\n      or\n      swap1\n      sstore\n      pop\n        /* \"contracts/Voting.sol\":2778:2793  votersAddresses */\n      0x05\n        /* \"contracts/Voting.sol\":2799:2809  msg.sender */\n      caller\n        /* \"contracts/Voting.sol\":2778:2810  votersAddresses.push(msg.sender) */\n      swap1\n      dup1\n      0x01\n      dup2\n      sload\n      add\n      dup1\n      dup3\n      sstore\n      dup1\n      swap2\n      pop\n      pop\n      0x01\n      swap1\n      sub\n      swap1\n      0x00\n      mstore\n      keccak256(0x00, 0x20)\n      add\n      0x00\n      swap1\n      swap2\n      swap1\n      swap2\n      swap1\n      swap2\n      0x0100\n      exp\n      dup2\n      sload\n      dup2\n      0xffffffffffffffffffffffffffffffffffffffff\n      mul\n      not\n      and\n      swap1\n      dup4\n      0xffffffffffffffffffffffffffffffffffffffff\n      and\n      mul\n      or\n      swap1\n      sstore\n      pop\n        /* \"contracts/Voting.sol\":2061:2818  {... */\n      pop\n        /* \"contracts/Voting.sol\":2018:2818  function vote(uint chosenCandidate) public {... */\n      pop\n      jump\t// out\n        /* \"contracts/Voting.sol\":239:272  address [] public votersAddresses */\n    tag_27:\n      0x05\n      dup2\n      dup2\n      sload\n      dup2\n      lt\n      tag_100\n      jumpi\n      0x00\n      dup1\n      revert\n    tag_100:\n      swap1\n      0x00\n      mstore\n      keccak256(0x00, 0x20)\n      add\n      0x00\n      swap2\n      pop\n      sload\n      swap1\n      0x0100\n      exp\n      swap1\n      div\n      0xffffffffffffffffffffffffffffffffffffffff\n      and\n      dup2\n      jump\t// out\n        /* \"contracts/Voting.sol\":184:203  uint public endTime */\n    tag_31:\n      sload(0x03)\n      dup2\n      jump\t// out\n        /* \"contracts/Voting.sol\":280:310  Candidate [] public candidates */\n    tag_36:\n      0x06\n      dup2\n      dup2\n      sload\n      dup2\n      lt\n      tag_102\n      jumpi\n      0x00\n      dup1\n      revert\n    tag_102:\n      swap1\n      0x00\n      mstore\n      keccak256(0x00, 0x20)\n      swap1\n      0x03\n      mul\n      add\n      0x00\n      swap2\n      pop\n      swap1\n      pop\n      dup1\n      0x00\n      add\n      dup1\n      sload\n      tag_104\n      swap1\n      tag_105\n      jump\t// in\n    tag_104:\n      dup1\n      0x1f\n      add\n      0x20\n      dup1\n      swap2\n      div\n      mul\n      0x20\n      add\n      mload(0x40)\n      swap1\n      dup2\n      add\n      0x40\n      mstore\n      dup1\n      swap3\n      swap2\n      swap1\n      dup2\n      dup2\n      mstore\n      0x20\n      add\n      dup3\n      dup1\n      sload\n      tag_106\n      swap1\n      tag_105\n      jump\t// in\n    tag_106:\n      dup1\n      iszero\n      tag_107\n      jumpi\n      dup1\n      0x1f\n      lt\n      tag_108\n      jumpi\n      0x0100\n      dup1\n      dup4\n      sload\n      div\n      mul\n      dup4\n      mstore\n      swap2\n      0x20\n      add\n      swap2\n      jump(tag_107)\n    tag_108:\n      dup3\n      add\n      swap2\n      swap1\n      0x00\n      mstore\n      keccak256(0x00, 0x20)\n      swap1\n    tag_109:\n      dup2\n      sload\n      dup2\n      mstore\n      swap1\n      0x01\n      add\n      swap1\n      0x20\n      add\n      dup1\n      dup4\n      gt\n      tag_109\n      jumpi\n      dup3\n      swap1\n      sub\n      0x1f\n      and\n      dup3\n      add\n      swap2\n    tag_107:\n      pop\n      pop\n      pop\n      pop\n      pop\n      swap1\n      dup1\n      0x01\n      add\n      sload\n      swap1\n      pop\n      dup3\n      jump\t// out\n        /* \"contracts/Voting.sol\":86:114  address public organizerName */\n    tag_40:\n      0x00\n      dup1\n      sload\n      swap1\n      0x0100\n      exp\n      swap1\n      div\n      0xffffffffffffffffffffffffffffffffffffffff\n      and\n      dup2\n      jump\t// out\n        /* \"contracts/Voting.sol\":963:1626  function addCandidate (string memory addName) public {... */\n    tag_45:\n        /* \"contracts/Voting.sol\":1048:1061  organizerName */\n      0x00\n      dup1\n      sload\n      swap1\n      0x0100\n      exp\n      swap1\n      div\n      0xffffffffffffffffffffffffffffffffffffffff\n      and\n        /* \"contracts/Voting.sol\":1034:1061  msg.sender == organizerName */\n      0xffffffffffffffffffffffffffffffffffffffff\n      and\n        /* \"contracts/Voting.sol\":1034:1044  msg.sender */\n      caller\n        /* \"contracts/Voting.sol\":1034:1061  msg.sender == organizerName */\n      0xffffffffffffffffffffffffffffffffffffffff\n      and\n      eq\n        /* \"contracts/Voting.sol\":1026:1109  require(msg.sender == organizerName, \"Only organizer is allowd to add candidates.\") */\n      tag_111\n      jumpi\n      mload(0x40)\n      0x08c379a000000000000000000000000000000000000000000000000000000000\n      dup2\n      mstore\n      0x04\n      add\n      tag_112\n      swap1\n      tag_113\n      jump\t// in\n    tag_112:\n      mload(0x40)\n      dup1\n      swap2\n      sub\n      swap1\n      revert\n    tag_111:\n        /* \"contracts/Voting.sol\":1140:1145  false */\n      0x00\n        /* \"contracts/Voting.sol\":1127:1145  isStarted == false */\n      iszero\n      iszero\n        /* \"contracts/Voting.sol\":1127:1136  isStarted */\n      0x04\n      0x00\n      swap1\n      sload\n      swap1\n      0x0100\n      exp\n      swap1\n      div\n      0xff\n      and\n        /* \"contracts/Voting.sol\":1127:1145  isStarted == false */\n      iszero\n      iszero\n      eq\n        /* \"contracts/Voting.sol\":1119:1192  require(isStarted == false, \"You cannot add a candidate at this moment.\") */\n      tag_114\n      jumpi\n      mload(0x40)\n      0x08c379a000000000000000000000000000000000000000000000000000000000\n      dup2\n      mstore\n      0x04\n      add\n      tag_115\n      swap1\n      tag_116\n      jump\t// in\n    tag_115:\n      mload(0x40)\n      dup1\n      swap2\n      sub\n      swap1\n      revert\n    tag_114:\n        /* \"contracts/Voting.sol\":1203:1224  bool isCandidateExist */\n      0x00\n        /* \"contracts/Voting.sol\":1248:1254  uint i */\n      dup1\n        /* \"contracts/Voting.sol\":1243:1472  for (uint i=0; i<getCandidateNumbers(); i++) {... */\n    tag_117:\n        /* \"contracts/Voting.sol\":1260:1281  getCandidateNumbers() */\n      tag_120\n        /* \"contracts/Voting.sol\":1260:1279  getCandidateNumbers */\n      tag_72\n        /* \"contracts/Voting.sol\":1260:1281  getCandidateNumbers() */\n      jump\t// in\n    tag_120:\n        /* \"contracts/Voting.sol\":1258:1259  i */\n      dup2\n        /* \"contracts/Voting.sol\":1258:1281  i<getCandidateNumbers() */\n      lt\n        /* \"contracts/Voting.sol\":1243:1472  for (uint i=0; i<getCandidateNumbers(); i++) {... */\n      iszero\n      tag_118\n      jumpi\n        /* \"contracts/Voting.sol\":1371:1378  addName */\n      dup3\n        /* \"contracts/Voting.sol\":1355:1380  keccak256(bytes(addName)) */\n      dup1\n      mload\n      swap1\n      0x20\n      add\n      keccak256\n        /* \"contracts/Voting.sol\":1322:1332  candidates */\n      0x06\n        /* \"contracts/Voting.sol\":1333:1334  i */\n      dup3\n        /* \"contracts/Voting.sol\":1322:1335  candidates[i] */\n      dup2\n      sload\n      dup2\n      lt\n      tag_121\n      jumpi\n      tag_122\n      tag_96\n      jump\t// in\n    tag_122:\n    tag_121:\n      swap1\n      0x00\n      mstore\n      keccak256(0x00, 0x20)\n      swap1\n      0x03\n      mul\n      add\n        /* \"contracts/Voting.sol\":1322:1349  candidates[i].candidateName */\n      0x00\n      add\n        /* \"contracts/Voting.sol\":1306:1351  keccak256(bytes(candidates[i].candidateName)) */\n      mload(0x40)\n      tag_124\n      swap2\n      swap1\n      tag_125\n      jump\t// in\n    tag_124:\n      mload(0x40)\n      dup1\n      swap2\n      sub\n      swap1\n      keccak256\n        /* \"contracts/Voting.sol\":1306:1380  keccak256(bytes(candidates[i].candidateName)) == keccak256(bytes(addName)) */\n      eq\n        /* \"contracts/Voting.sol\":1302:1462  if (keccak256(bytes(candidates[i].candidateName)) == keccak256(bytes(addName))) {... */\n      iszero\n      tag_126\n      jumpi\n        /* \"contracts/Voting.sol\":1420:1424  true */\n      0x01\n        /* \"contracts/Voting.sol\":1401:1424  isCandidateExist = true */\n      swap2\n      pop\n        /* \"contracts/Voting.sol\":1442:1447  break */\n      jump(tag_118)\n        /* \"contracts/Voting.sol\":1302:1462  if (keccak256(bytes(candidates[i].candidateName)) == keccak256(bytes(addName))) {... */\n    tag_126:\n        /* \"contracts/Voting.sol\":1283:1286  i++ */\n      dup1\n      dup1\n      tag_127\n      swap1\n      tag_128\n      jump\t// in\n    tag_127:\n      swap2\n      pop\n      pop\n        /* \"contracts/Voting.sol\":1243:1472  for (uint i=0; i<getCandidateNumbers(); i++) {... */\n      jump(tag_117)\n    tag_118:\n      pop\n        /* \"contracts/Voting.sol\":1510:1515  false */\n      0x00\n        /* \"contracts/Voting.sol\":1490:1515  isCandidateExist == false */\n      iszero\n      iszero\n        /* \"contracts/Voting.sol\":1490:1506  isCandidateExist */\n      dup2\n        /* \"contracts/Voting.sol\":1490:1515  isCandidateExist == false */\n      iszero\n      iszero\n      eq\n        /* \"contracts/Voting.sol\":1482:1552  require(isCandidateExist == false, \"This candidate is already added.\") */\n      tag_129\n      jumpi\n      mload(0x40)\n      0x08c379a000000000000000000000000000000000000000000000000000000000\n      dup2\n      mstore\n      0x04\n      add\n      tag_130\n      swap1\n      tag_131\n      jump\t// in\n    tag_130:\n      mload(0x40)\n      dup1\n      swap2\n      sub\n      swap1\n      revert\n    tag_129:\n        /* \"contracts/Voting.sol\":1563:1573  candidates */\n      0x06\n        /* \"contracts/Voting.sol\":1579:1618  Candidate(addName, 0, new address[](0)) */\n      mload(0x40)\n      dup1\n      0x60\n      add\n      0x40\n      mstore\n      dup1\n        /* \"contracts/Voting.sol\":1589:1596  addName */\n      dup5\n        /* \"contracts/Voting.sol\":1579:1618  Candidate(addName, 0, new address[](0)) */\n      dup2\n      mstore\n      0x20\n      add\n        /* \"contracts/Voting.sol\":1598:1599  0 */\n      0x00\n        /* \"contracts/Voting.sol\":1579:1618  Candidate(addName, 0, new address[](0)) */\n      dup2\n      mstore\n      0x20\n      add\n        /* \"contracts/Voting.sol\":1615:1616  0 */\n      0x00\n        /* \"contracts/Voting.sol\":1601:1617  new address[](0) */\n      0xffffffffffffffff\n      dup2\n      gt\n      iszero\n      tag_132\n      jumpi\n      tag_133\n      tag_134\n      jump\t// in\n    tag_133:\n    tag_132:\n      mload(0x40)\n      swap1\n      dup1\n      dup3\n      mstore\n      dup1\n      0x20\n      mul\n      0x20\n      add\n      dup3\n      add\n      0x40\n      mstore\n      dup1\n      iszero\n      tag_135\n      jumpi\n      dup2\n      0x20\n      add\n      0x20\n      dup3\n      mul\n      dup1\n      calldatasize\n      dup4\n      calldatacopy\n      dup1\n      dup3\n      add\n      swap2\n      pop\n      pop\n      swap1\n      pop\n    tag_135:\n      pop\n        /* \"contracts/Voting.sol\":1579:1618  Candidate(addName, 0, new address[](0)) */\n      dup2\n      mstore\n      pop\n        /* \"contracts/Voting.sol\":1563:1619  candidates.push(Candidate(addName, 0, new address[](0))) */\n      swap1\n      dup1\n      0x01\n      dup2\n      sload\n      add\n      dup1\n      dup3\n      sstore\n      dup1\n      swap2\n      pop\n      pop\n      0x01\n      swap1\n      sub\n      swap1\n      0x00\n      mstore\n      keccak256(0x00, 0x20)\n      swap1\n      0x03\n      mul\n      add\n      0x00\n      swap1\n      swap2\n      swap1\n      swap2\n      swap1\n      swap2\n      pop\n      0x00\n      dup3\n      add\n      mload\n      dup2\n      0x00\n      add\n      swap1\n      dup1\n      mload\n      swap1\n      0x20\n      add\n      swap1\n      tag_137\n      swap3\n      swap2\n      swap1\n      tag_138\n      jump\t// in\n    tag_137:\n      pop\n      0x20\n      dup3\n      add\n      mload\n      dup2\n      0x01\n      add\n      sstore\n      0x40\n      dup3\n      add\n      mload\n      dup2\n      0x02\n      add\n      swap1\n      dup1\n      mload\n      swap1\n      0x20\n      add\n      swap1\n      tag_139\n      swap3\n      swap2\n      swap1\n      tag_140\n      jump\t// in\n    tag_139:\n      pop\n      pop\n      pop\n        /* \"contracts/Voting.sol\":1016:1626  {... */\n      pop\n        /* \"contracts/Voting.sol\":963:1626  function addCandidate (string memory addName) public {... */\n      pop\n      jump\t// out\n        /* \"contracts/Voting.sol\":210:231  bool public isStarted */\n    tag_47:\n      0x04\n      0x00\n      swap1\n      sload\n      swap1\n      0x0100\n      exp\n      swap1\n      div\n      0xff\n      and\n      dup2\n      jump\t// out\n        /* \"contracts/Voting.sol\":1633:2011  function addPermissionForVote(address voter) public {... */\n    tag_53:\n        /* \"contracts/Voting.sol\":1717:1730  organizerName */\n      0x00\n      dup1\n      sload\n      swap1\n      0x0100\n      exp\n      swap1\n      div\n      0xffffffffffffffffffffffffffffffffffffffff\n      and\n        /* \"contracts/Voting.sol\":1703:1730  msg.sender == organizerName */\n      0xffffffffffffffffffffffffffffffffffffffff\n      and\n        /* \"contracts/Voting.sol\":1703:1713  msg.sender */\n      caller\n        /* \"contracts/Voting.sol\":1703:1730  msg.sender == organizerName */\n      0xffffffffffffffffffffffffffffffffffffffff\n      and\n      eq\n        /* \"contracts/Voting.sol\":1695:1765  require(msg.sender == organizerName, \"Only organizer can add voters.\") */\n      tag_142\n      jumpi\n      mload(0x40)\n      0x08c379a000000000000000000000000000000000000000000000000000000000\n      dup2\n      mstore\n      0x04\n      add\n      tag_143\n      swap1\n      tag_144\n      jump\t// in\n    tag_143:\n      mload(0x40)\n      dup1\n      swap2\n      sub\n      swap1\n      revert\n    tag_142:\n        /* \"contracts/Voting.sol\":1796:1801  false */\n      0x00\n        /* \"contracts/Voting.sol\":1783:1801  isStarted == false */\n      iszero\n      iszero\n        /* \"contracts/Voting.sol\":1783:1792  isStarted */\n      0x04\n      0x00\n      swap1\n      sload\n      swap1\n      0x0100\n      exp\n      swap1\n      div\n      0xff\n      and\n        /* \"contracts/Voting.sol\":1783:1801  isStarted == false */\n      iszero\n      iszero\n      eq\n        /* \"contracts/Voting.sol\":1775:1844  require(isStarted == false, \"You cannot add a voter at this moment.\") */\n      tag_145\n      jumpi\n      mload(0x40)\n      0x08c379a000000000000000000000000000000000000000000000000000000000\n      dup2\n      mstore\n      0x04\n      add\n      tag_146\n      swap1\n      tag_147\n      jump\t// in\n    tag_146:\n      mload(0x40)\n      dup1\n      swap2\n      sub\n      swap1\n      revert\n    tag_145:\n        /* \"contracts/Voting.sol\":1896:1901  false */\n      0x00\n        /* \"contracts/Voting.sol\":1862:1901  voters[voter].votingPermission == false */\n      iszero\n      iszero\n        /* \"contracts/Voting.sol\":1862:1868  voters */\n      0x07\n        /* \"contracts/Voting.sol\":1862:1875  voters[voter] */\n      0x00\n        /* \"contracts/Voting.sol\":1869:1874  voter */\n      dup4\n        /* \"contracts/Voting.sol\":1862:1875  voters[voter] */\n      0xffffffffffffffffffffffffffffffffffffffff\n      and\n      0xffffffffffffffffffffffffffffffffffffffff\n      and\n      dup2\n      mstore\n      0x20\n      add\n      swap1\n      dup2\n      mstore\n      0x20\n      add\n      0x00\n      keccak256\n        /* \"contracts/Voting.sol\":1862:1892  voters[voter].votingPermission */\n      0x00\n      add\n      0x01\n      swap1\n      sload\n      swap1\n      0x0100\n      exp\n      swap1\n      div\n      0xff\n      and\n        /* \"contracts/Voting.sol\":1862:1901  voters[voter].votingPermission == false */\n      iszero\n      iszero\n      eq\n        /* \"contracts/Voting.sol\":1854:1956  require(voters[voter].votingPermission == false, \"This address is already authorized to give a vote.\") */\n      tag_148\n      jumpi\n      mload(0x40)\n      0x08c379a000000000000000000000000000000000000000000000000000000000\n      dup2\n      mstore\n      0x04\n      add\n      tag_149\n      swap1\n      tag_150\n      jump\t// in\n    tag_149:\n      mload(0x40)\n      dup1\n      swap2\n      sub\n      swap1\n      revert\n    tag_148:\n        /* \"contracts/Voting.sol\":2000:2004  true */\n      0x01\n        /* \"contracts/Voting.sol\":1967:1973  voters */\n      0x07\n        /* \"contracts/Voting.sol\":1967:1980  voters[voter] */\n      0x00\n        /* \"contracts/Voting.sol\":1974:1979  voter */\n      dup4\n        /* \"contracts/Voting.sol\":1967:1980  voters[voter] */\n      0xffffffffffffffffffffffffffffffffffffffff\n      and\n      0xffffffffffffffffffffffffffffffffffffffff\n      and\n      dup2\n      mstore\n      0x20\n      add\n      swap1\n      dup2\n      mstore\n      0x20\n      add\n      0x00\n      keccak256\n        /* \"contracts/Voting.sol\":1967:1997  voters[voter].votingPermission */\n      0x00\n      add\n      0x01\n        /* \"contracts/Voting.sol\":1967:2004  voters[voter].votingPermission = true */\n      0x0100\n      exp\n      dup2\n      sload\n      dup2\n      0xff\n      mul\n      not\n      and\n      swap1\n      dup4\n      iszero\n      iszero\n      mul\n      or\n      swap1\n      sstore\n      pop\n        /* \"contracts/Voting.sol\":1633:2011  function addPermissionForVote(address voter) public {... */\n      pop\n      jump\t// out\n        /* \"contracts/Voting.sol\":4013:4117  function getGivenVotersNumber() public view returns(uint) {... */\n    tag_55:\n        /* \"contracts/Voting.sol\":4065:4069  uint */\n      0x00\n        /* \"contracts/Voting.sol\":4088:4103  votersAddresses */\n      0x05\n        /* \"contracts/Voting.sol\":4088:4110  votersAddresses.length */\n      dup1\n      sload\n      swap1\n      pop\n        /* \"contracts/Voting.sol\":4081:4110  return votersAddresses.length */\n      swap1\n      pop\n        /* \"contracts/Voting.sol\":4013:4117  function getGivenVotersNumber() public view returns(uint) {... */\n      swap1\n      jump\t// out\n        /* \"contracts/Voting.sol\":734:956  function start (uint duration) public {... */\n    tag_59:\n        /* \"contracts/Voting.sol\":804:817  organizerName */\n      0x00\n      dup1\n      sload\n      swap1\n      0x0100\n      exp\n      swap1\n      div\n      0xffffffffffffffffffffffffffffffffffffffff\n      and\n        /* \"contracts/Voting.sol\":790:817  msg.sender == organizerName */\n      0xffffffffffffffffffffffffffffffffffffffff\n      and\n        /* \"contracts/Voting.sol\":790:800  msg.sender */\n      caller\n        /* \"contracts/Voting.sol\":790:817  msg.sender == organizerName */\n      0xffffffffffffffffffffffffffffffffffffffff\n      and\n      eq\n        /* \"contracts/Voting.sol\":782:867  require(msg.sender == organizerName, \"Only organizer is allowd to start the voting.\") */\n      tag_153\n      jumpi\n      mload(0x40)\n      0x08c379a000000000000000000000000000000000000000000000000000000000\n      dup2\n      mstore\n      0x04\n      add\n      tag_154\n      swap1\n      tag_155\n      jump\t// in\n    tag_154:\n      mload(0x40)\n      dup1\n      swap2\n      sub\n      swap1\n      revert\n    tag_153:\n        /* \"contracts/Voting.sol\":914:923  1 minutes */\n      0x3c\n        /* \"contracts/Voting.sol\":905:913  duration */\n      dup2\n        /* \"contracts/Voting.sol\":905:923  duration*1 minutes */\n      tag_156\n      swap2\n      swap1\n      tag_157\n      jump\t// in\n    tag_156:\n        /* \"contracts/Voting.sol\":887:902  block.timestamp */\n      timestamp\n        /* \"contracts/Voting.sol\":887:923  block.timestamp + duration*1 minutes */\n      tag_158\n      swap2\n      swap1\n      tag_159\n      jump\t// in\n    tag_158:\n        /* \"contracts/Voting.sol\":877:884  endTime */\n      0x03\n        /* \"contracts/Voting.sol\":877:923  endTime = block.timestamp + duration*1 minutes */\n      dup2\n      swap1\n      sstore\n      pop\n        /* \"contracts/Voting.sol\":945:949  true */\n      0x01\n        /* \"contracts/Voting.sol\":933:942  isStarted */\n      0x04\n      0x00\n        /* \"contracts/Voting.sol\":933:949  isStarted = true */\n      0x0100\n      exp\n      dup2\n      sload\n      dup2\n      0xff\n      mul\n      not\n      and\n      swap1\n      dup4\n      iszero\n      iszero\n      mul\n      or\n      swap1\n      sstore\n      pop\n        /* \"contracts/Voting.sol\":734:956  function start (uint duration) public {... */\n      pop\n      jump\t// out\n        /* \"contracts/Voting.sol\":317:356  mapping(address => Voter) public voters */\n    tag_62:\n      mstore(0x20, 0x07)\n      dup1\n      0x00\n      mstore\n      keccak256(0x00, 0x40)\n      0x00\n      swap2\n      pop\n      swap1\n      pop\n      dup1\n      0x00\n      add\n      0x00\n      swap1\n      sload\n      swap1\n      0x0100\n      exp\n      swap1\n      div\n      0xff\n      and\n      swap1\n      dup1\n      0x00\n      add\n      0x01\n      swap1\n      sload\n      swap1\n      0x0100\n      exp\n      swap1\n      div\n      0xff\n      and\n      swap1\n      dup1\n      0x01\n      add\n      sload\n      swap1\n      pop\n      dup4\n      jump\t// out\n        /* \"contracts/Voting.sol\":2825:3900  function resultCount() public {... */\n    tag_66:\n        /* \"contracts/Voting.sol\":2886:2890  true */\n      0x01\n        /* \"contracts/Voting.sol\":2873:2890  isStarted == true */\n      iszero\n      iszero\n        /* \"contracts/Voting.sol\":2873:2882  isStarted */\n      0x04\n      0x00\n      swap1\n      sload\n      swap1\n      0x0100\n      exp\n      swap1\n      div\n      0xff\n      and\n        /* \"contracts/Voting.sol\":2873:2890  isStarted == true */\n      iszero\n      iszero\n      eq\n        /* \"contracts/Voting.sol\":2865:2932  require(isStarted == true, \"Result can be seen after voting ends.\") */\n      tag_161\n      jumpi\n      mload(0x40)\n      0x08c379a000000000000000000000000000000000000000000000000000000000\n      dup2\n      mstore\n      0x04\n      add\n      tag_162\n      swap1\n      tag_163\n      jump\t// in\n    tag_162:\n      mload(0x40)\n      dup1\n      swap2\n      sub\n      swap1\n      revert\n    tag_161:\n        /* \"contracts/Voting.sol\":2968:2975  endTime */\n      sload(0x03)\n        /* \"contracts/Voting.sol\":2950:2965  block.timestamp */\n      timestamp\n        /* \"contracts/Voting.sol\":2950:2975  block.timestamp > endTime */\n      gt\n        /* \"contracts/Voting.sol\":2942:3034  require(block.timestamp > endTime, \"Election is running. Result can be seen after it ends!\") */\n      tag_164\n      jumpi\n      mload(0x40)\n      0x08c379a000000000000000000000000000000000000000000000000000000000\n      dup2\n      mstore\n      0x04\n      add\n      tag_165\n      swap1\n      tag_166\n      jump\t// in\n    tag_165:\n      mload(0x40)\n      dup1\n      swap2\n      sub\n      swap1\n      revert\n    tag_164:\n        /* \"contracts/Voting.sol\":3044:3069  uint votersNumberWhoVoted */\n      0x00\n        /* \"contracts/Voting.sol\":3072:3094  getGivenVotersNumber() */\n      tag_167\n        /* \"contracts/Voting.sol\":3072:3092  getGivenVotersNumber */\n      tag_55\n        /* \"contracts/Voting.sol\":3072:3094  getGivenVotersNumber() */\n      jump\t// in\n    tag_167:\n        /* \"contracts/Voting.sol\":3044:3094  uint votersNumberWhoVoted = getGivenVotersNumber() */\n      swap1\n      pop\n        /* \"contracts/Voting.sol\":3110:3116  uint i */\n      0x00\n        /* \"contracts/Voting.sol\":3105:3346  for (uint i=0; i<votersNumberWhoVoted; i++) {... */\n    tag_168:\n        /* \"contracts/Voting.sol\":3122:3142  votersNumberWhoVoted */\n      dup2\n        /* \"contracts/Voting.sol\":3120:3121  i */\n      dup2\n        /* \"contracts/Voting.sol\":3120:3142  i<votersNumberWhoVoted */\n      lt\n        /* \"contracts/Voting.sol\":3105:3346  for (uint i=0; i<votersNumberWhoVoted; i++) {... */\n      iszero\n      tag_169\n      jumpi\n        /* \"contracts/Voting.sol\":3163:3183  address voterAddress */\n      0x00\n        /* \"contracts/Voting.sol\":3186:3201  votersAddresses */\n      0x05\n        /* \"contracts/Voting.sol\":3202:3203  i */\n      dup3\n        /* \"contracts/Voting.sol\":3186:3204  votersAddresses[i] */\n      dup2\n      sload\n      dup2\n      lt\n      tag_171\n      jumpi\n      tag_172\n      tag_96\n      jump\t// in\n    tag_172:\n    tag_171:\n      swap1\n      0x00\n      mstore\n      keccak256(0x00, 0x20)\n      add\n      0x00\n      swap1\n      sload\n      swap1\n      0x0100\n      exp\n      swap1\n      div\n      0xffffffffffffffffffffffffffffffffffffffff\n      and\n        /* \"contracts/Voting.sol\":3163:3204  address voterAddress = votersAddresses[i] */\n      swap1\n      pop\n        /* \"contracts/Voting.sol\":3218:3237  uint candidateIndex */\n      0x00\n        /* \"contracts/Voting.sol\":3240:3246  voters */\n      0x07\n        /* \"contracts/Voting.sol\":3240:3260  voters[voterAddress] */\n      0x00\n        /* \"contracts/Voting.sol\":3247:3259  voterAddress */\n      dup4\n        /* \"contracts/Voting.sol\":3240:3260  voters[voterAddress] */\n      0xffffffffffffffffffffffffffffffffffffffff\n      and\n      0xffffffffffffffffffffffffffffffffffffffff\n      and\n      dup2\n      mstore\n      0x20\n      add\n      swap1\n      dup2\n      mstore\n      0x20\n      add\n      0x00\n      keccak256\n        /* \"contracts/Voting.sol\":3240:3282  voters[voterAddress].votingCandidateNumber */\n      0x01\n      add\n      sload\n        /* \"contracts/Voting.sol\":3218:3282  uint candidateIndex = voters[voterAddress].votingCandidateNumber */\n      swap1\n      pop\n        /* \"contracts/Voting.sol\":3297:3307  candidates */\n      0x06\n        /* \"contracts/Voting.sol\":3308:3322  candidateIndex */\n      dup2\n        /* \"contracts/Voting.sol\":3297:3323  candidates[candidateIndex] */\n      dup2\n      sload\n      dup2\n      lt\n      tag_174\n      jumpi\n      tag_175\n      tag_96\n      jump\t// in\n    tag_175:\n    tag_174:\n      swap1\n      0x00\n      mstore\n      keccak256(0x00, 0x20)\n      swap1\n      0x03\n      mul\n      add\n        /* \"contracts/Voting.sol\":3297:3333  candidates[candidateIndex].voteCount */\n      0x01\n      add\n      0x00\n        /* \"contracts/Voting.sol\":3297:3335  candidates[candidateIndex].voteCount++ */\n      dup2\n      sload\n      dup1\n      swap3\n      swap2\n      swap1\n      tag_177\n      swap1\n      tag_128\n      jump\t// in\n    tag_177:\n      swap2\n      swap1\n      pop\n      sstore\n      pop\n        /* \"contracts/Voting.sol\":3149:3346  {... */\n      pop\n      pop\n        /* \"contracts/Voting.sol\":3144:3147  i++ */\n      dup1\n      dup1\n      tag_178\n      swap1\n      tag_128\n      jump\t// in\n    tag_178:\n      swap2\n      pop\n      pop\n        /* \"contracts/Voting.sol\":3105:3346  for (uint i=0; i<votersNumberWhoVoted; i++) {... */\n      jump(tag_168)\n    tag_169:\n      pop\n        /* \"contracts/Voting.sol\":3355:3372  uint voteCountMax */\n      0x00\n        /* \"contracts/Voting.sol\":3386:3408  uint maxVotedCandidate */\n      dup1\n        /* \"contracts/Voting.sol\":3419:3440  uint candidateNumbers */\n      dup1\n        /* \"contracts/Voting.sol\":3443:3464  getCandidateNumbers() */\n      tag_179\n        /* \"contracts/Voting.sol\":3443:3462  getCandidateNumbers */\n      tag_72\n        /* \"contracts/Voting.sol\":3443:3464  getCandidateNumbers() */\n      jump\t// in\n    tag_179:\n        /* \"contracts/Voting.sol\":3419:3464  uint candidateNumbers = getCandidateNumbers() */\n      swap1\n      pop\n        /* \"contracts/Voting.sol\":3480:3486  uint i */\n      0x00\n        /* \"contracts/Voting.sol\":3475:3893  for (uint i=0; i<candidateNumbers; i++) {... */\n    tag_180:\n        /* \"contracts/Voting.sol\":3492:3508  candidateNumbers */\n      dup2\n        /* \"contracts/Voting.sol\":3490:3491  i */\n      dup2\n        /* \"contracts/Voting.sol\":3490:3508  i<candidateNumbers */\n      lt\n        /* \"contracts/Voting.sol\":3475:3893  for (uint i=0; i<candidateNumbers; i++) {... */\n      iszero\n      tag_181\n      jumpi\n        /* \"contracts/Voting.sol\":3559:3571  voteCountMax */\n      dup4\n        /* \"contracts/Voting.sol\":3533:3543  candidates */\n      0x06\n        /* \"contracts/Voting.sol\":3544:3545  i */\n      dup3\n        /* \"contracts/Voting.sol\":3533:3546  candidates[i] */\n      dup2\n      sload\n      dup2\n      lt\n      tag_183\n      jumpi\n      tag_184\n      tag_96\n      jump\t// in\n    tag_184:\n    tag_183:\n      swap1\n      0x00\n      mstore\n      keccak256(0x00, 0x20)\n      swap1\n      0x03\n      mul\n      add\n        /* \"contracts/Voting.sol\":3533:3556  candidates[i].voteCount */\n      0x01\n      add\n      sload\n        /* \"contracts/Voting.sol\":3533:3571  candidates[i].voteCount > voteCountMax */\n      gt\n        /* \"contracts/Voting.sol\":3529:3883  if (candidates[i].voteCount > voteCountMax) {... */\n      iszero\n      tag_186\n      jumpi\n        /* \"contracts/Voting.sol\":3606:3616  candidates */\n      0x06\n        /* \"contracts/Voting.sol\":3617:3618  i */\n      dup2\n        /* \"contracts/Voting.sol\":3606:3619  candidates[i] */\n      dup2\n      sload\n      dup2\n      lt\n      tag_187\n      jumpi\n      tag_188\n      tag_96\n      jump\t// in\n    tag_188:\n    tag_187:\n      swap1\n      0x00\n      mstore\n      keccak256(0x00, 0x20)\n      swap1\n      0x03\n      mul\n      add\n        /* \"contracts/Voting.sol\":3606:3629  candidates[i].voteCount */\n      0x01\n      add\n      sload\n        /* \"contracts/Voting.sol\":3591:3629  voteCountMax = candidates[i].voteCount */\n      swap4\n      pop\n        /* \"contracts/Voting.sol\":3667:3668  i */\n      dup1\n        /* \"contracts/Voting.sol\":3647:3668  maxVotedCandidate = i */\n      swap3\n      pop\n        /* \"contracts/Voting.sol\":3699:3709  candidates */\n      0x06\n        /* \"contracts/Voting.sol\":3710:3727  maxVotedCandidate */\n      dup4\n        /* \"contracts/Voting.sol\":3699:3728  candidates[maxVotedCandidate] */\n      dup2\n      sload\n      dup2\n      lt\n      tag_190\n      jumpi\n      tag_191\n      tag_96\n      jump\t// in\n    tag_191:\n    tag_190:\n      swap1\n      0x00\n      mstore\n      keccak256(0x00, 0x20)\n      swap1\n      0x03\n      mul\n      add\n        /* \"contracts/Voting.sol\":3699:3742  candidates[maxVotedCandidate].candidateName */\n      0x00\n      add\n        /* \"contracts/Voting.sol\":3686:3696  winnerName */\n      0x02\n        /* \"contracts/Voting.sol\":3686:3742  winnerName = candidates[maxVotedCandidate].candidateName */\n      swap1\n      dup1\n      sload\n      tag_193\n      swap1\n      tag_105\n      jump\t// in\n    tag_193:\n      tag_194\n      swap3\n      swap2\n      swap1\n      tag_195\n      jump\t// in\n    tag_194:\n      pop\n        /* \"contracts/Voting.sol\":3529:3883  if (candidates[i].voteCount > voteCountMax) {... */\n      jump(tag_196)\n    tag_186:\n        /* \"contracts/Voting.sol\":3806:3818  voteCountMax */\n      dup4\n        /* \"contracts/Voting.sol\":3779:3789  candidates */\n      0x06\n        /* \"contracts/Voting.sol\":3790:3791  i */\n      dup3\n        /* \"contracts/Voting.sol\":3779:3792  candidates[i] */\n      dup2\n      sload\n      dup2\n      lt\n      tag_197\n      jumpi\n      tag_198\n      tag_96\n      jump\t// in\n    tag_198:\n    tag_197:\n      swap1\n      0x00\n      mstore\n      keccak256(0x00, 0x20)\n      swap1\n      0x03\n      mul\n      add\n        /* \"contracts/Voting.sol\":3779:3802  candidates[i].voteCount */\n      0x01\n      add\n      sload\n        /* \"contracts/Voting.sol\":3779:3818  candidates[i].voteCount == voteCountMax */\n      eq\n        /* \"contracts/Voting.sol\":3775:3883  if (candidates[i].voteCount == voteCountMax) {... */\n      iszero\n      tag_200\n      jumpi\n        /* \"contracts/Voting.sol\":3838:3868  winnerName = \"There is a tie.\" */\n      mload(0x40)\n      dup1\n      0x40\n      add\n      0x40\n      mstore\n      dup1\n      0x0f\n      dup2\n      mstore\n      0x20\n      add\n      0x54686572652069732061207469652e0000000000000000000000000000000000\n      dup2\n      mstore\n      pop\n        /* \"contracts/Voting.sol\":3838:3848  winnerName */\n      0x02\n        /* \"contracts/Voting.sol\":3838:3868  winnerName = \"There is a tie.\" */\n      swap1\n      dup1\n      mload\n      swap1\n      0x20\n      add\n      swap1\n      tag_201\n      swap3\n      swap2\n      swap1\n      tag_138\n      jump\t// in\n    tag_201:\n      pop\n        /* \"contracts/Voting.sol\":3775:3883  if (candidates[i].voteCount == voteCountMax) {... */\n    tag_200:\n        /* \"contracts/Voting.sol\":3529:3883  if (candidates[i].voteCount > voteCountMax) {... */\n    tag_196:\n        /* \"contracts/Voting.sol\":3510:3513  i++ */\n      dup1\n      dup1\n      tag_202\n      swap1\n      tag_128\n      jump\t// in\n    tag_202:\n      swap2\n      pop\n      pop\n        /* \"contracts/Voting.sol\":3475:3893  for (uint i=0; i<candidateNumbers; i++) {... */\n      jump(tag_180)\n    tag_181:\n      pop\n        /* \"contracts/Voting.sol\":2855:3900  {... */\n      pop\n      pop\n      pop\n      pop\n        /* \"contracts/Voting.sol\":2825:3900  function resultCount() public {... */\n      jump\t// out\n        /* \"contracts/Voting.sol\":121:144  string public electName */\n    tag_68:\n      0x01\n      dup1\n      sload\n      tag_203\n      swap1\n      tag_105\n      jump\t// in\n    tag_203:\n      dup1\n      0x1f\n      add\n      0x20\n      dup1\n      swap2\n      div\n      mul\n      0x20\n      add\n      mload(0x40)\n      swap1\n      dup2\n      add\n      0x40\n      mstore\n      dup1\n      swap3\n      swap2\n      swap1\n      dup2\n      dup2\n      mstore\n      0x20\n      add\n      dup3\n      dup1\n      sload\n      tag_204\n      swap1\n      tag_105\n      jump\t// in\n    tag_204:\n      dup1\n      iszero\n      tag_205\n      jumpi\n      dup1\n      0x1f\n      lt\n      tag_206\n      jumpi\n      0x0100\n      dup1\n      dup4\n      sload\n      div\n      mul\n      dup4\n      mstore\n      swap2\n      0x20\n      add\n      swap2\n      jump(tag_205)\n    tag_206:\n      dup3\n      add\n      swap2\n      swap1\n      0x00\n      mstore\n      keccak256(0x00, 0x20)\n      swap1\n    tag_207:\n      dup2\n      sload\n      dup2\n      mstore\n      swap1\n      0x01\n      add\n      swap1\n      0x20\n      add\n      dup1\n      dup4\n      gt\n      tag_207\n      jumpi\n      dup3\n      swap1\n      sub\n      0x1f\n      and\n      dup3\n      add\n      swap2\n    tag_205:\n      pop\n      pop\n      pop\n      pop\n      pop\n      dup2\n      jump\t// out\n        /* \"contracts/Voting.sol\":3908:4006  function getCandidateNumbers() public view returns(uint) {... */\n    tag_72:\n        /* \"contracts/Voting.sol\":3959:3963  uint */\n      0x00\n        /* \"contracts/Voting.sol\":3982:3992  candidates */\n      0x06\n        /* \"contracts/Voting.sol\":3982:3999  candidates.length */\n      dup1\n      sload\n      swap1\n      pop\n        /* \"contracts/Voting.sol\":3975:3999  return candidates.length */\n      swap1\n      pop\n        /* \"contracts/Voting.sol\":3908:4006  function getCandidateNumbers() public view returns(uint) {... */\n      swap1\n      jump\t// out\n        /* \"contracts/Voting.sol\":151:175  string public winnerName */\n    tag_75:\n      0x02\n      dup1\n      sload\n      tag_209\n      swap1\n      tag_105\n      jump\t// in\n    tag_209:\n      dup1\n      0x1f\n      add\n      0x20\n      dup1\n      swap2\n      div\n      mul\n      0x20\n      add\n      mload(0x40)\n      swap1\n      dup2\n      add\n      0x40\n      mstore\n      dup1\n      swap3\n      swap2\n      swap1\n      dup2\n      dup2\n      mstore\n      0x20\n      add\n      dup3\n      dup1\n      sload\n      tag_210\n      swap1\n      tag_105\n      jump\t// in\n    tag_210:\n      dup1\n      iszero\n      tag_211\n      jumpi\n      dup1\n      0x1f\n      lt\n      tag_212\n      jumpi\n      0x0100\n      dup1\n      dup4\n      sload\n      div\n      mul\n      dup4\n      mstore\n      swap2\n      0x20\n      add\n      swap2\n      jump(tag_211)\n    tag_212:\n      dup3\n      add\n      swap2\n      swap1\n      0x00\n      mstore\n      keccak256(0x00, 0x20)\n      swap1\n    tag_213:\n      dup2\n      sload\n      dup2\n      mstore\n      swap1\n      0x01\n      add\n      swap1\n      0x20\n      add\n      dup1\n      dup4\n      gt\n      tag_213\n      jumpi\n      dup3\n      swap1\n      sub\n      0x1f\n      and\n      dup3\n      add\n      swap2\n    tag_211:\n      pop\n      pop\n      pop\n      pop\n      pop\n      dup2\n      jump\t// out\n    tag_138:\n      dup3\n      dup1\n      sload\n      tag_214\n      swap1\n      tag_105\n      jump\t// in\n    tag_214:\n      swap1\n      0x00\n      mstore\n      keccak256(0x00, 0x20)\n      swap1\n      0x1f\n      add\n      0x20\n      swap1\n      div\n      dup2\n      add\n      swap3\n      dup3\n      tag_216\n      jumpi\n      0x00\n      dup6\n      sstore\n      jump(tag_215)\n    tag_216:\n      dup3\n      0x1f\n      lt\n      tag_217\n      jumpi\n      dup1\n      mload\n      not(0xff)\n      and\n      dup4\n      dup1\n      add\n      or\n      dup6\n      sstore\n      jump(tag_215)\n    tag_217:\n      dup3\n      dup1\n      add\n      0x01\n      add\n      dup6\n      sstore\n      dup3\n      iszero\n      tag_215\n      jumpi\n      swap2\n      dup3\n      add\n    tag_218:\n      dup3\n      dup2\n      gt\n      iszero\n      tag_219\n      jumpi\n      dup3\n      mload\n      dup3\n      sstore\n      swap2\n      0x20\n      add\n      swap2\n      swap1\n      0x01\n      add\n      swap1\n      jump(tag_218)\n    tag_219:\n    tag_215:\n      pop\n      swap1\n      pop\n      tag_220\n      swap2\n      swap1\n      tag_221\n      jump\t// in\n    tag_220:\n      pop\n      swap1\n      jump\t// out\n    tag_140:\n      dup3\n      dup1\n      sload\n      dup3\n      dup3\n      sstore\n      swap1\n      0x00\n      mstore\n      keccak256(0x00, 0x20)\n      swap1\n      dup2\n      add\n      swap3\n      dup3\n      iszero\n      tag_222\n      jumpi\n      swap2\n      0x20\n      mul\n      dup3\n      add\n    tag_223:\n      dup3\n      dup2\n      gt\n      iszero\n      tag_224\n      jumpi\n      dup3\n      mload\n      dup3\n      exp(0x0100, 0x00)\n      dup2\n      sload\n      dup2\n      0xffffffffffffffffffffffffffffffffffffffff\n      mul\n      not\n      and\n      swap1\n      dup4\n      0xffffffffffffffffffffffffffffffffffffffff\n      and\n      mul\n      or\n      swap1\n      sstore\n      pop\n      swap2\n      0x20\n      add\n      swap2\n      swap1\n      0x01\n      add\n      swap1\n      jump(tag_223)\n    tag_224:\n    tag_222:\n      pop\n      swap1\n      pop\n      tag_225\n      swap2\n      swap1\n      tag_221\n      jump\t// in\n    tag_225:\n      pop\n      swap1\n      jump\t// out\n    tag_195:\n      dup3\n      dup1\n      sload\n      tag_226\n      swap1\n      tag_105\n      jump\t// in\n    tag_226:\n      swap1\n      0x00\n      mstore\n      keccak256(0x00, 0x20)\n      swap1\n      0x1f\n      add\n      0x20\n      swap1\n      div\n      dup2\n      add\n      swap3\n      dup3\n      tag_228\n      jumpi\n      0x00\n      dup6\n      sstore\n      jump(tag_227)\n    tag_228:\n      dup3\n      0x1f\n      lt\n      tag_229\n      jumpi\n      dup1\n      sload\n      dup6\n      sstore\n      jump(tag_227)\n    tag_229:\n      dup3\n      dup1\n      add\n      0x01\n      add\n      dup6\n      sstore\n      dup3\n      iszero\n      tag_227\n      jumpi\n      0x00\n      mstore\n      keccak256(0x00, 0x20)\n      swap2\n      0x1f\n      add\n      0x20\n      swap1\n      div\n      dup3\n      add\n    tag_230:\n      dup3\n      dup2\n      gt\n      iszero\n      tag_231\n      jumpi\n      dup3\n      sload\n      dup3\n      sstore\n      swap2\n      0x01\n      add\n      swap2\n      swap1\n      0x01\n      add\n      swap1\n      jump(tag_230)\n    tag_231:\n    tag_227:\n      pop\n      swap1\n      pop\n      tag_232\n      swap2\n      swap1\n      tag_221\n      jump\t// in\n    tag_232:\n      pop\n      swap1\n      jump\t// out\n    tag_221:\n    tag_233:\n      dup1\n      dup3\n      gt\n      iszero\n      tag_234\n      jumpi\n      0x00\n      dup2\n      0x00\n      swap1\n      sstore\n      pop\n      0x01\n      add\n      jump(tag_233)\n    tag_234:\n      pop\n      swap1\n      jump\t// out\n        /* \"#utility.yul\":7:419   */\n    tag_236:\n        /* \"#utility.yul\":85:90   */\n      0x00\n        /* \"#utility.yul\":110:176   */\n      tag_238\n        /* \"#utility.yul\":126:175   */\n      tag_239\n        /* \"#utility.yul\":168:174   */\n      dup5\n        /* \"#utility.yul\":126:175   */\n      tag_240\n      jump\t// in\n    tag_239:\n        /* \"#utility.yul\":110:176   */\n      tag_241\n      jump\t// in\n    tag_238:\n        /* \"#utility.yul\":101:176   */\n      swap1\n      pop\n        /* \"#utility.yul\":199:205   */\n      dup3\n        /* \"#utility.yul\":192:197   */\n      dup2\n        /* \"#utility.yul\":185:206   */\n      mstore\n        /* \"#utility.yul\":237:241   */\n      0x20\n        /* \"#utility.yul\":230:235   */\n      dup2\n        /* \"#utility.yul\":226:242   */\n      add\n        /* \"#utility.yul\":275:278   */\n      dup5\n        /* \"#utility.yul\":266:272   */\n      dup5\n        /* \"#utility.yul\":261:264   */\n      dup5\n        /* \"#utility.yul\":257:273   */\n      add\n        /* \"#utility.yul\":254:279   */\n      gt\n        /* \"#utility.yul\":251:363   */\n      iszero\n      tag_242\n      jumpi\n        /* \"#utility.yul\":282:361   */\n      tag_243\n      tag_244\n      jump\t// in\n    tag_243:\n        /* \"#utility.yul\":251:363   */\n    tag_242:\n        /* \"#utility.yul\":372:413   */\n      tag_245\n        /* \"#utility.yul\":406:412   */\n      dup5\n        /* \"#utility.yul\":401:404   */\n      dup3\n        /* \"#utility.yul\":396:399   */\n      dup6\n        /* \"#utility.yul\":372:413   */\n      tag_246\n      jump\t// in\n    tag_245:\n        /* \"#utility.yul\":91:419   */\n      pop\n        /* \"#utility.yul\":7:419   */\n      swap4\n      swap3\n      pop\n      pop\n      pop\n      jump\t// out\n        /* \"#utility.yul\":425:564   */\n    tag_247:\n        /* \"#utility.yul\":471:476   */\n      0x00\n        /* \"#utility.yul\":509:515   */\n      dup2\n        /* \"#utility.yul\":496:516   */\n      calldataload\n        /* \"#utility.yul\":487:516   */\n      swap1\n      pop\n        /* \"#utility.yul\":525:558   */\n      tag_249\n        /* \"#utility.yul\":552:557   */\n      dup2\n        /* \"#utility.yul\":525:558   */\n      tag_250\n      jump\t// in\n    tag_249:\n        /* \"#utility.yul\":425:564   */\n      swap3\n      swap2\n      pop\n      pop\n      jump\t// out\n        /* \"#utility.yul\":584:924   */\n    tag_251:\n        /* \"#utility.yul\":640:645   */\n      0x00\n        /* \"#utility.yul\":689:692   */\n      dup3\n        /* \"#utility.yul\":682:686   */\n      0x1f\n        /* \"#utility.yul\":674:680   */\n      dup4\n        /* \"#utility.yul\":670:687   */\n      add\n        /* \"#utility.yul\":666:693   */\n      slt\n        /* \"#utility.yul\":656:778   */\n      tag_253\n      jumpi\n        /* \"#utility.yul\":697:776   */\n      tag_254\n      tag_255\n      jump\t// in\n    tag_254:\n        /* \"#utility.yul\":656:778   */\n    tag_253:\n        /* \"#utility.yul\":814:820   */\n      dup2\n        /* \"#utility.yul\":801:821   */\n      calldataload\n        /* \"#utility.yul\":839:918   */\n      tag_256\n        /* \"#utility.yul\":914:917   */\n      dup5\n        /* \"#utility.yul\":906:912   */\n      dup3\n        /* \"#utility.yul\":899:903   */\n      0x20\n        /* \"#utility.yul\":891:897   */\n      dup7\n        /* \"#utility.yul\":887:904   */\n      add\n        /* \"#utility.yul\":839:918   */\n      tag_236\n      jump\t// in\n    tag_256:\n        /* \"#utility.yul\":830:918   */\n      swap2\n      pop\n        /* \"#utility.yul\":646:924   */\n      pop\n        /* \"#utility.yul\":584:924   */\n      swap3\n      swap2\n      pop\n      pop\n      jump\t// out\n        /* \"#utility.yul\":930:1069   */\n    tag_257:\n        /* \"#utility.yul\":976:981   */\n      0x00\n        /* \"#utility.yul\":1014:1020   */\n      dup2\n        /* \"#utility.yul\":1001:1021   */\n      calldataload\n        /* \"#utility.yul\":992:1021   */\n      swap1\n      pop\n        /* \"#utility.yul\":1030:1063   */\n      tag_259\n        /* \"#utility.yul\":1057:1062   */\n      dup2\n        /* \"#utility.yul\":1030:1063   */\n      tag_260\n      jump\t// in\n    tag_259:\n        /* \"#utility.yul\":930:1069   */\n      swap3\n      swap2\n      pop\n      pop\n      jump\t// out\n        /* \"#utility.yul\":1075:1404   */\n    tag_52:\n        /* \"#utility.yul\":1134:1140   */\n      0x00\n        /* \"#utility.yul\":1183:1185   */\n      0x20\n        /* \"#utility.yul\":1171:1180   */\n      dup3\n        /* \"#utility.yul\":1162:1169   */\n      dup5\n        /* \"#utility.yul\":1158:1181   */\n      sub\n        /* \"#utility.yul\":1154:1186   */\n      slt\n        /* \"#utility.yul\":1151:1270   */\n      iszero\n      tag_262\n      jumpi\n        /* \"#utility.yul\":1189:1268   */\n      tag_263\n      tag_264\n      jump\t// in\n    tag_263:\n        /* \"#utility.yul\":1151:1270   */\n    tag_262:\n        /* \"#utility.yul\":1309:1310   */\n      0x00\n        /* \"#utility.yul\":1334:1387   */\n      tag_265\n        /* \"#utility.yul\":1379:1386   */\n      dup5\n        /* \"#utility.yul\":1370:1376   */\n      dup3\n        /* \"#utility.yul\":1359:1368   */\n      dup6\n        /* \"#utility.yul\":1355:1377   */\n      add\n        /* \"#utility.yul\":1334:1387   */\n      tag_247\n      jump\t// in\n    tag_265:\n        /* \"#utility.yul\":1324:1387   */\n      swap2\n      pop\n        /* \"#utility.yul\":1280:1397   */\n      pop\n        /* \"#utility.yul\":1075:1404   */\n      swap3\n      swap2\n      pop\n      pop\n      jump\t// out\n        /* \"#utility.yul\":1410:1919   */\n    tag_44:\n        /* \"#utility.yul\":1479:1485   */\n      0x00\n        /* \"#utility.yul\":1528:1530   */\n      0x20\n        /* \"#utility.yul\":1516:1525   */\n      dup3\n        /* \"#utility.yul\":1507:1514   */\n      dup5\n        /* \"#utility.yul\":1503:1526   */\n      sub\n        /* \"#utility.yul\":1499:1531   */\n      slt\n        /* \"#utility.yul\":1496:1615   */\n      iszero\n      tag_267\n      jumpi\n        /* \"#utility.yul\":1534:1613   */\n      tag_268\n      tag_264\n      jump\t// in\n    tag_268:\n        /* \"#utility.yul\":1496:1615   */\n    tag_267:\n        /* \"#utility.yul\":1682:1683   */\n      0x00\n        /* \"#utility.yul\":1671:1680   */\n      dup3\n        /* \"#utility.yul\":1667:1684   */\n      add\n        /* \"#utility.yul\":1654:1685   */\n      calldataload\n        /* \"#utility.yul\":1712:1730   */\n      0xffffffffffffffff\n        /* \"#utility.yul\":1704:1710   */\n      dup2\n        /* \"#utility.yul\":1701:1731   */\n      gt\n        /* \"#utility.yul\":1698:1815   */\n      iszero\n      tag_269\n      jumpi\n        /* \"#utility.yul\":1734:1813   */\n      tag_270\n      tag_271\n      jump\t// in\n    tag_270:\n        /* \"#utility.yul\":1698:1815   */\n    tag_269:\n        /* \"#utility.yul\":1839:1902   */\n      tag_272\n        /* \"#utility.yul\":1894:1901   */\n      dup5\n        /* \"#utility.yul\":1885:1891   */\n      dup3\n        /* \"#utility.yul\":1874:1883   */\n      dup6\n        /* \"#utility.yul\":1870:1892   */\n      add\n        /* \"#utility.yul\":1839:1902   */\n      tag_251\n      jump\t// in\n    tag_272:\n        /* \"#utility.yul\":1829:1902   */\n      swap2\n      pop\n        /* \"#utility.yul\":1625:1912   */\n      pop\n        /* \"#utility.yul\":1410:1919   */\n      swap3\n      swap2\n      pop\n      pop\n      jump\t// out\n        /* \"#utility.yul\":1925:2254   */\n    tag_23:\n        /* \"#utility.yul\":1984:1990   */\n      0x00\n        /* \"#utility.yul\":2033:2035   */\n      0x20\n        /* \"#utility.yul\":2021:2030   */\n      dup3\n        /* \"#utility.yul\":2012:2019   */\n      dup5\n        /* \"#utility.yul\":2008:2031   */\n      sub\n        /* \"#utility.yul\":2004:2036   */\n      slt\n        /* \"#utility.yul\":2001:2120   */\n      iszero\n      tag_274\n      jumpi\n        /* \"#utility.yul\":2039:2118   */\n      tag_275\n      tag_264\n      jump\t// in\n    tag_275:\n        /* \"#utility.yul\":2001:2120   */\n    tag_274:\n        /* \"#utility.yul\":2159:2160   */\n      0x00\n        /* \"#utility.yul\":2184:2237   */\n      tag_276\n        /* \"#utility.yul\":2229:2236   */\n      dup5\n        /* \"#utility.yul\":2220:2226   */\n      dup3\n        /* \"#utility.yul\":2209:2218   */\n      dup6\n        /* \"#utility.yul\":2205:2227   */\n      add\n        /* \"#utility.yul\":2184:2237   */\n      tag_257\n      jump\t// in\n    tag_276:\n        /* \"#utility.yul\":2174:2237   */\n      swap2\n      pop\n        /* \"#utility.yul\":2130:2247   */\n      pop\n        /* \"#utility.yul\":1925:2254   */\n      swap3\n      swap2\n      pop\n      pop\n      jump\t// out\n        /* \"#utility.yul\":2260:2378   */\n    tag_277:\n        /* \"#utility.yul\":2347:2371   */\n      tag_279\n        /* \"#utility.yul\":2365:2370   */\n      dup2\n        /* \"#utility.yul\":2347:2371   */\n      tag_280\n      jump\t// in\n    tag_279:\n        /* \"#utility.yul\":2342:2345   */\n      dup3\n        /* \"#utility.yul\":2335:2372   */\n      mstore\n        /* \"#utility.yul\":2260:2378   */\n      pop\n      pop\n      jump\t// out\n        /* \"#utility.yul\":2384:2493   */\n    tag_281:\n        /* \"#utility.yul\":2465:2486   */\n      tag_283\n        /* \"#utility.yul\":2480:2485   */\n      dup2\n        /* \"#utility.yul\":2465:2486   */\n      tag_284\n      jump\t// in\n    tag_283:\n        /* \"#utility.yul\":2460:2463   */\n      dup3\n        /* \"#utility.yul\":2453:2487   */\n      mstore\n        /* \"#utility.yul\":2384:2493   */\n      pop\n      pop\n      jump\t// out\n        /* \"#utility.yul\":2521:3370   */\n    tag_285:\n        /* \"#utility.yul\":2626:2629   */\n      0x00\n        /* \"#utility.yul\":2663:2668   */\n      dup2\n        /* \"#utility.yul\":2657:2669   */\n      sload\n        /* \"#utility.yul\":2692:2728   */\n      tag_287\n        /* \"#utility.yul\":2718:2727   */\n      dup2\n        /* \"#utility.yul\":2692:2728   */\n      tag_105\n      jump\t// in\n    tag_287:\n        /* \"#utility.yul\":2744:2832   */\n      tag_288\n        /* \"#utility.yul\":2825:2831   */\n      dup2\n        /* \"#utility.yul\":2820:2823   */\n      dup7\n        /* \"#utility.yul\":2744:2832   */\n      tag_289\n      jump\t// in\n    tag_288:\n        /* \"#utility.yul\":2737:2832   */\n      swap5\n      pop\n        /* \"#utility.yul\":2863:2864   */\n      0x01\n        /* \"#utility.yul\":2852:2861   */\n      dup3\n        /* \"#utility.yul\":2848:2865   */\n      and\n        /* \"#utility.yul\":2879:2880   */\n      0x00\n        /* \"#utility.yul\":2874:3011   */\n      dup2\n      eq\n      tag_291\n      jumpi\n        /* \"#utility.yul\":3025:3026   */\n      0x01\n        /* \"#utility.yul\":3020:3364   */\n      dup2\n      eq\n      tag_292\n      jumpi\n        /* \"#utility.yul\":2841:3364   */\n      jump(tag_290)\n        /* \"#utility.yul\":2874:3011   */\n    tag_291:\n        /* \"#utility.yul\":2958:2962   */\n      0xff\n        /* \"#utility.yul\":2954:2963   */\n      not\n        /* \"#utility.yul\":2943:2952   */\n      dup4\n        /* \"#utility.yul\":2939:2964   */\n      and\n        /* \"#utility.yul\":2934:2937   */\n      dup7\n        /* \"#utility.yul\":2927:2965   */\n      mstore\n        /* \"#utility.yul\":2994:3000   */\n      dup2\n        /* \"#utility.yul\":2989:2992   */\n      dup7\n        /* \"#utility.yul\":2985:3001   */\n      add\n        /* \"#utility.yul\":2978:3001   */\n      swap4\n      pop\n        /* \"#utility.yul\":2874:3011   */\n      jump(tag_290)\n        /* \"#utility.yul\":3020:3364   */\n    tag_292:\n        /* \"#utility.yul\":3087:3128   */\n      tag_293\n        /* \"#utility.yul\":3122:3127   */\n      dup6\n        /* \"#utility.yul\":3087:3128   */\n      tag_294\n      jump\t// in\n    tag_293:\n        /* \"#utility.yul\":3150:3151   */\n      0x00\n        /* \"#utility.yul\":3164:3318   */\n    tag_295:\n        /* \"#utility.yul\":3178:3184   */\n      dup4\n        /* \"#utility.yul\":3175:3176   */\n      dup2\n        /* \"#utility.yul\":3172:3185   */\n      lt\n        /* \"#utility.yul\":3164:3318   */\n      iszero\n      tag_297\n      jumpi\n        /* \"#utility.yul\":3252:3259   */\n      dup2\n        /* \"#utility.yul\":3246:3260   */\n      sload\n        /* \"#utility.yul\":3242:3243   */\n      dup2\n        /* \"#utility.yul\":3237:3240   */\n      dup10\n        /* \"#utility.yul\":3233:3244   */\n      add\n        /* \"#utility.yul\":3226:3261   */\n      mstore\n        /* \"#utility.yul\":3302:3303   */\n      0x01\n        /* \"#utility.yul\":3293:3300   */\n      dup3\n        /* \"#utility.yul\":3289:3304   */\n      add\n        /* \"#utility.yul\":3278:3304   */\n      swap2\n      pop\n        /* \"#utility.yul\":3200:3204   */\n      0x20\n        /* \"#utility.yul\":3197:3198   */\n      dup2\n        /* \"#utility.yul\":3193:3205   */\n      add\n        /* \"#utility.yul\":3188:3205   */\n      swap1\n      pop\n        /* \"#utility.yul\":3164:3318   */\n      jump(tag_295)\n    tag_297:\n        /* \"#utility.yul\":3347:3353   */\n      dup4\n        /* \"#utility.yul\":3342:3345   */\n      dup9\n        /* \"#utility.yul\":3338:3354   */\n      add\n        /* \"#utility.yul\":3331:3354   */\n      swap6\n      pop\n        /* \"#utility.yul\":3027:3364   */\n      pop\n      pop\n        /* \"#utility.yul\":2841:3364   */\n    tag_290:\n      pop\n        /* \"#utility.yul\":2630:3370   */\n      pop\n      pop\n        /* \"#utility.yul\":2521:3370   */\n      swap3\n      swap2\n      pop\n      pop\n      jump\t// out\n        /* \"#utility.yul\":3376:3740   */\n    tag_298:\n        /* \"#utility.yul\":3464:3467   */\n      0x00\n        /* \"#utility.yul\":3492:3531   */\n      tag_300\n        /* \"#utility.yul\":3525:3530   */\n      dup3\n        /* \"#utility.yul\":3492:3531   */\n      tag_301\n      jump\t// in\n    tag_300:\n        /* \"#utility.yul\":3547:3618   */\n      tag_302\n        /* \"#utility.yul\":3611:3617   */\n      dup2\n        /* \"#utility.yul\":3606:3609   */\n      dup6\n        /* \"#utility.yul\":3547:3618   */\n      tag_303\n      jump\t// in\n    tag_302:\n        /* \"#utility.yul\":3540:3618   */\n      swap4\n      pop\n        /* \"#utility.yul\":3627:3679   */\n      tag_304\n        /* \"#utility.yul\":3672:3678   */\n      dup2\n        /* \"#utility.yul\":3667:3670   */\n      dup6\n        /* \"#utility.yul\":3660:3664   */\n      0x20\n        /* \"#utility.yul\":3653:3658   */\n      dup7\n        /* \"#utility.yul\":3649:3665   */\n      add\n        /* \"#utility.yul\":3627:3679   */\n      tag_305\n      jump\t// in\n    tag_304:\n        /* \"#utility.yul\":3704:3733   */\n      tag_306\n        /* \"#utility.yul\":3726:3732   */\n      dup2\n        /* \"#utility.yul\":3704:3733   */\n      tag_307\n      jump\t// in\n    tag_306:\n        /* \"#utility.yul\":3699:3702   */\n      dup5\n        /* \"#utility.yul\":3695:3734   */\n      add\n        /* \"#utility.yul\":3688:3734   */\n      swap2\n      pop\n        /* \"#utility.yul\":3468:3740   */\n      pop\n        /* \"#utility.yul\":3376:3740   */\n      swap3\n      swap2\n      pop\n      pop\n      jump\t// out\n        /* \"#utility.yul\":3746:4112   */\n    tag_308:\n        /* \"#utility.yul\":3888:3891   */\n      0x00\n        /* \"#utility.yul\":3909:3976   */\n      tag_310\n        /* \"#utility.yul\":3973:3975   */\n      0x2d\n        /* \"#utility.yul\":3968:3971   */\n      dup4\n        /* \"#utility.yul\":3909:3976   */\n      tag_303\n      jump\t// in\n    tag_310:\n        /* \"#utility.yul\":3902:3976   */\n      swap2\n      pop\n        /* \"#utility.yul\":3985:4078   */\n      tag_311\n        /* \"#utility.yul\":4074:4077   */\n      dup3\n        /* \"#utility.yul\":3985:4078   */\n      tag_312\n      jump\t// in\n    tag_311:\n        /* \"#utility.yul\":4103:4105   */\n      0x40\n        /* \"#utility.yul\":4098:4101   */\n      dup3\n        /* \"#utility.yul\":4094:4106   */\n      add\n        /* \"#utility.yul\":4087:4106   */\n      swap1\n      pop\n        /* \"#utility.yul\":3746:4112   */\n      swap2\n      swap1\n      pop\n      jump\t// out\n        /* \"#utility.yul\":4118:4484   */\n    tag_313:\n        /* \"#utility.yul\":4260:4263   */\n      0x00\n        /* \"#utility.yul\":4281:4348   */\n      tag_315\n        /* \"#utility.yul\":4345:4347   */\n      0x20\n        /* \"#utility.yul\":4340:4343   */\n      dup4\n        /* \"#utility.yul\":4281:4348   */\n      tag_303\n      jump\t// in\n    tag_315:\n        /* \"#utility.yul\":4274:4348   */\n      swap2\n      pop\n        /* \"#utility.yul\":4357:4450   */\n      tag_316\n        /* \"#utility.yul\":4446:4449   */\n      dup3\n        /* \"#utility.yul\":4357:4450   */\n      tag_317\n      jump\t// in\n    tag_316:\n        /* \"#utility.yul\":4475:4477   */\n      0x20\n        /* \"#utility.yul\":4470:4473   */\n      dup3\n        /* \"#utility.yul\":4466:4478   */\n      add\n        /* \"#utility.yul\":4459:4478   */\n      swap1\n      pop\n        /* \"#utility.yul\":4118:4484   */\n      swap2\n      swap1\n      pop\n      jump\t// out\n        /* \"#utility.yul\":4490:4856   */\n    tag_318:\n        /* \"#utility.yul\":4632:4635   */\n      0x00\n        /* \"#utility.yul\":4653:4720   */\n      tag_320\n        /* \"#utility.yul\":4717:4719   */\n      0x1e\n        /* \"#utility.yul\":4712:4715   */\n      dup4\n        /* \"#utility.yul\":4653:4720   */\n      tag_303\n      jump\t// in\n    tag_320:\n        /* \"#utility.yul\":4646:4720   */\n      swap2\n      pop\n        /* \"#utility.yul\":4729:4822   */\n      tag_321\n        /* \"#utility.yul\":4818:4821   */\n      dup3\n        /* \"#utility.yul\":4729:4822   */\n      tag_322\n      jump\t// in\n    tag_321:\n        /* \"#utility.yul\":4847:4849   */\n      0x20\n        /* \"#utility.yul\":4842:4845   */\n      dup3\n        /* \"#utility.yul\":4838:4850   */\n      add\n        /* \"#utility.yul\":4831:4850   */\n      swap1\n      pop\n        /* \"#utility.yul\":4490:4856   */\n      swap2\n      swap1\n      pop\n      jump\t// out\n        /* \"#utility.yul\":4862:5228   */\n    tag_323:\n        /* \"#utility.yul\":5004:5007   */\n      0x00\n        /* \"#utility.yul\":5025:5092   */\n      tag_325\n        /* \"#utility.yul\":5089:5091   */\n      0x1c\n        /* \"#utility.yul\":5084:5087   */\n      dup4\n        /* \"#utility.yul\":5025:5092   */\n      tag_303\n      jump\t// in\n    tag_325:\n        /* \"#utility.yul\":5018:5092   */\n      swap2\n      pop\n        /* \"#utility.yul\":5101:5194   */\n      tag_326\n        /* \"#utility.yul\":5190:5193   */\n      dup3\n        /* \"#utility.yul\":5101:5194   */\n      tag_327\n      jump\t// in\n    tag_326:\n        /* \"#utility.yul\":5219:5221   */\n      0x20\n        /* \"#utility.yul\":5214:5217   */\n      dup3\n        /* \"#utility.yul\":5210:5222   */\n      add\n        /* \"#utility.yul\":5203:5222   */\n      swap1\n      pop\n        /* \"#utility.yul\":4862:5228   */\n      swap2\n      swap1\n      pop\n      jump\t// out\n        /* \"#utility.yul\":5234:5600   */\n    tag_328:\n        /* \"#utility.yul\":5376:5379   */\n      0x00\n        /* \"#utility.yul\":5397:5464   */\n      tag_330\n        /* \"#utility.yul\":5461:5463   */\n      0x32\n        /* \"#utility.yul\":5456:5459   */\n      dup4\n        /* \"#utility.yul\":5397:5464   */\n      tag_303\n      jump\t// in\n    tag_330:\n        /* \"#utility.yul\":5390:5464   */\n      swap2\n      pop\n        /* \"#utility.yul\":5473:5566   */\n      tag_331\n        /* \"#utility.yul\":5562:5565   */\n      dup3\n        /* \"#utility.yul\":5473:5566   */\n      tag_332\n      jump\t// in\n    tag_331:\n        /* \"#utility.yul\":5591:5593   */\n      0x40\n        /* \"#utility.yul\":5586:5589   */\n      dup3\n        /* \"#utility.yul\":5582:5594   */\n      add\n        /* \"#utility.yul\":5575:5594   */\n      swap1\n      pop\n        /* \"#utility.yul\":5234:5600   */\n      swap2\n      swap1\n      pop\n      jump\t// out\n        /* \"#utility.yul\":5606:5972   */\n    tag_333:\n        /* \"#utility.yul\":5748:5751   */\n      0x00\n        /* \"#utility.yul\":5769:5836   */\n      tag_335\n        /* \"#utility.yul\":5833:5835   */\n      0x26\n        /* \"#utility.yul\":5828:5831   */\n      dup4\n        /* \"#utility.yul\":5769:5836   */\n      tag_303\n      jump\t// in\n    tag_335:\n        /* \"#utility.yul\":5762:5836   */\n      swap2\n      pop\n        /* \"#utility.yul\":5845:5938   */\n      tag_336\n        /* \"#utility.yul\":5934:5937   */\n      dup3\n        /* \"#utility.yul\":5845:5938   */\n      tag_337\n      jump\t// in\n    tag_336:\n        /* \"#utility.yul\":5963:5965   */\n      0x40\n        /* \"#utility.yul\":5958:5961   */\n      dup3\n        /* \"#utility.yul\":5954:5966   */\n      add\n        /* \"#utility.yul\":5947:5966   */\n      swap1\n      pop\n        /* \"#utility.yul\":5606:5972   */\n      swap2\n      swap1\n      pop\n      jump\t// out\n        /* \"#utility.yul\":5978:6344   */\n    tag_338:\n        /* \"#utility.yul\":6120:6123   */\n      0x00\n        /* \"#utility.yul\":6141:6208   */\n      tag_340\n        /* \"#utility.yul\":6205:6207   */\n      0x2b\n        /* \"#utility.yul\":6200:6203   */\n      dup4\n        /* \"#utility.yul\":6141:6208   */\n      tag_303\n      jump\t// in\n    tag_340:\n        /* \"#utility.yul\":6134:6208   */\n      swap2\n      pop\n        /* \"#utility.yul\":6217:6310   */\n      tag_341\n        /* \"#utility.yul\":6306:6309   */\n      dup3\n        /* \"#utility.yul\":6217:6310   */\n      tag_342\n      jump\t// in\n    tag_341:\n        /* \"#utility.yul\":6335:6337   */\n      0x40\n        /* \"#utility.yul\":6330:6333   */\n      dup3\n        /* \"#utility.yul\":6326:6338   */\n      add\n        /* \"#utility.yul\":6319:6338   */\n      swap1\n      pop\n        /* \"#utility.yul\":5978:6344   */\n      swap2\n      swap1\n      pop\n      jump\t// out\n        /* \"#utility.yul\":6350:6716   */\n    tag_343:\n        /* \"#utility.yul\":6492:6495   */\n      0x00\n        /* \"#utility.yul\":6513:6580   */\n      tag_345\n        /* \"#utility.yul\":6577:6579   */\n      0x20\n        /* \"#utility.yul\":6572:6575   */\n      dup4\n        /* \"#utility.yul\":6513:6580   */\n      tag_303\n      jump\t// in\n    tag_345:\n        /* \"#utility.yul\":6506:6580   */\n      swap2\n      pop\n        /* \"#utility.yul\":6589:6682   */\n      tag_346\n        /* \"#utility.yul\":6678:6681   */\n      dup3\n        /* \"#utility.yul\":6589:6682   */\n      tag_347\n      jump\t// in\n    tag_346:\n        /* \"#utility.yul\":6707:6709   */\n      0x20\n        /* \"#utility.yul\":6702:6705   */\n      dup3\n        /* \"#utility.yul\":6698:6710   */\n      add\n        /* \"#utility.yul\":6691:6710   */\n      swap1\n      pop\n        /* \"#utility.yul\":6350:6716   */\n      swap2\n      swap1\n      pop\n      jump\t// out\n        /* \"#utility.yul\":6722:7088   */\n    tag_348:\n        /* \"#utility.yul\":6864:6867   */\n      0x00\n        /* \"#utility.yul\":6885:6952   */\n      tag_350\n        /* \"#utility.yul\":6949:6951   */\n      0x26\n        /* \"#utility.yul\":6944:6947   */\n      dup4\n        /* \"#utility.yul\":6885:6952   */\n      tag_303\n      jump\t// in\n    tag_350:\n        /* \"#utility.yul\":6878:6952   */\n      swap2\n      pop\n        /* \"#utility.yul\":6961:7054   */\n      tag_351\n        /* \"#utility.yul\":7050:7053   */\n      dup3\n        /* \"#utility.yul\":6961:7054   */\n      tag_352\n      jump\t// in\n    tag_351:\n        /* \"#utility.yul\":7079:7081   */\n      0x40\n        /* \"#utility.yul\":7074:7077   */\n      dup3\n        /* \"#utility.yul\":7070:7082   */\n      add\n        /* \"#utility.yul\":7063:7082   */\n      swap1\n      pop\n        /* \"#utility.yul\":6722:7088   */\n      swap2\n      swap1\n      pop\n      jump\t// out\n        /* \"#utility.yul\":7094:7460   */\n    tag_353:\n        /* \"#utility.yul\":7236:7239   */\n      0x00\n        /* \"#utility.yul\":7257:7324   */\n      tag_355\n        /* \"#utility.yul\":7321:7323   */\n      0x25\n        /* \"#utility.yul\":7316:7319   */\n      dup4\n        /* \"#utility.yul\":7257:7324   */\n      tag_303\n      jump\t// in\n    tag_355:\n        /* \"#utility.yul\":7250:7324   */\n      swap2\n      pop\n        /* \"#utility.yul\":7333:7426   */\n      tag_356\n        /* \"#utility.yul\":7422:7425   */\n      dup3\n        /* \"#utility.yul\":7333:7426   */\n      tag_357\n      jump\t// in\n    tag_356:\n        /* \"#utility.yul\":7451:7453   */\n      0x40\n        /* \"#utility.yul\":7446:7449   */\n      dup3\n        /* \"#utility.yul\":7442:7454   */\n      add\n        /* \"#utility.yul\":7435:7454   */\n      swap1\n      pop\n        /* \"#utility.yul\":7094:7460   */\n      swap2\n      swap1\n      pop\n      jump\t// out\n        /* \"#utility.yul\":7466:7832   */\n    tag_358:\n        /* \"#utility.yul\":7608:7611   */\n      0x00\n        /* \"#utility.yul\":7629:7696   */\n      tag_360\n        /* \"#utility.yul\":7693:7695   */\n      0x2a\n        /* \"#utility.yul\":7688:7691   */\n      dup4\n        /* \"#utility.yul\":7629:7696   */\n      tag_303\n      jump\t// in\n    tag_360:\n        /* \"#utility.yul\":7622:7696   */\n      swap2\n      pop\n        /* \"#utility.yul\":7705:7798   */\n      tag_361\n        /* \"#utility.yul\":7794:7797   */\n      dup3\n        /* \"#utility.yul\":7705:7798   */\n      tag_362\n      jump\t// in\n    tag_361:\n        /* \"#utility.yul\":7823:7825   */\n      0x40\n        /* \"#utility.yul\":7818:7821   */\n      dup3\n        /* \"#utility.yul\":7814:7826   */\n      add\n        /* \"#utility.yul\":7807:7826   */\n      swap1\n      pop\n        /* \"#utility.yul\":7466:7832   */\n      swap2\n      swap1\n      pop\n      jump\t// out\n        /* \"#utility.yul\":7838:8204   */\n    tag_363:\n        /* \"#utility.yul\":7980:7983   */\n      0x00\n        /* \"#utility.yul\":8001:8068   */\n      tag_365\n        /* \"#utility.yul\":8065:8067   */\n      0x26\n        /* \"#utility.yul\":8060:8063   */\n      dup4\n        /* \"#utility.yul\":8001:8068   */\n      tag_303\n      jump\t// in\n    tag_365:\n        /* \"#utility.yul\":7994:8068   */\n      swap2\n      pop\n        /* \"#utility.yul\":8077:8170   */\n      tag_366\n        /* \"#utility.yul\":8166:8169   */\n      dup3\n        /* \"#utility.yul\":8077:8170   */\n      tag_367\n      jump\t// in\n    tag_366:\n        /* \"#utility.yul\":8195:8197   */\n      0x40\n        /* \"#utility.yul\":8190:8193   */\n      dup3\n        /* \"#utility.yul\":8186:8198   */\n      add\n        /* \"#utility.yul\":8179:8198   */\n      swap1\n      pop\n        /* \"#utility.yul\":7838:8204   */\n      swap2\n      swap1\n      pop\n      jump\t// out\n        /* \"#utility.yul\":8210:8576   */\n    tag_368:\n        /* \"#utility.yul\":8352:8355   */\n      0x00\n        /* \"#utility.yul\":8373:8440   */\n      tag_370\n        /* \"#utility.yul\":8437:8439   */\n      0x36\n        /* \"#utility.yul\":8432:8435   */\n      dup4\n        /* \"#utility.yul\":8373:8440   */\n      tag_303\n      jump\t// in\n    tag_370:\n        /* \"#utility.yul\":8366:8440   */\n      swap2\n      pop\n        /* \"#utility.yul\":8449:8542   */\n      tag_371\n        /* \"#utility.yul\":8538:8541   */\n      dup3\n        /* \"#utility.yul\":8449:8542   */\n      tag_372\n      jump\t// in\n    tag_371:\n        /* \"#utility.yul\":8567:8569   */\n      0x40\n        /* \"#utility.yul\":8562:8565   */\n      dup3\n        /* \"#utility.yul\":8558:8570   */\n      add\n        /* \"#utility.yul\":8551:8570   */\n      swap1\n      pop\n        /* \"#utility.yul\":8210:8576   */\n      swap2\n      swap1\n      pop\n      jump\t// out\n        /* \"#utility.yul\":8582:8948   */\n    tag_373:\n        /* \"#utility.yul\":8724:8727   */\n      0x00\n        /* \"#utility.yul\":8745:8812   */\n      tag_375\n        /* \"#utility.yul\":8809:8811   */\n      0x20\n        /* \"#utility.yul\":8804:8807   */\n      dup4\n        /* \"#utility.yul\":8745:8812   */\n      tag_303\n      jump\t// in\n    tag_375:\n        /* \"#utility.yul\":8738:8812   */\n      swap2\n      pop\n        /* \"#utility.yul\":8821:8914   */\n      tag_376\n        /* \"#utility.yul\":8910:8913   */\n      dup3\n        /* \"#utility.yul\":8821:8914   */\n      tag_377\n      jump\t// in\n    tag_376:\n        /* \"#utility.yul\":8939:8941   */\n      0x20\n        /* \"#utility.yul\":8934:8937   */\n      dup3\n        /* \"#utility.yul\":8930:8942   */\n      add\n        /* \"#utility.yul\":8923:8942   */\n      swap1\n      pop\n        /* \"#utility.yul\":8582:8948   */\n      swap2\n      swap1\n      pop\n      jump\t// out\n        /* \"#utility.yul\":8954:9072   */\n    tag_378:\n        /* \"#utility.yul\":9041:9065   */\n      tag_380\n        /* \"#utility.yul\":9059:9064   */\n      dup2\n        /* \"#utility.yul\":9041:9065   */\n      tag_381\n      jump\t// in\n    tag_380:\n        /* \"#utility.yul\":9036:9039   */\n      dup3\n        /* \"#utility.yul\":9029:9066   */\n      mstore\n        /* \"#utility.yul\":8954:9072   */\n      pop\n      pop\n      jump\t// out\n        /* \"#utility.yul\":9078:9351   */\n    tag_125:\n        /* \"#utility.yul\":9209:9212   */\n      0x00\n        /* \"#utility.yul\":9231:9325   */\n      tag_383\n        /* \"#utility.yul\":9321:9324   */\n      dup3\n        /* \"#utility.yul\":9312:9318   */\n      dup5\n        /* \"#utility.yul\":9231:9325   */\n      tag_285\n      jump\t// in\n    tag_383:\n        /* \"#utility.yul\":9224:9325   */\n      swap2\n      pop\n        /* \"#utility.yul\":9342:9345   */\n      dup2\n        /* \"#utility.yul\":9335:9345   */\n      swap1\n      pop\n        /* \"#utility.yul\":9078:9351   */\n      swap3\n      swap2\n      pop\n      pop\n      jump\t// out\n        /* \"#utility.yul\":9357:9579   */\n    tag_29:\n        /* \"#utility.yul\":9450:9454   */\n      0x00\n        /* \"#utility.yul\":9488:9490   */\n      0x20\n        /* \"#utility.yul\":9477:9486   */\n      dup3\n        /* \"#utility.yul\":9473:9491   */\n      add\n        /* \"#utility.yul\":9465:9491   */\n      swap1\n      pop\n        /* \"#utility.yul\":9501:9572   */\n      tag_385\n        /* \"#utility.yul\":9569:9570   */\n      0x00\n        /* \"#utility.yul\":9558:9567   */\n      dup4\n        /* \"#utility.yul\":9554:9571   */\n      add\n        /* \"#utility.yul\":9545:9551   */\n      dup5\n        /* \"#utility.yul\":9501:9572   */\n      tag_277\n      jump\t// in\n    tag_385:\n        /* \"#utility.yul\":9357:9579   */\n      swap3\n      swap2\n      pop\n      pop\n      jump\t// out\n        /* \"#utility.yul\":9585:9795   */\n    tag_49:\n        /* \"#utility.yul\":9672:9676   */\n      0x00\n        /* \"#utility.yul\":9710:9712   */\n      0x20\n        /* \"#utility.yul\":9699:9708   */\n      dup3\n        /* \"#utility.yul\":9695:9713   */\n      add\n        /* \"#utility.yul\":9687:9713   */\n      swap1\n      pop\n        /* \"#utility.yul\":9723:9788   */\n      tag_387\n        /* \"#utility.yul\":9785:9786   */\n      0x00\n        /* \"#utility.yul\":9774:9783   */\n      dup4\n        /* \"#utility.yul\":9770:9787   */\n      add\n        /* \"#utility.yul\":9761:9767   */\n      dup5\n        /* \"#utility.yul\":9723:9788   */\n      tag_281\n      jump\t// in\n    tag_387:\n        /* \"#utility.yul\":9585:9795   */\n      swap3\n      swap2\n      pop\n      pop\n      jump\t// out\n        /* \"#utility.yul\":9801:10219   */\n    tag_64:\n        /* \"#utility.yul\":9938:9942   */\n      0x00\n        /* \"#utility.yul\":9976:9978   */\n      0x60\n        /* \"#utility.yul\":9965:9974   */\n      dup3\n        /* \"#utility.yul\":9961:9979   */\n      add\n        /* \"#utility.yul\":9953:9979   */\n      swap1\n      pop\n        /* \"#utility.yul\":9989:10054   */\n      tag_389\n        /* \"#utility.yul\":10051:10052   */\n      0x00\n        /* \"#utility.yul\":10040:10049   */\n      dup4\n        /* \"#utility.yul\":10036:10053   */\n      add\n        /* \"#utility.yul\":10027:10033   */\n      dup7\n        /* \"#utility.yul\":9989:10054   */\n      tag_281\n      jump\t// in\n    tag_389:\n        /* \"#utility.yul\":10064:10130   */\n      tag_390\n        /* \"#utility.yul\":10126:10128   */\n      0x20\n        /* \"#utility.yul\":10115:10124   */\n      dup4\n        /* \"#utility.yul\":10111:10129   */\n      add\n        /* \"#utility.yul\":10102:10108   */\n      dup6\n        /* \"#utility.yul\":10064:10130   */\n      tag_281\n      jump\t// in\n    tag_390:\n        /* \"#utility.yul\":10140:10212   */\n      tag_391\n        /* \"#utility.yul\":10208:10210   */\n      0x40\n        /* \"#utility.yul\":10197:10206   */\n      dup4\n        /* \"#utility.yul\":10193:10211   */\n      add\n        /* \"#utility.yul\":10184:10190   */\n      dup5\n        /* \"#utility.yul\":10140:10212   */\n      tag_378\n      jump\t// in\n    tag_391:\n        /* \"#utility.yul\":9801:10219   */\n      swap5\n      swap4\n      pop\n      pop\n      pop\n      pop\n      jump\t// out\n        /* \"#utility.yul\":10225:10538   */\n    tag_70:\n        /* \"#utility.yul\":10338:10342   */\n      0x00\n        /* \"#utility.yul\":10376:10378   */\n      0x20\n        /* \"#utility.yul\":10365:10374   */\n      dup3\n        /* \"#utility.yul\":10361:10379   */\n      add\n        /* \"#utility.yul\":10353:10379   */\n      swap1\n      pop\n        /* \"#utility.yul\":10425:10434   */\n      dup2\n        /* \"#utility.yul\":10419:10423   */\n      dup2\n        /* \"#utility.yul\":10415:10435   */\n      sub\n        /* \"#utility.yul\":10411:10412   */\n      0x00\n        /* \"#utility.yul\":10400:10409   */\n      dup4\n        /* \"#utility.yul\":10396:10413   */\n      add\n        /* \"#utility.yul\":10389:10436   */\n      mstore\n        /* \"#utility.yul\":10453:10531   */\n      tag_393\n        /* \"#utility.yul\":10526:10530   */\n      dup2\n        /* \"#utility.yul\":10517:10523   */\n      dup5\n        /* \"#utility.yul\":10453:10531   */\n      tag_298\n      jump\t// in\n    tag_393:\n        /* \"#utility.yul\":10445:10531   */\n      swap1\n      pop\n        /* \"#utility.yul\":10225:10538   */\n      swap3\n      swap2\n      pop\n      pop\n      jump\t// out\n        /* \"#utility.yul\":10544:10967   */\n    tag_38:\n        /* \"#utility.yul\":10685:10689   */\n      0x00\n        /* \"#utility.yul\":10723:10725   */\n      0x40\n        /* \"#utility.yul\":10712:10721   */\n      dup3\n        /* \"#utility.yul\":10708:10726   */\n      add\n        /* \"#utility.yul\":10700:10726   */\n      swap1\n      pop\n        /* \"#utility.yul\":10772:10781   */\n      dup2\n        /* \"#utility.yul\":10766:10770   */\n      dup2\n        /* \"#utility.yul\":10762:10782   */\n      sub\n        /* \"#utility.yul\":10758:10759   */\n      0x00\n        /* \"#utility.yul\":10747:10756   */\n      dup4\n        /* \"#utility.yul\":10743:10760   */\n      add\n        /* \"#utility.yul\":10736:10783   */\n      mstore\n        /* \"#utility.yul\":10800:10878   */\n      tag_395\n        /* \"#utility.yul\":10873:10877   */\n      dup2\n        /* \"#utility.yul\":10864:10870   */\n      dup6\n        /* \"#utility.yul\":10800:10878   */\n      tag_298\n      jump\t// in\n    tag_395:\n        /* \"#utility.yul\":10792:10878   */\n      swap1\n      pop\n        /* \"#utility.yul\":10888:10960   */\n      tag_396\n        /* \"#utility.yul\":10956:10958   */\n      0x20\n        /* \"#utility.yul\":10945:10954   */\n      dup4\n        /* \"#utility.yul\":10941:10959   */\n      add\n        /* \"#utility.yul\":10932:10938   */\n      dup5\n        /* \"#utility.yul\":10888:10960   */\n      tag_378\n      jump\t// in\n    tag_396:\n        /* \"#utility.yul\":10544:10967   */\n      swap4\n      swap3\n      pop\n      pop\n      pop\n      jump\t// out\n        /* \"#utility.yul\":10973:11392   */\n    tag_155:\n        /* \"#utility.yul\":11139:11143   */\n      0x00\n        /* \"#utility.yul\":11177:11179   */\n      0x20\n        /* \"#utility.yul\":11166:11175   */\n      dup3\n        /* \"#utility.yul\":11162:11180   */\n      add\n        /* \"#utility.yul\":11154:11180   */\n      swap1\n      pop\n        /* \"#utility.yul\":11226:11235   */\n      dup2\n        /* \"#utility.yul\":11220:11224   */\n      dup2\n        /* \"#utility.yul\":11216:11236   */\n      sub\n        /* \"#utility.yul\":11212:11213   */\n      0x00\n        /* \"#utility.yul\":11201:11210   */\n      dup4\n        /* \"#utility.yul\":11197:11214   */\n      add\n        /* \"#utility.yul\":11190:11237   */\n      mstore\n        /* \"#utility.yul\":11254:11385   */\n      tag_398\n        /* \"#utility.yul\":11380:11384   */\n      dup2\n        /* \"#utility.yul\":11254:11385   */\n      tag_308\n      jump\t// in\n    tag_398:\n        /* \"#utility.yul\":11246:11385   */\n      swap1\n      pop\n        /* \"#utility.yul\":10973:11392   */\n      swap2\n      swap1\n      pop\n      jump\t// out\n        /* \"#utility.yul\":11398:11817   */\n    tag_83:\n        /* \"#utility.yul\":11564:11568   */\n      0x00\n        /* \"#utility.yul\":11602:11604   */\n      0x20\n        /* \"#utility.yul\":11591:11600   */\n      dup3\n        /* \"#utility.yul\":11587:11605   */\n      add\n        /* \"#utility.yul\":11579:11605   */\n      swap1\n      pop\n        /* \"#utility.yul\":11651:11660   */\n      dup2\n        /* \"#utility.yul\":11645:11649   */\n      dup2\n        /* \"#utility.yul\":11641:11661   */\n      sub\n        /* \"#utility.yul\":11637:11638   */\n      0x00\n        /* \"#utility.yul\":11626:11635   */\n      dup4\n        /* \"#utility.yul\":11622:11639   */\n      add\n        /* \"#utility.yul\":11615:11662   */\n      mstore\n        /* \"#utility.yul\":11679:11810   */\n      tag_400\n        /* \"#utility.yul\":11805:11809   */\n      dup2\n        /* \"#utility.yul\":11679:11810   */\n      tag_313\n      jump\t// in\n    tag_400:\n        /* \"#utility.yul\":11671:11810   */\n      swap1\n      pop\n        /* \"#utility.yul\":11398:11817   */\n      swap2\n      swap1\n      pop\n      jump\t// out\n        /* \"#utility.yul\":11823:12242   */\n    tag_144:\n        /* \"#utility.yul\":11989:11993   */\n      0x00\n        /* \"#utility.yul\":12027:12029   */\n      0x20\n        /* \"#utility.yul\":12016:12025   */\n      dup3\n        /* \"#utility.yul\":12012:12030   */\n      add\n        /* \"#utility.yul\":12004:12030   */\n      swap1\n      pop\n        /* \"#utility.yul\":12076:12085   */\n      dup2\n        /* \"#utility.yul\":12070:12074   */\n      dup2\n        /* \"#utility.yul\":12066:12086   */\n      sub\n        /* \"#utility.yul\":12062:12063   */\n      0x00\n        /* \"#utility.yul\":12051:12060   */\n      dup4\n        /* \"#utility.yul\":12047:12064   */\n      add\n        /* \"#utility.yul\":12040:12087   */\n      mstore\n        /* \"#utility.yul\":12104:12235   */\n      tag_402\n        /* \"#utility.yul\":12230:12234   */\n      dup2\n        /* \"#utility.yul\":12104:12235   */\n      tag_318\n      jump\t// in\n    tag_402:\n        /* \"#utility.yul\":12096:12235   */\n      swap1\n      pop\n        /* \"#utility.yul\":11823:12242   */\n      swap2\n      swap1\n      pop\n      jump\t// out\n        /* \"#utility.yul\":12248:12667   */\n    tag_89:\n        /* \"#utility.yul\":12414:12418   */\n      0x00\n        /* \"#utility.yul\":12452:12454   */\n      0x20\n        /* \"#utility.yul\":12441:12450   */\n      dup3\n        /* \"#utility.yul\":12437:12455   */\n      add\n        /* \"#utility.yul\":12429:12455   */\n      swap1\n      pop\n        /* \"#utility.yul\":12501:12510   */\n      dup2\n        /* \"#utility.yul\":12495:12499   */\n      dup2\n        /* \"#utility.yul\":12491:12511   */\n      sub\n        /* \"#utility.yul\":12487:12488   */\n      0x00\n        /* \"#utility.yul\":12476:12485   */\n      dup4\n        /* \"#utility.yul\":12472:12489   */\n      add\n        /* \"#utility.yul\":12465:12512   */\n      mstore\n        /* \"#utility.yul\":12529:12660   */\n      tag_404\n        /* \"#utility.yul\":12655:12659   */\n      dup2\n        /* \"#utility.yul\":12529:12660   */\n      tag_323\n      jump\t// in\n    tag_404:\n        /* \"#utility.yul\":12521:12660   */\n      swap1\n      pop\n        /* \"#utility.yul\":12248:12667   */\n      swap2\n      swap1\n      pop\n      jump\t// out\n        /* \"#utility.yul\":12673:13092   */\n    tag_150:\n        /* \"#utility.yul\":12839:12843   */\n      0x00\n        /* \"#utility.yul\":12877:12879   */\n      0x20\n        /* \"#utility.yul\":12866:12875   */\n      dup3\n        /* \"#utility.yul\":12862:12880   */\n      add\n        /* \"#utility.yul\":12854:12880   */\n      swap1\n      pop\n        /* \"#utility.yul\":12926:12935   */\n      dup2\n        /* \"#utility.yul\":12920:12924   */\n      dup2\n        /* \"#utility.yul\":12916:12936   */\n      sub\n        /* \"#utility.yul\":12912:12913   */\n      0x00\n        /* \"#utility.yul\":12901:12910   */\n      dup4\n        /* \"#utility.yul\":12897:12914   */\n      add\n        /* \"#utility.yul\":12890:12937   */\n      mstore\n        /* \"#utility.yul\":12954:13085   */\n      tag_406\n        /* \"#utility.yul\":13080:13084   */\n      dup2\n        /* \"#utility.yul\":12954:13085   */\n      tag_328\n      jump\t// in\n    tag_406:\n        /* \"#utility.yul\":12946:13085   */\n      swap1\n      pop\n        /* \"#utility.yul\":12673:13092   */\n      swap2\n      swap1\n      pop\n      jump\t// out\n        /* \"#utility.yul\":13098:13517   */\n    tag_80:\n        /* \"#utility.yul\":13264:13268   */\n      0x00\n        /* \"#utility.yul\":13302:13304   */\n      0x20\n        /* \"#utility.yul\":13291:13300   */\n      dup3\n        /* \"#utility.yul\":13287:13305   */\n      add\n        /* \"#utility.yul\":13279:13305   */\n      swap1\n      pop\n        /* \"#utility.yul\":13351:13360   */\n      dup2\n        /* \"#utility.yul\":13345:13349   */\n      dup2\n        /* \"#utility.yul\":13341:13361   */\n      sub\n        /* \"#utility.yul\":13337:13338   */\n      0x00\n        /* \"#utility.yul\":13326:13335   */\n      dup4\n        /* \"#utility.yul\":13322:13339   */\n      add\n        /* \"#utility.yul\":13315:13362   */\n      mstore\n        /* \"#utility.yul\":13379:13510   */\n      tag_408\n        /* \"#utility.yul\":13505:13509   */\n      dup2\n        /* \"#utility.yul\":13379:13510   */\n      tag_333\n      jump\t// in\n    tag_408:\n        /* \"#utility.yul\":13371:13510   */\n      swap1\n      pop\n        /* \"#utility.yul\":13098:13517   */\n      swap2\n      swap1\n      pop\n      jump\t// out\n        /* \"#utility.yul\":13523:13942   */\n    tag_113:\n        /* \"#utility.yul\":13689:13693   */\n      0x00\n        /* \"#utility.yul\":13727:13729   */\n      0x20\n        /* \"#utility.yul\":13716:13725   */\n      dup3\n        /* \"#utility.yul\":13712:13730   */\n      add\n        /* \"#utility.yul\":13704:13730   */\n      swap1\n      pop\n        /* \"#utility.yul\":13776:13785   */\n      dup2\n        /* \"#utility.yul\":13770:13774   */\n      dup2\n        /* \"#utility.yul\":13766:13786   */\n      sub\n        /* \"#utility.yul\":13762:13763   */\n      0x00\n        /* \"#utility.yul\":13751:13760   */\n      dup4\n        /* \"#utility.yul\":13747:13764   */\n      add\n        /* \"#utility.yul\":13740:13787   */\n      mstore\n        /* \"#utility.yul\":13804:13935   */\n      tag_410\n        /* \"#utility.yul\":13930:13934   */\n      dup2\n        /* \"#utility.yul\":13804:13935   */\n      tag_338\n      jump\t// in\n    tag_410:\n        /* \"#utility.yul\":13796:13935   */\n      swap1\n      pop\n        /* \"#utility.yul\":13523:13942   */\n      swap2\n      swap1\n      pop\n      jump\t// out\n        /* \"#utility.yul\":13948:14367   */\n    tag_131:\n        /* \"#utility.yul\":14114:14118   */\n      0x00\n        /* \"#utility.yul\":14152:14154   */\n      0x20\n        /* \"#utility.yul\":14141:14150   */\n      dup3\n        /* \"#utility.yul\":14137:14155   */\n      add\n        /* \"#utility.yul\":14129:14155   */\n      swap1\n      pop\n        /* \"#utility.yul\":14201:14210   */\n      dup2\n        /* \"#utility.yul\":14195:14199   */\n      dup2\n        /* \"#utility.yul\":14191:14211   */\n      sub\n        /* \"#utility.yul\":14187:14188   */\n      0x00\n        /* \"#utility.yul\":14176:14185   */\n      dup4\n        /* \"#utility.yul\":14172:14189   */\n      add\n        /* \"#utility.yul\":14165:14212   */\n      mstore\n        /* \"#utility.yul\":14229:14360   */\n      tag_412\n        /* \"#utility.yul\":14355:14359   */\n      dup2\n        /* \"#utility.yul\":14229:14360   */\n      tag_343\n      jump\t// in\n    tag_412:\n        /* \"#utility.yul\":14221:14360   */\n      swap1\n      pop\n        /* \"#utility.yul\":13948:14367   */\n      swap2\n      swap1\n      pop\n      jump\t// out\n        /* \"#utility.yul\":14373:14792   */\n    tag_147:\n        /* \"#utility.yul\":14539:14543   */\n      0x00\n        /* \"#utility.yul\":14577:14579   */\n      0x20\n        /* \"#utility.yul\":14566:14575   */\n      dup3\n        /* \"#utility.yul\":14562:14580   */\n      add\n        /* \"#utility.yul\":14554:14580   */\n      swap1\n      pop\n        /* \"#utility.yul\":14626:14635   */\n      dup2\n        /* \"#utility.yul\":14620:14624   */\n      dup2\n        /* \"#utility.yul\":14616:14636   */\n      sub\n        /* \"#utility.yul\":14612:14613   */\n      0x00\n        /* \"#utility.yul\":14601:14610   */\n      dup4\n        /* \"#utility.yul\":14597:14614   */\n      add\n        /* \"#utility.yul\":14590:14637   */\n      mstore\n        /* \"#utility.yul\":14654:14785   */\n      tag_414\n        /* \"#utility.yul\":14780:14784   */\n      dup2\n        /* \"#utility.yul\":14654:14785   */\n      tag_348\n      jump\t// in\n    tag_414:\n        /* \"#utility.yul\":14646:14785   */\n      swap1\n      pop\n        /* \"#utility.yul\":14373:14792   */\n      swap2\n      swap1\n      pop\n      jump\t// out\n        /* \"#utility.yul\":14798:15217   */\n    tag_163:\n        /* \"#utility.yul\":14964:14968   */\n      0x00\n        /* \"#utility.yul\":15002:15004   */\n      0x20\n        /* \"#utility.yul\":14991:15000   */\n      dup3\n        /* \"#utility.yul\":14987:15005   */\n      add\n        /* \"#utility.yul\":14979:15005   */\n      swap1\n      pop\n        /* \"#utility.yul\":15051:15060   */\n      dup2\n        /* \"#utility.yul\":15045:15049   */\n      dup2\n        /* \"#utility.yul\":15041:15061   */\n      sub\n        /* \"#utility.yul\":15037:15038   */\n      0x00\n        /* \"#utility.yul\":15026:15035   */\n      dup4\n        /* \"#utility.yul\":15022:15039   */\n      add\n        /* \"#utility.yul\":15015:15062   */\n      mstore\n        /* \"#utility.yul\":15079:15210   */\n      tag_416\n        /* \"#utility.yul\":15205:15209   */\n      dup2\n        /* \"#utility.yul\":15079:15210   */\n      tag_353\n      jump\t// in\n    tag_416:\n        /* \"#utility.yul\":15071:15210   */\n      swap1\n      pop\n        /* \"#utility.yul\":14798:15217   */\n      swap2\n      swap1\n      pop\n      jump\t// out\n        /* \"#utility.yul\":15223:15642   */\n    tag_116:\n        /* \"#utility.yul\":15389:15393   */\n      0x00\n        /* \"#utility.yul\":15427:15429   */\n      0x20\n        /* \"#utility.yul\":15416:15425   */\n      dup3\n        /* \"#utility.yul\":15412:15430   */\n      add\n        /* \"#utility.yul\":15404:15430   */\n      swap1\n      pop\n        /* \"#utility.yul\":15476:15485   */\n      dup2\n        /* \"#utility.yul\":15470:15474   */\n      dup2\n        /* \"#utility.yul\":15466:15486   */\n      sub\n        /* \"#utility.yul\":15462:15463   */\n      0x00\n        /* \"#utility.yul\":15451:15460   */\n      dup4\n        /* \"#utility.yul\":15447:15464   */\n      add\n        /* \"#utility.yul\":15440:15487   */\n      mstore\n        /* \"#utility.yul\":15504:15635   */\n      tag_418\n        /* \"#utility.yul\":15630:15634   */\n      dup2\n        /* \"#utility.yul\":15504:15635   */\n      tag_358\n      jump\t// in\n    tag_418:\n        /* \"#utility.yul\":15496:15635   */\n      swap1\n      pop\n        /* \"#utility.yul\":15223:15642   */\n      swap2\n      swap1\n      pop\n      jump\t// out\n        /* \"#utility.yul\":15648:16067   */\n    tag_93:\n        /* \"#utility.yul\":15814:15818   */\n      0x00\n        /* \"#utility.yul\":15852:15854   */\n      0x20\n        /* \"#utility.yul\":15841:15850   */\n      dup3\n        /* \"#utility.yul\":15837:15855   */\n      add\n        /* \"#utility.yul\":15829:15855   */\n      swap1\n      pop\n        /* \"#utility.yul\":15901:15910   */\n      dup2\n        /* \"#utility.yul\":15895:15899   */\n      dup2\n        /* \"#utility.yul\":15891:15911   */\n      sub\n        /* \"#utility.yul\":15887:15888   */\n      0x00\n        /* \"#utility.yul\":15876:15885   */\n      dup4\n        /* \"#utility.yul\":15872:15889   */\n      add\n        /* \"#utility.yul\":15865:15912   */\n      mstore\n        /* \"#utility.yul\":15929:16060   */\n      tag_420\n        /* \"#utility.yul\":16055:16059   */\n      dup2\n        /* \"#utility.yul\":15929:16060   */\n      tag_363\n      jump\t// in\n    tag_420:\n        /* \"#utility.yul\":15921:16060   */\n      swap1\n      pop\n        /* \"#utility.yul\":15648:16067   */\n      swap2\n      swap1\n      pop\n      jump\t// out\n        /* \"#utility.yul\":16073:16492   */\n    tag_166:\n        /* \"#utility.yul\":16239:16243   */\n      0x00\n        /* \"#utility.yul\":16277:16279   */\n      0x20\n        /* \"#utility.yul\":16266:16275   */\n      dup3\n        /* \"#utility.yul\":16262:16280   */\n      add\n        /* \"#utility.yul\":16254:16280   */\n      swap1\n      pop\n        /* \"#utility.yul\":16326:16335   */\n      dup2\n        /* \"#utility.yul\":16320:16324   */\n      dup2\n        /* \"#utility.yul\":16316:16336   */\n      sub\n        /* \"#utility.yul\":16312:16313   */\n      0x00\n        /* \"#utility.yul\":16301:16310   */\n      dup4\n        /* \"#utility.yul\":16297:16314   */\n      add\n        /* \"#utility.yul\":16290:16337   */\n      mstore\n        /* \"#utility.yul\":16354:16485   */\n      tag_422\n        /* \"#utility.yul\":16480:16484   */\n      dup2\n        /* \"#utility.yul\":16354:16485   */\n      tag_368\n      jump\t// in\n    tag_422:\n        /* \"#utility.yul\":16346:16485   */\n      swap1\n      pop\n        /* \"#utility.yul\":16073:16492   */\n      swap2\n      swap1\n      pop\n      jump\t// out\n        /* \"#utility.yul\":16498:16917   */\n    tag_86:\n        /* \"#utility.yul\":16664:16668   */\n      0x00\n        /* \"#utility.yul\":16702:16704   */\n      0x20\n        /* \"#utility.yul\":16691:16700   */\n      dup3\n        /* \"#utility.yul\":16687:16705   */\n      add\n        /* \"#utility.yul\":16679:16705   */\n      swap1\n      pop\n        /* \"#utility.yul\":16751:16760   */\n      dup2\n        /* \"#utility.yul\":16745:16749   */\n      dup2\n        /* \"#utility.yul\":16741:16761   */\n      sub\n        /* \"#utility.yul\":16737:16738   */\n      0x00\n        /* \"#utility.yul\":16726:16735   */\n      dup4\n        /* \"#utility.yul\":16722:16739   */\n      add\n        /* \"#utility.yul\":16715:16762   */\n      mstore\n        /* \"#utility.yul\":16779:16910   */\n      tag_424\n        /* \"#utility.yul\":16905:16909   */\n      dup2\n        /* \"#utility.yul\":16779:16910   */\n      tag_373\n      jump\t// in\n    tag_424:\n        /* \"#utility.yul\":16771:16910   */\n      swap1\n      pop\n        /* \"#utility.yul\":16498:16917   */\n      swap2\n      swap1\n      pop\n      jump\t// out\n        /* \"#utility.yul\":16923:17145   */\n    tag_33:\n        /* \"#utility.yul\":17016:17020   */\n      0x00\n        /* \"#utility.yul\":17054:17056   */\n      0x20\n        /* \"#utility.yul\":17043:17052   */\n      dup3\n        /* \"#utility.yul\":17039:17057   */\n      add\n        /* \"#utility.yul\":17031:17057   */\n      swap1\n      pop\n        /* \"#utility.yul\":17067:17138   */\n      tag_426\n        /* \"#utility.yul\":17135:17136   */\n      0x00\n        /* \"#utility.yul\":17124:17133   */\n      dup4\n        /* \"#utility.yul\":17120:17137   */\n      add\n        /* \"#utility.yul\":17111:17117   */\n      dup5\n        /* \"#utility.yul\":17067:17138   */\n      tag_378\n      jump\t// in\n    tag_426:\n        /* \"#utility.yul\":16923:17145   */\n      swap3\n      swap2\n      pop\n      pop\n      jump\t// out\n        /* \"#utility.yul\":17151:17280   */\n    tag_241:\n        /* \"#utility.yul\":17185:17191   */\n      0x00\n        /* \"#utility.yul\":17212:17232   */\n      tag_428\n      tag_429\n      jump\t// in\n    tag_428:\n        /* \"#utility.yul\":17202:17232   */\n      swap1\n      pop\n        /* \"#utility.yul\":17241:17274   */\n      tag_430\n        /* \"#utility.yul\":17269:17273   */\n      dup3\n        /* \"#utility.yul\":17261:17267   */\n      dup3\n        /* \"#utility.yul\":17241:17274   */\n      tag_431\n      jump\t// in\n    tag_430:\n        /* \"#utility.yul\":17151:17280   */\n      swap2\n      swap1\n      pop\n      jump\t// out\n        /* \"#utility.yul\":17286:17361   */\n    tag_429:\n        /* \"#utility.yul\":17319:17325   */\n      0x00\n        /* \"#utility.yul\":17352:17354   */\n      0x40\n        /* \"#utility.yul\":17346:17355   */\n      mload\n        /* \"#utility.yul\":17336:17355   */\n      swap1\n      pop\n        /* \"#utility.yul\":17286:17361   */\n      swap1\n      jump\t// out\n        /* \"#utility.yul\":17367:17675   */\n    tag_240:\n        /* \"#utility.yul\":17429:17433   */\n      0x00\n        /* \"#utility.yul\":17519:17537   */\n      0xffffffffffffffff\n        /* \"#utility.yul\":17511:17517   */\n      dup3\n        /* \"#utility.yul\":17508:17538   */\n      gt\n        /* \"#utility.yul\":17505:17561   */\n      iszero\n      tag_434\n      jumpi\n        /* \"#utility.yul\":17541:17559   */\n      tag_435\n      tag_134\n      jump\t// in\n    tag_435:\n        /* \"#utility.yul\":17505:17561   */\n    tag_434:\n        /* \"#utility.yul\":17579:17608   */\n      tag_436\n        /* \"#utility.yul\":17601:17607   */\n      dup3\n        /* \"#utility.yul\":17579:17608   */\n      tag_307\n      jump\t// in\n    tag_436:\n        /* \"#utility.yul\":17571:17608   */\n      swap1\n      pop\n        /* \"#utility.yul\":17663:17667   */\n      0x20\n        /* \"#utility.yul\":17657:17661   */\n      dup2\n        /* \"#utility.yul\":17653:17668   */\n      add\n        /* \"#utility.yul\":17645:17668   */\n      swap1\n      pop\n        /* \"#utility.yul\":17367:17675   */\n      swap2\n      swap1\n      pop\n      jump\t// out\n        /* \"#utility.yul\":17681:17825   */\n    tag_294:\n        /* \"#utility.yul\":17733:17737   */\n      0x00\n        /* \"#utility.yul\":17756:17759   */\n      dup2\n        /* \"#utility.yul\":17748:17759   */\n      swap1\n      pop\n        /* \"#utility.yul\":17779:17782   */\n      dup2\n        /* \"#utility.yul\":17776:17777   */\n      0x00\n        /* \"#utility.yul\":17769:17783   */\n      mstore\n        /* \"#utility.yul\":17813:17817   */\n      0x20\n        /* \"#utility.yul\":17810:17811   */\n      0x00\n        /* \"#utility.yul\":17800:17818   */\n      keccak256\n        /* \"#utility.yul\":17792:17818   */\n      swap1\n      pop\n        /* \"#utility.yul\":17681:17825   */\n      swap2\n      swap1\n      pop\n      jump\t// out\n        /* \"#utility.yul\":17831:17930   */\n    tag_301:\n        /* \"#utility.yul\":17883:17889   */\n      0x00\n        /* \"#utility.yul\":17917:17922   */\n      dup2\n        /* \"#utility.yul\":17911:17923   */\n      mload\n        /* \"#utility.yul\":17901:17923   */\n      swap1\n      pop\n        /* \"#utility.yul\":17831:17930   */\n      swap2\n      swap1\n      pop\n      jump\t// out\n        /* \"#utility.yul\":17936:18083   */\n    tag_289:\n        /* \"#utility.yul\":18037:18048   */\n      0x00\n        /* \"#utility.yul\":18074:18077   */\n      dup2\n        /* \"#utility.yul\":18059:18077   */\n      swap1\n      pop\n        /* \"#utility.yul\":17936:18083   */\n      swap3\n      swap2\n      pop\n      pop\n      jump\t// out\n        /* \"#utility.yul\":18089:18258   */\n    tag_303:\n        /* \"#utility.yul\":18173:18184   */\n      0x00\n        /* \"#utility.yul\":18207:18213   */\n      dup3\n        /* \"#utility.yul\":18202:18205   */\n      dup3\n        /* \"#utility.yul\":18195:18214   */\n      mstore\n        /* \"#utility.yul\":18247:18251   */\n      0x20\n        /* \"#utility.yul\":18242:18245   */\n      dup3\n        /* \"#utility.yul\":18238:18252   */\n      add\n        /* \"#utility.yul\":18223:18252   */\n      swap1\n      pop\n        /* \"#utility.yul\":18089:18258   */\n      swap3\n      swap2\n      pop\n      pop\n      jump\t// out\n        /* \"#utility.yul\":18264:18569   */\n    tag_159:\n        /* \"#utility.yul\":18304:18307   */\n      0x00\n        /* \"#utility.yul\":18323:18343   */\n      tag_442\n        /* \"#utility.yul\":18341:18342   */\n      dup3\n        /* \"#utility.yul\":18323:18343   */\n      tag_381\n      jump\t// in\n    tag_442:\n        /* \"#utility.yul\":18318:18343   */\n      swap2\n      pop\n        /* \"#utility.yul\":18357:18377   */\n      tag_443\n        /* \"#utility.yul\":18375:18376   */\n      dup4\n        /* \"#utility.yul\":18357:18377   */\n      tag_381\n      jump\t// in\n    tag_443:\n        /* \"#utility.yul\":18352:18377   */\n      swap3\n      pop\n        /* \"#utility.yul\":18511:18512   */\n      dup3\n        /* \"#utility.yul\":18443:18509   */\n      0xffffffffffffffffffffffffffffffffffffffffffffffffffffffffffffffff\n        /* \"#utility.yul\":18439:18513   */\n      sub\n        /* \"#utility.yul\":18436:18437   */\n      dup3\n        /* \"#utility.yul\":18433:18514   */\n      gt\n        /* \"#utility.yul\":18430:18537   */\n      iszero\n      tag_444\n      jumpi\n        /* \"#utility.yul\":18517:18535   */\n      tag_445\n      tag_446\n      jump\t// in\n    tag_445:\n        /* \"#utility.yul\":18430:18537   */\n    tag_444:\n        /* \"#utility.yul\":18561:18562   */\n      dup3\n        /* \"#utility.yul\":18558:18559   */\n      dup3\n        /* \"#utility.yul\":18554:18563   */\n      add\n        /* \"#utility.yul\":18547:18563   */\n      swap1\n      pop\n        /* \"#utility.yul\":18264:18569   */\n      swap3\n      swap2\n      pop\n      pop\n      jump\t// out\n        /* \"#utility.yul\":18575:18923   */\n    tag_157:\n        /* \"#utility.yul\":18615:18622   */\n      0x00\n        /* \"#utility.yul\":18638:18658   */\n      tag_448\n        /* \"#utility.yul\":18656:18657   */\n      dup3\n        /* \"#utility.yul\":18638:18658   */\n      tag_381\n      jump\t// in\n    tag_448:\n        /* \"#utility.yul\":18633:18658   */\n      swap2\n      pop\n        /* \"#utility.yul\":18672:18692   */\n      tag_449\n        /* \"#utility.yul\":18690:18691   */\n      dup4\n        /* \"#utility.yul\":18672:18692   */\n      tag_381\n      jump\t// in\n    tag_449:\n        /* \"#utility.yul\":18667:18692   */\n      swap3\n      pop\n        /* \"#utility.yul\":18860:18861   */\n      dup2\n        /* \"#utility.yul\":18792:18858   */\n      0xffffffffffffffffffffffffffffffffffffffffffffffffffffffffffffffff\n        /* \"#utility.yul\":18788:18862   */\n      div\n        /* \"#utility.yul\":18785:18786   */\n      dup4\n        /* \"#utility.yul\":18782:18863   */\n      gt\n        /* \"#utility.yul\":18777:18778   */\n      dup3\n        /* \"#utility.yul\":18770:18779   */\n      iszero\n        /* \"#utility.yul\":18763:18780   */\n      iszero\n        /* \"#utility.yul\":18759:18864   */\n      and\n        /* \"#utility.yul\":18756:18887   */\n      iszero\n      tag_450\n      jumpi\n        /* \"#utility.yul\":18867:18885   */\n      tag_451\n      tag_446\n      jump\t// in\n    tag_451:\n        /* \"#utility.yul\":18756:18887   */\n    tag_450:\n        /* \"#utility.yul\":18915:18916   */\n      dup3\n        /* \"#utility.yul\":18912:18913   */\n      dup3\n        /* \"#utility.yul\":18908:18917   */\n      mul\n        /* \"#utility.yul\":18897:18917   */\n      swap1\n      pop\n        /* \"#utility.yul\":18575:18923   */\n      swap3\n      swap2\n      pop\n      pop\n      jump\t// out\n        /* \"#utility.yul\":18929:19025   */\n    tag_280:\n        /* \"#utility.yul\":18966:18973   */\n      0x00\n        /* \"#utility.yul\":18995:19019   */\n      tag_453\n        /* \"#utility.yul\":19013:19018   */\n      dup3\n        /* \"#utility.yul\":18995:19019   */\n      tag_454\n      jump\t// in\n    tag_453:\n        /* \"#utility.yul\":18984:19019   */\n      swap1\n      pop\n        /* \"#utility.yul\":18929:19025   */\n      swap2\n      swap1\n      pop\n      jump\t// out\n        /* \"#utility.yul\":19031:19121   */\n    tag_284:\n        /* \"#utility.yul\":19065:19072   */\n      0x00\n        /* \"#utility.yul\":19108:19113   */\n      dup2\n        /* \"#utility.yul\":19101:19114   */\n      iszero\n        /* \"#utility.yul\":19094:19115   */\n      iszero\n        /* \"#utility.yul\":19083:19115   */\n      swap1\n      pop\n        /* \"#utility.yul\":19031:19121   */\n      swap2\n      swap1\n      pop\n      jump\t// out\n        /* \"#utility.yul\":19127:19253   */\n    tag_454:\n        /* \"#utility.yul\":19164:19171   */\n      0x00\n        /* \"#utility.yul\":19204:19246   */\n      0xffffffffffffffffffffffffffffffffffffffff\n        /* \"#utility.yul\":19197:19202   */\n      dup3\n        /* \"#utility.yul\":19193:19247   */\n      and\n        /* \"#utility.yul\":19182:19247   */\n      swap1\n      pop\n        /* \"#utility.yul\":19127:19253   */\n      swap2\n      swap1\n      pop\n      jump\t// out\n        /* \"#utility.yul\":19259:19336   */\n    tag_381:\n        /* \"#utility.yul\":19296:19303   */\n      0x00\n        /* \"#utility.yul\":19325:19330   */\n      dup2\n        /* \"#utility.yul\":19314:19330   */\n      swap1\n      pop\n        /* \"#utility.yul\":19259:19336   */\n      swap2\n      swap1\n      pop\n      jump\t// out\n        /* \"#utility.yul\":19342:19496   */\n    tag_246:\n        /* \"#utility.yul\":19426:19432   */\n      dup3\n        /* \"#utility.yul\":19421:19424   */\n      dup2\n        /* \"#utility.yul\":19416:19419   */\n      dup4\n        /* \"#utility.yul\":19403:19433   */\n      calldatacopy\n        /* \"#utility.yul\":19488:19489   */\n      0x00\n        /* \"#utility.yul\":19479:19485   */\n      dup4\n        /* \"#utility.yul\":19474:19477   */\n      dup4\n        /* \"#utility.yul\":19470:19486   */\n      add\n        /* \"#utility.yul\":19463:19490   */\n      mstore\n        /* \"#utility.yul\":19342:19496   */\n      pop\n      pop\n      pop\n      jump\t// out\n        /* \"#utility.yul\":19502:19809   */\n    tag_305:\n        /* \"#utility.yul\":19570:19571   */\n      0x00\n        /* \"#utility.yul\":19580:19693   */\n    tag_460:\n        /* \"#utility.yul\":19594:19600   */\n      dup4\n        /* \"#utility.yul\":19591:19592   */\n      dup2\n        /* \"#utility.yul\":19588:19601   */\n      lt\n        /* \"#utility.yul\":19580:19693   */\n      iszero\n      tag_462\n      jumpi\n        /* \"#utility.yul\":19679:19680   */\n      dup1\n        /* \"#utility.yul\":19674:19677   */\n      dup3\n        /* \"#utility.yul\":19670:19681   */\n      add\n        /* \"#utility.yul\":19664:19682   */\n      mload\n        /* \"#utility.yul\":19660:19661   */\n      dup2\n        /* \"#utility.yul\":19655:19658   */\n      dup5\n        /* \"#utility.yul\":19651:19662   */\n      add\n        /* \"#utility.yul\":19644:19683   */\n      mstore\n        /* \"#utility.yul\":19616:19618   */\n      0x20\n        /* \"#utility.yul\":19613:19614   */\n      dup2\n        /* \"#utility.yul\":19609:19619   */\n      add\n        /* \"#utility.yul\":19604:19619   */\n      swap1\n      pop\n        /* \"#utility.yul\":19580:19693   */\n      jump(tag_460)\n    tag_462:\n        /* \"#utility.yul\":19711:19717   */\n      dup4\n        /* \"#utility.yul\":19708:19709   */\n      dup2\n        /* \"#utility.yul\":19705:19718   */\n      gt\n        /* \"#utility.yul\":19702:19803   */\n      iszero\n      tag_463\n      jumpi\n        /* \"#utility.yul\":19791:19792   */\n      0x00\n        /* \"#utility.yul\":19782:19788   */\n      dup5\n        /* \"#utility.yul\":19777:19780   */\n      dup5\n        /* \"#utility.yul\":19773:19789   */\n      add\n        /* \"#utility.yul\":19766:19793   */\n      mstore\n        /* \"#utility.yul\":19702:19803   */\n    tag_463:\n        /* \"#utility.yul\":19551:19809   */\n      pop\n        /* \"#utility.yul\":19502:19809   */\n      pop\n      pop\n      pop\n      jump\t// out\n        /* \"#utility.yul\":19815:20135   */\n    tag_105:\n        /* \"#utility.yul\":19859:19865   */\n      0x00\n        /* \"#utility.yul\":19896:19897   */\n      0x02\n        /* \"#utility.yul\":19890:19894   */\n      dup3\n        /* \"#utility.yul\":19886:19898   */\n      div\n        /* \"#utility.yul\":19876:19898   */\n      swap1\n      pop\n        /* \"#utility.yul\":19943:19944   */\n      0x01\n        /* \"#utility.yul\":19937:19941   */\n      dup3\n        /* \"#utility.yul\":19933:19945   */\n      and\n        /* \"#utility.yul\":19964:19982   */\n      dup1\n        /* \"#utility.yul\":19954:20035   */\n      tag_465\n      jumpi\n        /* \"#utility.yul\":20020:20024   */\n      0x7f\n        /* \"#utility.yul\":20012:20018   */\n      dup3\n        /* \"#utility.yul\":20008:20025   */\n      and\n        /* \"#utility.yul\":19998:20025   */\n      swap2\n      pop\n        /* \"#utility.yul\":19954:20035   */\n    tag_465:\n        /* \"#utility.yul\":20082:20084   */\n      0x20\n        /* \"#utility.yul\":20074:20080   */\n      dup3\n        /* \"#utility.yul\":20071:20085   */\n      lt\n        /* \"#utility.yul\":20051:20069   */\n      dup2\n        /* \"#utility.yul\":20048:20086   */\n      eq\n        /* \"#utility.yul\":20045:20129   */\n      iszero\n      tag_466\n      jumpi\n        /* \"#utility.yul\":20101:20119   */\n      tag_467\n      tag_468\n      jump\t// in\n    tag_467:\n        /* \"#utility.yul\":20045:20129   */\n    tag_466:\n        /* \"#utility.yul\":19866:20135   */\n      pop\n        /* \"#utility.yul\":19815:20135   */\n      swap2\n      swap1\n      pop\n      jump\t// out\n        /* \"#utility.yul\":20141:20422   */\n    tag_431:\n        /* \"#utility.yul\":20224:20251   */\n      tag_470\n        /* \"#utility.yul\":20246:20250   */\n      dup3\n        /* \"#utility.yul\":20224:20251   */\n      tag_307\n      jump\t// in\n    tag_470:\n        /* \"#utility.yul\":20216:20222   */\n      dup2\n        /* \"#utility.yul\":20212:20252   */\n      add\n        /* \"#utility.yul\":20354:20360   */\n      dup2\n        /* \"#utility.yul\":20342:20352   */\n      dup2\n        /* \"#utility.yul\":20339:20361   */\n      lt\n        /* \"#utility.yul\":20318:20336   */\n      0xffffffffffffffff\n        /* \"#utility.yul\":20306:20316   */\n      dup3\n        /* \"#utility.yul\":20303:20337   */\n      gt\n        /* \"#utility.yul\":20300:20362   */\n      or\n        /* \"#utility.yul\":20297:20385   */\n      iszero\n      tag_471\n      jumpi\n        /* \"#utility.yul\":20365:20383   */\n      tag_472\n      tag_134\n      jump\t// in\n    tag_472:\n        /* \"#utility.yul\":20297:20385   */\n    tag_471:\n        /* \"#utility.yul\":20405:20415   */\n      dup1\n        /* \"#utility.yul\":20401:20403   */\n      0x40\n        /* \"#utility.yul\":20394:20416   */\n      mstore\n        /* \"#utility.yul\":20184:20422   */\n      pop\n        /* \"#utility.yul\":20141:20422   */\n      pop\n      pop\n      jump\t// out\n        /* \"#utility.yul\":20428:20661   */\n    tag_128:\n        /* \"#utility.yul\":20467:20470   */\n      0x00\n        /* \"#utility.yul\":20490:20514   */\n      tag_474\n        /* \"#utility.yul\":20508:20513   */\n      dup3\n        /* \"#utility.yul\":20490:20514   */\n      tag_381\n      jump\t// in\n    tag_474:\n        /* \"#utility.yul\":20481:20514   */\n      swap2\n      pop\n        /* \"#utility.yul\":20536:20602   */\n      0xffffffffffffffffffffffffffffffffffffffffffffffffffffffffffffffff\n        /* \"#utility.yul\":20529:20534   */\n      dup3\n        /* \"#utility.yul\":20526:20603   */\n      eq\n        /* \"#utility.yul\":20523:20626   */\n      iszero\n      tag_475\n      jumpi\n        /* \"#utility.yul\":20606:20624   */\n      tag_476\n      tag_446\n      jump\t// in\n    tag_476:\n        /* \"#utility.yul\":20523:20626   */\n    tag_475:\n        /* \"#utility.yul\":20653:20654   */\n      0x01\n        /* \"#utility.yul\":20646:20651   */\n      dup3\n        /* \"#utility.yul\":20642:20655   */\n      add\n        /* \"#utility.yul\":20635:20655   */\n      swap1\n      pop\n        /* \"#utility.yul\":20428:20661   */\n      swap2\n      swap1\n      pop\n      jump\t// out\n        /* \"#utility.yul\":20667:20847   */\n    tag_446:\n        /* \"#utility.yul\":20715:20792   */\n      0x4e487b7100000000000000000000000000000000000000000000000000000000\n        /* \"#utility.yul\":20712:20713   */\n      0x00\n        /* \"#utility.yul\":20705:20793   */\n      mstore\n        /* \"#utility.yul\":20812:20816   */\n      0x11\n        /* \"#utility.yul\":20809:20810   */\n      0x04\n        /* \"#utility.yul\":20802:20817   */\n      mstore\n        /* \"#utility.yul\":20836:20840   */\n      0x24\n        /* \"#utility.yul\":20833:20834   */\n      0x00\n        /* \"#utility.yul\":20826:20841   */\n      revert\n        /* \"#utility.yul\":20853:21033   */\n    tag_468:\n        /* \"#utility.yul\":20901:20978   */\n      0x4e487b7100000000000000000000000000000000000000000000000000000000\n        /* \"#utility.yul\":20898:20899   */\n      0x00\n        /* \"#utility.yul\":20891:20979   */\n      mstore\n        /* \"#utility.yul\":20998:21002   */\n      0x22\n        /* \"#utility.yul\":20995:20996   */\n      0x04\n        /* \"#utility.yul\":20988:21003   */\n      mstore\n        /* \"#utility.yul\":21022:21026   */\n      0x24\n        /* \"#utility.yul\":21019:21020   */\n      0x00\n        /* \"#utility.yul\":21012:21027   */\n      revert\n        /* \"#utility.yul\":21039:21219   */\n    tag_96:\n        /* \"#utility.yul\":21087:21164   */\n      0x4e487b7100000000000000000000000000000000000000000000000000000000\n        /* \"#utility.yul\":21084:21085   */\n      0x00\n        /* \"#utility.yul\":21077:21165   */\n      mstore\n        /* \"#utility.yul\":21184:21188   */\n      0x32\n        /* \"#utility.yul\":21181:21182   */\n      0x04\n        /* \"#utility.yul\":21174:21189   */\n      mstore\n        /* \"#utility.yul\":21208:21212   */\n      0x24\n        /* \"#utility.yul\":21205:21206   */\n      0x00\n        /* \"#utility.yul\":21198:21213   */\n      revert\n        /* \"#utility.yul\":21225:21405   */\n    tag_134:\n        /* \"#utility.yul\":21273:21350   */\n      0x4e487b7100000000000000000000000000000000000000000000000000000000\n        /* \"#utility.yul\":21270:21271   */\n      0x00\n        /* \"#utility.yul\":21263:21351   */\n      mstore\n        /* \"#utility.yul\":21370:21374   */\n      0x41\n        /* \"#utility.yul\":21367:21368   */\n      0x04\n        /* \"#utility.yul\":21360:21375   */\n      mstore\n        /* \"#utility.yul\":21394:21398   */\n      0x24\n        /* \"#utility.yul\":21391:21392   */\n      0x00\n        /* \"#utility.yul\":21384:21399   */\n      revert\n        /* \"#utility.yul\":21411:21528   */\n    tag_255:\n        /* \"#utility.yul\":21520:21521   */\n      0x00\n        /* \"#utility.yul\":21517:21518   */\n      dup1\n        /* \"#utility.yul\":21510:21522   */\n      revert\n        /* \"#utility.yul\":21534:21651   */\n    tag_244:\n        /* \"#utility.yul\":21643:21644   */\n      0x00\n        /* \"#utility.yul\":21640:21641   */\n      dup1\n        /* \"#utility.yul\":21633:21645   */\n      revert\n        /* \"#utility.yul\":21657:21774   */\n    tag_271:\n        /* \"#utility.yul\":21766:21767   */\n      0x00\n        /* \"#utility.yul\":21763:21764   */\n      dup1\n        /* \"#utility.yul\":21756:21768   */\n      revert\n        /* \"#utility.yul\":21780:21897   */\n    tag_264:\n        /* \"#utility.yul\":21889:21890   */\n      0x00\n        /* \"#utility.yul\":21886:21887   */\n      dup1\n        /* \"#utility.yul\":21879:21891   */\n      revert\n        /* \"#utility.yul\":21903:22005   */\n    tag_307:\n        /* \"#utility.yul\":21944:21950   */\n      0x00\n        /* \"#utility.yul\":21995:21997   */\n      0x1f\n        /* \"#utility.yul\":21991:21998   */\n      not\n        /* \"#utility.yul\":21986:21988   */\n      0x1f\n        /* \"#utility.yul\":21979:21984   */\n      dup4\n        /* \"#utility.yul\":21975:21989   */\n      add\n        /* \"#utility.yul\":21971:21999   */\n      and\n        /* \"#utility.yul\":21961:21999   */\n      swap1\n      pop\n        /* \"#utility.yul\":21903:22005   */\n      swap2\n      swap1\n      pop\n      jump\t// out\n        /* \"#utility.yul\":22011:22243   */\n    tag_312:\n        /* \"#utility.yul\":22151:22185   */\n      0x4f6e6c79206f7267616e697a657220697320616c6c6f776420746f2073746172\n        /* \"#utility.yul\":22147:22148   */\n      0x00\n        /* \"#utility.yul\":22139:22145   */\n      dup3\n        /* \"#utility.yul\":22135:22149   */\n      add\n        /* \"#utility.yul\":22128:22186   */\n      mstore\n        /* \"#utility.yul\":22220:22235   */\n      0x742074686520766f74696e672e00000000000000000000000000000000000000\n        /* \"#utility.yul\":22215:22217   */\n      0x20\n        /* \"#utility.yul\":22207:22213   */\n      dup3\n        /* \"#utility.yul\":22203:22218   */\n      add\n        /* \"#utility.yul\":22196:22236   */\n      mstore\n        /* \"#utility.yul\":22011:22243   */\n      pop\n      jump\t// out\n        /* \"#utility.yul\":22249:22431   */\n    tag_317:\n        /* \"#utility.yul\":22389:22423   */\n      0x54696d652069732075702120596f752063616e6e6f7420766f7465206e6f772e\n        /* \"#utility.yul\":22385:22386   */\n      0x00\n        /* \"#utility.yul\":22377:22383   */\n      dup3\n        /* \"#utility.yul\":22373:22387   */\n      add\n        /* \"#utility.yul\":22366:22424   */\n      mstore\n        /* \"#utility.yul\":22249:22431   */\n      pop\n      jump\t// out\n        /* \"#utility.yul\":22437:22617   */\n    tag_322:\n        /* \"#utility.yul\":22577:22609   */\n      0x4f6e6c79206f7267616e697a65722063616e2061646420766f746572732e0000\n        /* \"#utility.yul\":22573:22574   */\n      0x00\n        /* \"#utility.yul\":22565:22571   */\n      dup3\n        /* \"#utility.yul\":22561:22575   */\n      add\n        /* \"#utility.yul\":22554:22610   */\n      mstore\n        /* \"#utility.yul\":22437:22617   */\n      pop\n      jump\t// out\n        /* \"#utility.yul\":22623:22801   */\n    tag_327:\n        /* \"#utility.yul\":22763:22793   */\n      0x596f757220766f74696e6720697320616c726561647920646f6e652e00000000\n        /* \"#utility.yul\":22759:22760   */\n      0x00\n        /* \"#utility.yul\":22751:22757   */\n      dup3\n        /* \"#utility.yul\":22747:22761   */\n      add\n        /* \"#utility.yul\":22740:22794   */\n      mstore\n        /* \"#utility.yul\":22623:22801   */\n      pop\n      jump\t// out\n        /* \"#utility.yul\":22807:23044   */\n    tag_332:\n        /* \"#utility.yul\":22947:22981   */\n      0x54686973206164647265737320697320616c726561647920617574686f72697a\n        /* \"#utility.yul\":22943:22944   */\n      0x00\n        /* \"#utility.yul\":22935:22941   */\n      dup3\n        /* \"#utility.yul\":22931:22945   */\n      add\n        /* \"#utility.yul\":22924:22982   */\n      mstore\n        /* \"#utility.yul\":23016:23036   */\n      0x656420746f2067697665206120766f74652e0000000000000000000000000000\n        /* \"#utility.yul\":23011:23013   */\n      0x20\n        /* \"#utility.yul\":23003:23009   */\n      dup3\n        /* \"#utility.yul\":22999:23014   */\n      add\n        /* \"#utility.yul\":22992:23037   */\n      mstore\n        /* \"#utility.yul\":22807:23044   */\n      pop\n      jump\t// out\n        /* \"#utility.yul\":23050:23275   */\n    tag_337:\n        /* \"#utility.yul\":23190:23224   */\n      0x596f7520617265206e6f7420617574686f72697a656420746f20676976652061\n        /* \"#utility.yul\":23186:23187   */\n      0x00\n        /* \"#utility.yul\":23178:23184   */\n      dup3\n        /* \"#utility.yul\":23174:23188   */\n      add\n        /* \"#utility.yul\":23167:23225   */\n      mstore\n        /* \"#utility.yul\":23259:23267   */\n      0x20766f74652e0000000000000000000000000000000000000000000000000000\n        /* \"#utility.yul\":23254:23256   */\n      0x20\n        /* \"#utility.yul\":23246:23252   */\n      dup3\n        /* \"#utility.yul\":23242:23257   */\n      add\n        /* \"#utility.yul\":23235:23268   */\n      mstore\n        /* \"#utility.yul\":23050:23275   */\n      pop\n      jump\t// out\n        /* \"#utility.yul\":23281:23511   */\n    tag_342:\n        /* \"#utility.yul\":23421:23455   */\n      0x4f6e6c79206f7267616e697a657220697320616c6c6f776420746f2061646420\n        /* \"#utility.yul\":23417:23418   */\n      0x00\n        /* \"#utility.yul\":23409:23415   */\n      dup3\n        /* \"#utility.yul\":23405:23419   */\n      add\n        /* \"#utility.yul\":23398:23456   */\n      mstore\n        /* \"#utility.yul\":23490:23503   */\n      0x63616e646964617465732e000000000000000000000000000000000000000000\n        /* \"#utility.yul\":23485:23487   */\n      0x20\n        /* \"#utility.yul\":23477:23483   */\n      dup3\n        /* \"#utility.yul\":23473:23488   */\n      add\n        /* \"#utility.yul\":23466:23504   */\n      mstore\n        /* \"#utility.yul\":23281:23511   */\n      pop\n      jump\t// out\n        /* \"#utility.yul\":23517:23699   */\n    tag_347:\n        /* \"#utility.yul\":23657:23691   */\n      0x546869732063616e64696461746520697320616c72656164792061646465642e\n        /* \"#utility.yul\":23653:23654   */\n      0x00\n        /* \"#utility.yul\":23645:23651   */\n      dup3\n        /* \"#utility.yul\":23641:23655   */\n      add\n        /* \"#utility.yul\":23634:23692   */\n      mstore\n        /* \"#utility.yul\":23517:23699   */\n      pop\n      jump\t// out\n        /* \"#utility.yul\":23705:23930   */\n    tag_352:\n        /* \"#utility.yul\":23845:23879   */\n      0x596f752063616e6e6f7420616464206120766f7465722061742074686973206d\n        /* \"#utility.yul\":23841:23842   */\n      0x00\n        /* \"#utility.yul\":23833:23839   */\n      dup3\n        /* \"#utility.yul\":23829:23843   */\n      add\n        /* \"#utility.yul\":23822:23880   */\n      mstore\n        /* \"#utility.yul\":23914:23922   */\n      0x6f6d656e742e0000000000000000000000000000000000000000000000000000\n        /* \"#utility.yul\":23909:23911   */\n      0x20\n        /* \"#utility.yul\":23901:23907   */\n      dup3\n        /* \"#utility.yul\":23897:23912   */\n      add\n        /* \"#utility.yul\":23890:23923   */\n      mstore\n        /* \"#utility.yul\":23705:23930   */\n      pop\n      jump\t// out\n        /* \"#utility.yul\":23936:24160   */\n    tag_357:\n        /* \"#utility.yul\":24076:24110   */\n      0x526573756c742063616e206265207365656e20616674657220766f74696e6720\n        /* \"#utility.yul\":24072:24073   */\n      0x00\n        /* \"#utility.yul\":24064:24070   */\n      dup3\n        /* \"#utility.yul\":24060:24074   */\n      add\n        /* \"#utility.yul\":24053:24111   */\n      mstore\n        /* \"#utility.yul\":24145:24152   */\n      0x656e64732e000000000000000000000000000000000000000000000000000000\n        /* \"#utility.yul\":24140:24142   */\n      0x20\n        /* \"#utility.yul\":24132:24138   */\n      dup3\n        /* \"#utility.yul\":24128:24143   */\n      add\n        /* \"#utility.yul\":24121:24153   */\n      mstore\n        /* \"#utility.yul\":23936:24160   */\n      pop\n      jump\t// out\n        /* \"#utility.yul\":24166:24395   */\n    tag_362:\n        /* \"#utility.yul\":24306:24340   */\n      0x596f752063616e6e6f742061646420612063616e646964617465206174207468\n        /* \"#utility.yul\":24302:24303   */\n      0x00\n        /* \"#utility.yul\":24294:24300   */\n      dup3\n        /* \"#utility.yul\":24290:24304   */\n      add\n        /* \"#utility.yul\":24283:24341   */\n      mstore\n        /* \"#utility.yul\":24375:24387   */\n      0x6973206d6f6d656e742e00000000000000000000000000000000000000000000\n        /* \"#utility.yul\":24370:24372   */\n      0x20\n        /* \"#utility.yul\":24362:24368   */\n      dup3\n        /* \"#utility.yul\":24358:24373   */\n      add\n        /* \"#utility.yul\":24351:24388   */\n      mstore\n        /* \"#utility.yul\":24166:24395   */\n      pop\n      jump\t// out\n        /* \"#utility.yul\":24401:24626   */\n    tag_367:\n        /* \"#utility.yul\":24541:24575   */\n      0x506c6561736520656e74657220612076616c69642063616e646964617465206e\n        /* \"#utility.yul\":24537:24538   */\n      0x00\n        /* \"#utility.yul\":24529:24535   */\n      dup3\n        /* \"#utility.yul\":24525:24539   */\n      add\n        /* \"#utility.yul\":24518:24576   */\n      mstore\n        /* \"#utility.yul\":24610:24618   */\n      0x756d6265722e0000000000000000000000000000000000000000000000000000\n        /* \"#utility.yul\":24605:24607   */\n      0x20\n        /* \"#utility.yul\":24597:24603   */\n      dup3\n        /* \"#utility.yul\":24593:24608   */\n      add\n        /* \"#utility.yul\":24586:24619   */\n      mstore\n        /* \"#utility.yul\":24401:24626   */\n      pop\n      jump\t// out\n        /* \"#utility.yul\":24632:24873   */\n    tag_372:\n        /* \"#utility.yul\":24772:24806   */\n      0x456c656374696f6e2069732072756e6e696e672e20526573756c742063616e20\n        /* \"#utility.yul\":24768:24769   */\n      0x00\n        /* \"#utility.yul\":24760:24766   */\n      dup3\n        /* \"#utility.yul\":24756:24770   */\n      add\n        /* \"#utility.yul\":24749:24807   */\n      mstore\n        /* \"#utility.yul\":24841:24865   */\n      0x6265207365656e20616674657220697420656e64732100000000000000000000\n        /* \"#utility.yul\":24836:24838   */\n      0x20\n        /* \"#utility.yul\":24828:24834   */\n      dup3\n        /* \"#utility.yul\":24824:24839   */\n      add\n        /* \"#utility.yul\":24817:24866   */\n      mstore\n        /* \"#utility.yul\":24632:24873   */\n      pop\n      jump\t// out\n        /* \"#utility.yul\":24879:25061   */\n    tag_377:\n        /* \"#utility.yul\":25019:25053   */\n      0x566f74696e6720686173206e6f74206265656e20737461727465642079657421\n        /* \"#utility.yul\":25015:25016   */\n      0x00\n        /* \"#utility.yul\":25007:25013   */\n      dup3\n        /* \"#utility.yul\":25003:25017   */\n      add\n        /* \"#utility.yul\":24996:25054   */\n      mstore\n        /* \"#utility.yul\":24879:25061   */\n      pop\n      jump\t// out\n        /* \"#utility.yul\":25067:25189   */\n    tag_250:\n        /* \"#utility.yul\":25140:25164   */\n      tag_501\n        /* \"#utility.yul\":25158:25163   */\n      dup2\n        /* \"#utility.yul\":25140:25164   */\n      tag_280\n      jump\t// in\n    tag_501:\n        /* \"#utility.yul\":25133:25138   */\n      dup2\n        /* \"#utility.yul\":25130:25165   */\n      eq\n        /* \"#utility.yul\":25120:25183   */\n      tag_502\n      jumpi\n        /* \"#utility.yul\":25179:25180   */\n      0x00\n        /* \"#utility.yul\":25176:25177   */\n      dup1\n        /* \"#utility.yul\":25169:25181   */\n      revert\n        /* \"#utility.yul\":25120:25183   */\n    tag_502:\n        /* \"#utility.yul\":25067:25189   */\n      pop\n      jump\t// out\n        /* \"#utility.yul\":25195:25317   */\n    tag_260:\n        /* \"#utility.yul\":25268:25292   */\n      tag_504\n        /* \"#utility.yul\":25286:25291   */\n      dup2\n        /* \"#utility.yul\":25268:25292   */\n      tag_381\n      jump\t// in\n    tag_504:\n        /* \"#utility.yul\":25261:25266   */\n      dup2\n        /* \"#utility.yul\":25258:25293   */\n      eq\n        /* \"#utility.yul\":25248:25311   */\n      tag_505\n      jumpi\n        /* \"#utility.yul\":25307:25308   */\n      0x00\n        /* \"#utility.yul\":25304:25305   */\n      dup1\n        /* \"#utility.yul\":25297:25309   */\n      revert\n        /* \"#utility.yul\":25248:25311   */\n    tag_505:\n        /* \"#utility.yul\":25195:25317   */\n      pop\n      jump\t// out\n\n    auxdata: 0xa26469706673582212204a36b17dde482b334b63d45feacb4bf54f1409593a57d1e3046e133e6432cff464736f6c63430008070033\n}\n",
				"bytecode": {
					"linkReferences": {},
					"object": "60806040523480156200001157600080fd5b50604051620024d7380380620024d78339818101604052810190620000379190620001c5565b336000806101000a81548173ffffffffffffffffffffffffffffffffffffffff021916908373ffffffffffffffffffffffffffffffffffffffff16021790555080600190805190602001906200008f92919062000097565b50506200039a565b828054620000a590620002ab565b90600052602060002090601f016020900481019282620000c9576000855562000115565b82601f10620000e457805160ff191683800117855562000115565b8280016001018555821562000115579182015b8281111562000114578251825591602001919060010190620000f7565b5b50905062000124919062000128565b5090565b5b808211156200014357600081600090555060010162000129565b5090565b60006200015e62000158846200023f565b62000216565b9050828152602081018484840111156200017d576200017c6200037a565b5b6200018a84828562000275565b509392505050565b600082601f830112620001aa57620001a962000375565b5b8151620001bc84826020860162000147565b91505092915050565b600060208284031215620001de57620001dd62000384565b5b600082015167ffffffffffffffff811115620001ff57620001fe6200037f565b5b6200020d8482850162000192565b91505092915050565b60006200022262000235565b9050620002308282620002e1565b919050565b6000604051905090565b600067ffffffffffffffff8211156200025d576200025c62000346565b5b620002688262000389565b9050602081019050919050565b60005b838110156200029557808201518184015260208101905062000278565b83811115620002a5576000848401525b50505050565b60006002820490506001821680620002c457607f821691505b60208210811415620002db57620002da62000317565b5b50919050565b620002ec8262000389565b810181811067ffffffffffffffff821117156200030e576200030d62000346565b5b80604052505050565b7f4e487b7100000000000000000000000000000000000000000000000000000000600052602260045260246000fd5b7f4e487b7100000000000000000000000000000000000000000000000000000000600052604160045260246000fd5b600080fd5b600080fd5b600080fd5b600080fd5b6000601f19601f8301169050919050565b61212d80620003aa6000396000f3fe608060405234801561001057600080fd5b50600436106100f55760003560e01c80635a7cd37311610097578063aa4fdefb11610066578063aa4fdefb14610275578063ce05c1fa1461027f578063d32bb1c91461029d578063e2ba53f0146102bb576100f5565b80635a7cd373146101ed57806387ee6d5b1461020957806395805dad14610227578063a3ec138d14610243576100f5565b80633477ee2e116100d35780633477ee2e146101645780633c4101fb14610195578063462e91ec146101b3578063544736e6146101cf576100f5565b80630121b93f146100fa5780631af10679146101165780633197cbb614610146575b600080fd5b610114600480360381019061010f919061142f565b6102d9565b005b610130600480360381019061012b919061142f565b6106be565b60405161013d9190611742565b60405180910390f35b61014e6106fd565b60405161015b91906119c1565b60405180910390f35b61017e6004803603810190610179919061142f565b610703565b60405161018c9291906117d1565b60405180910390f35b61019d6107bf565b6040516101aa9190611742565b60405180910390f35b6101cd60048036038101906101c891906113e6565b6107e3565b005b6101d7610a60565b6040516101e4919061175d565b60405180910390f35b610207600480360381019061020291906113b9565b610a73565b005b610211610c4b565b60405161021e91906119c1565b60405180910390f35b610241600480360381019061023c919061142f565b610c58565b005b61025d600480360381019061025891906113b9565b610d22565b60405161026c93929190611778565b60405180910390f35b61027d610d66565b005b61028761103c565b60405161029491906117af565b60405180910390f35b6102a56110ca565b6040516102b291906119c1565b60405180910390f35b6102c36110d7565b6040516102d091906117af565b60405180910390f35b60011515600760003373ffffffffffffffffffffffffffffffffffffffff1673ffffffffffffffffffffffffffffffffffffffff16815260200190815260200160002060000160019054906101000a900460ff1615151461036f576040517f08c379a0000000000000000000000000000000000000000000000000000000008152600401610366906118a1565b60405180910390fd5b60035442106103b3576040517f08c379a00000000000000000000000000000000000000000000000000000000081526004016103aa90611821565b60405180910390fd5b60011515600460009054906101000a900460ff16151514610409576040517f08c379a0000000000000000000000000000000000000000000000000000000008152600401610400906119a1565b60405180910390fd5b60001515600760003373ffffffffffffffffffffffffffffffffffffffff1673ffffffffffffffffffffffffffffffffffffffff16815260200190815260200160002060000160009054906101000a900460ff1615151461049f576040517f08c379a000000000000000000000000000000000000000000000000000000000815260040161049690611861565b60405180910390fd5b6104a76110ca565b81106104e8576040517f08c379a00000000000000000000000000000000000000000000000000000000081526004016104df90611961565b60405180910390fd5b80600760003373ffffffffffffffffffffffffffffffffffffffff1673ffffffffffffffffffffffffffffffffffffffff168152602001908152602001600020600101819055506001600760003373ffffffffffffffffffffffffffffffffffffffff1673ffffffffffffffffffffffffffffffffffffffff16815260200190815260200160002060000160006101000a81548160ff0219169083151502179055506000600760003373ffffffffffffffffffffffffffffffffffffffff1673ffffffffffffffffffffffffffffffffffffffff168152602001908152602001600020600101549050600681815481106105e5576105e4611cb2565b5b9060005260206000209060030201600201339080600181540180825580915050600190039060005260206000200160009091909190916101000a81548173ffffffffffffffffffffffffffffffffffffffff021916908373ffffffffffffffffffffffffffffffffffffffff1602179055506005339080600181540180825580915050600190039060005260206000200160009091909190916101000a81548173ffffffffffffffffffffffffffffffffffffffff021916908373ffffffffffffffffffffffffffffffffffffffff1602179055505050565b600581815481106106ce57600080fd5b906000526020600020016000915054906101000a900473ffffffffffffffffffffffffffffffffffffffff1681565b60035481565b6006818154811061071357600080fd5b906000526020600020906003020160009150905080600001805461073690611ba8565b80601f016020809104026020016040519081016040528092919081815260200182805461076290611ba8565b80156107af5780601f10610784576101008083540402835291602001916107af565b820191906000526020600020905b81548152906001019060200180831161079257829003601f168201915b5050505050908060010154905082565b60008054906101000a900473ffffffffffffffffffffffffffffffffffffffff1681565b60008054906101000a900473ffffffffffffffffffffffffffffffffffffffff1673ffffffffffffffffffffffffffffffffffffffff163373ffffffffffffffffffffffffffffffffffffffff1614610871576040517f08c379a0000000000000000000000000000000000000000000000000000000008152600401610868906118c1565b60405180910390fd5b60001515600460009054906101000a900460ff161515146108c7576040517f08c379a00000000000000000000000000000000000000000000000000000000081526004016108be90611941565b60405180910390fd5b6000805b6108d36110ca565b81101561093e578280519060200120600682815481106108f6576108f5611cb2565b5b9060005260206000209060030201600001604051610914919061172b565b6040518091039020141561092b576001915061093e565b808061093690611c0b565b9150506108cb565b506000151581151514610986576040517f08c379a000000000000000000000000000000000000000000000000000000000815260040161097d906118e1565b60405180910390fd5b6006604051806060016040528084815260200160008152602001600067ffffffffffffffff8111156109bb576109ba611ce1565b5b6040519080825280602002602001820160405280156109e95781602001602082028036833780820191505090505b5081525090806001815401808255809150506001900390600052602060002090600302016000909190919091506000820151816000019080519060200190610a32929190611165565b50602082015181600101556040820151816002019080519060200190610a599291906111eb565b5050505050565b600460009054906101000a900460ff1681565b60008054906101000a900473ffffffffffffffffffffffffffffffffffffffff1673ffffffffffffffffffffffffffffffffffffffff163373ffffffffffffffffffffffffffffffffffffffff1614610b01576040517f08c379a0000000000000000000000000000000000000000000000000000000008152600401610af890611841565b60405180910390fd5b60001515600460009054906101000a900460ff16151514610b57576040517f08c379a0000000000000000000000000000000000000000000000000000000008152600401610b4e90611901565b60405180910390fd5b60001515600760008373ffffffffffffffffffffffffffffffffffffffff1673ffffffffffffffffffffffffffffffffffffffff16815260200190815260200160002060000160019054906101000a900460ff16151514610bed576040517f08c379a0000000000000000000000000000000000000000000000000000000008152600401610be490611881565b60405180910390fd5b6001600760008373ffffffffffffffffffffffffffffffffffffffff1673ffffffffffffffffffffffffffffffffffffffff16815260200190815260200160002060000160016101000a81548160ff02191690831515021790555050565b6000600580549050905090565b60008054906101000a900473ffffffffffffffffffffffffffffffffffffffff1673ffffffffffffffffffffffffffffffffffffffff163373ffffffffffffffffffffffffffffffffffffffff1614610ce6576040517f08c379a0000000000000000000000000000000000000000000000000000000008152600401610cdd90611801565b60405180910390fd5b603c81610cf39190611ac4565b42610cfe9190611a6e565b6003819055506001600460006101000a81548160ff02191690831515021790555050565b60076020528060005260406000206000915090508060000160009054906101000a900460ff16908060000160019054906101000a900460ff16908060010154905083565b60011515600460009054906101000a900460ff16151514610dbc576040517f08c379a0000000000000000000000000000000000000000000000000000000008152600401610db390611921565b60405180910390fd5b6003544211610e00576040517f08c379a0000000000000000000000000000000000000000000000000000000008152600401610df790611981565b60405180910390fd5b6000610e0a610c4b565b905060005b81811015610ef157600060058281548110610e2d57610e2c611cb2565b5b9060005260206000200160009054906101000a900473ffffffffffffffffffffffffffffffffffffffff1690506000600760008373ffffffffffffffffffffffffffffffffffffffff1673ffffffffffffffffffffffffffffffffffffffff16815260200190815260200160002060010154905060068181548110610eb557610eb4611cb2565b5b90600052602060002090600302016001016000815480929190610ed790611c0b565b919050555050508080610ee990611c0b565b915050610e0f565b5060008080610efe6110ca565b905060005b81811015611035578360068281548110610f2057610f1f611cb2565b5b9060005260206000209060030201600101541115610fa75760068181548110610f4c57610f4b611cb2565b5b906000526020600020906003020160010154935080925060068381548110610f7757610f76611cb2565b5b90600052602060002090600302016000016002908054610f9690611ba8565b610fa1929190611275565b50611022565b8360068281548110610fbc57610fbb611cb2565b5b9060005260206000209060030201600101541415611021576040518060400160405280600f81526020017f54686572652069732061207469652e00000000000000000000000000000000008152506002908051906020019061101f929190611165565b505b5b808061102d90611c0b565b915050610f03565b5050505050565b6001805461104990611ba8565b80601f016020809104026020016040519081016040528092919081815260200182805461107590611ba8565b80156110c25780601f10611097576101008083540402835291602001916110c2565b820191906000526020600020905b8154815290600101906020018083116110a557829003601f168201915b505050505081565b6000600680549050905090565b600280546110e490611ba8565b80601f016020809104026020016040519081016040528092919081815260200182805461111090611ba8565b801561115d5780601f106111325761010080835404028352916020019161115d565b820191906000526020600020905b81548152906001019060200180831161114057829003601f168201915b505050505081565b82805461117190611ba8565b90600052602060002090601f01602090048101928261119357600085556111da565b82601f106111ac57805160ff19168380011785556111da565b828001600101855582156111da579182015b828111156111d95782518255916020019190600101906111be565b5b5090506111e79190611302565b5090565b828054828255906000526020600020908101928215611264579160200282015b828111156112635782518260006101000a81548173ffffffffffffffffffffffffffffffffffffffff021916908373ffffffffffffffffffffffffffffffffffffffff1602179055509160200191906001019061120b565b5b5090506112719190611302565b5090565b82805461128190611ba8565b90600052602060002090601f0160209004810192826112a357600085556112f1565b82601f106112b457805485556112f1565b828001600101855582156112f157600052602060002091601f016020900482015b828111156112f05782548255916001019190600101906112d5565b5b5090506112fe9190611302565b5090565b5b8082111561131b576000816000905550600101611303565b5090565b600061133261132d84611a01565b6119dc565b90508281526020810184848401111561134e5761134d611d15565b5b611359848285611b66565b509392505050565b600081359050611370816120c9565b92915050565b600082601f83011261138b5761138a611d10565b5b813561139b84826020860161131f565b91505092915050565b6000813590506113b3816120e0565b92915050565b6000602082840312156113cf576113ce611d1f565b5b60006113dd84828501611361565b91505092915050565b6000602082840312156113fc576113fb611d1f565b5b600082013567ffffffffffffffff81111561141a57611419611d1a565b5b61142684828501611376565b91505092915050565b60006020828403121561144557611444611d1f565b5b6000611453848285016113a4565b91505092915050565b61146581611b1e565b82525050565b61147481611b30565b82525050565b6000815461148781611ba8565b6114918186611a52565b945060018216600081146114ac57600181146114bd576114f0565b60ff198316865281860193506114f0565b6114c685611a32565b60005b838110156114e8578154818901526001820191506020810190506114c9565b838801955050505b50505092915050565b600061150482611a47565b61150e8185611a5d565b935061151e818560208601611b75565b61152781611d24565b840191505092915050565b600061153f602d83611a5d565b915061154a82611d35565b604082019050919050565b6000611562602083611a5d565b915061156d82611d84565b602082019050919050565b6000611585601e83611a5d565b915061159082611dad565b602082019050919050565b60006115a8601c83611a5d565b91506115b382611dd6565b602082019050919050565b60006115cb603283611a5d565b91506115d682611dff565b604082019050919050565b60006115ee602683611a5d565b91506115f982611e4e565b604082019050919050565b6000611611602b83611a5d565b915061161c82611e9d565b604082019050919050565b6000611634602083611a5d565b915061163f82611eec565b602082019050919050565b6000611657602683611a5d565b915061166282611f15565b604082019050919050565b600061167a602583611a5d565b915061168582611f64565b604082019050919050565b600061169d602a83611a5d565b91506116a882611fb3565b604082019050919050565b60006116c0602683611a5d565b91506116cb82612002565b604082019050919050565b60006116e3603683611a5d565b91506116ee82612051565b604082019050919050565b6000611706602083611a5d565b9150611711826120a0565b602082019050919050565b61172581611b5c565b82525050565b6000611737828461147a565b915081905092915050565b6000602082019050611757600083018461145c565b92915050565b6000602082019050611772600083018461146b565b92915050565b600060608201905061178d600083018661146b565b61179a602083018561146b565b6117a7604083018461171c565b949350505050565b600060208201905081810360008301526117c981846114f9565b905092915050565b600060408201905081810360008301526117eb81856114f9565b90506117fa602083018461171c565b9392505050565b6000602082019050818103600083015261181a81611532565b9050919050565b6000602082019050818103600083015261183a81611555565b9050919050565b6000602082019050818103600083015261185a81611578565b9050919050565b6000602082019050818103600083015261187a8161159b565b9050919050565b6000602082019050818103600083015261189a816115be565b9050919050565b600060208201905081810360008301526118ba816115e1565b9050919050565b600060208201905081810360008301526118da81611604565b9050919050565b600060208201905081810360008301526118fa81611627565b9050919050565b6000602082019050818103600083015261191a8161164a565b9050919050565b6000602082019050818103600083015261193a8161166d565b9050919050565b6000602082019050818103600083015261195a81611690565b9050919050565b6000602082019050818103600083015261197a816116b3565b9050919050565b6000602082019050818103600083015261199a816116d6565b9050919050565b600060208201905081810360008301526119ba816116f9565b9050919050565b60006020820190506119d6600083018461171c565b92915050565b60006119e66119f7565b90506119f28282611bda565b919050565b6000604051905090565b600067ffffffffffffffff821115611a1c57611a1b611ce1565b5b611a2582611d24565b9050602081019050919050565b60008190508160005260206000209050919050565b600081519050919050565b600081905092915050565b600082825260208201905092915050565b6000611a7982611b5c565b9150611a8483611b5c565b9250827fffffffffffffffffffffffffffffffffffffffffffffffffffffffffffffffff03821115611ab957611ab8611c54565b5b828201905092915050565b6000611acf82611b5c565b9150611ada83611b5c565b9250817fffffffffffffffffffffffffffffffffffffffffffffffffffffffffffffffff0483118215151615611b1357611b12611c54565b5b828202905092915050565b6000611b2982611b3c565b9050919050565b60008115159050919050565b600073ffffffffffffffffffffffffffffffffffffffff82169050919050565b6000819050919050565b82818337600083830152505050565b60005b83811015611b93578082015181840152602081019050611b78565b83811115611ba2576000848401525b50505050565b60006002820490506001821680611bc057607f821691505b60208210811415611bd457611bd3611c83565b5b50919050565b611be382611d24565b810181811067ffffffffffffffff82111715611c0257611c01611ce1565b5b80604052505050565b6000611c1682611b5c565b91507fffffffffffffffffffffffffffffffffffffffffffffffffffffffffffffffff821415611c4957611c48611c54565b5b600182019050919050565b7f4e487b7100000000000000000000000000000000000000000000000000000000600052601160045260246000fd5b7f4e487b7100000000000000000000000000000000000000000000000000000000600052602260045260246000fd5b7f4e487b7100000000000000000000000000000000000000000000000000000000600052603260045260246000fd5b7f4e487b7100000000000000000000000000000000000000000000000000000000600052604160045260246000fd5b600080fd5b600080fd5b600080fd5b600080fd5b6000601f19601f8301169050919050565b7f4f6e6c79206f7267616e697a657220697320616c6c6f776420746f207374617260008201527f742074686520766f74696e672e00000000000000000000000000000000000000602082015250565b7f54696d652069732075702120596f752063616e6e6f7420766f7465206e6f772e600082015250565b7f4f6e6c79206f7267616e697a65722063616e2061646420766f746572732e0000600082015250565b7f596f757220766f74696e6720697320616c726561647920646f6e652e00000000600082015250565b7f54686973206164647265737320697320616c726561647920617574686f72697a60008201527f656420746f2067697665206120766f74652e0000000000000000000000000000602082015250565b7f596f7520617265206e6f7420617574686f72697a656420746f2067697665206160008201527f20766f74652e0000000000000000000000000000000000000000000000000000602082015250565b7f4f6e6c79206f7267616e697a657220697320616c6c6f776420746f206164642060008201527f63616e646964617465732e000000000000000000000000000000000000000000602082015250565b7f546869732063616e64696461746520697320616c72656164792061646465642e600082015250565b7f596f752063616e6e6f7420616464206120766f7465722061742074686973206d60008201527f6f6d656e742e0000000000000000000000000000000000000000000000000000602082015250565b7f526573756c742063616e206265207365656e20616674657220766f74696e672060008201527f656e64732e000000000000000000000000000000000000000000000000000000602082015250565b7f596f752063616e6e6f742061646420612063616e64696461746520617420746860008201527f6973206d6f6d656e742e00000000000000000000000000000000000000000000602082015250565b7f506c6561736520656e74657220612076616c69642063616e646964617465206e60008201527f756d6265722e0000000000000000000000000000000000000000000000000000602082015250565b7f456c656374696f6e2069732072756e6e696e672e20526573756c742063616e2060008201527f6265207365656e20616674657220697420656e64732100000000000000000000602082015250565b7f566f74696e6720686173206e6f74206265656e20737461727465642079657421600082015250565b6120d281611b1e565b81146120dd57600080fd5b50565b6120e981611b5c565b81146120f457600080fd5b5056fea26469706673582212204a36b17dde482b334b63d45feacb4bf54f1409593a57d1e3046e133e6432cff464736f6c63430008070033",
					"opcodes": "PUSH1 0x80 PUSH1 0x40 MSTORE CALLVALUE DUP1 ISZERO PUSH3 0x11 JUMPI PUSH1 0x0 DUP1 REVERT JUMPDEST POP PUSH1 0x40 MLOAD PUSH3 0x24D7 CODESIZE SUB DUP1 PUSH3 0x24D7 DUP4 CODECOPY DUP2 DUP2 ADD PUSH1 0x40 MSTORE DUP2 ADD SWAP1 PUSH3 0x37 SWAP2 SWAP1 PUSH3 0x1C5 JUMP JUMPDEST CALLER PUSH1 0x0 DUP1 PUSH2 0x100 EXP DUP2 SLOAD DUP2 PUSH20 0xFFFFFFFFFFFFFFFFFFFFFFFFFFFFFFFFFFFFFFFF MUL NOT AND SWAP1 DUP4 PUSH20 0xFFFFFFFFFFFFFFFFFFFFFFFFFFFFFFFFFFFFFFFF AND MUL OR SWAP1 SSTORE POP DUP1 PUSH1 0x1 SWAP1 DUP1 MLOAD SWAP1 PUSH1 0x20 ADD SWAP1 PUSH3 0x8F SWAP3 SWAP2 SWAP1 PUSH3 0x97 JUMP JUMPDEST POP POP PUSH3 0x39A JUMP JUMPDEST DUP3 DUP1 SLOAD PUSH3 0xA5 SWAP1 PUSH3 0x2AB JUMP JUMPDEST SWAP1 PUSH1 0x0 MSTORE PUSH1 0x20 PUSH1 0x0 KECCAK256 SWAP1 PUSH1 0x1F ADD PUSH1 0x20 SWAP1 DIV DUP2 ADD SWAP3 DUP3 PUSH3 0xC9 JUMPI PUSH1 0x0 DUP6 SSTORE PUSH3 0x115 JUMP JUMPDEST DUP3 PUSH1 0x1F LT PUSH3 0xE4 JUMPI DUP1 MLOAD PUSH1 0xFF NOT AND DUP4 DUP1 ADD OR DUP6 SSTORE PUSH3 0x115 JUMP JUMPDEST DUP3 DUP1 ADD PUSH1 0x1 ADD DUP6 SSTORE DUP3 ISZERO PUSH3 0x115 JUMPI SWAP2 DUP3 ADD JUMPDEST DUP3 DUP2 GT ISZERO PUSH3 0x114 JUMPI DUP3 MLOAD DUP3 SSTORE SWAP2 PUSH1 0x20 ADD SWAP2 SWAP1 PUSH1 0x1 ADD SWAP1 PUSH3 0xF7 JUMP JUMPDEST JUMPDEST POP SWAP1 POP PUSH3 0x124 SWAP2 SWAP1 PUSH3 0x128 JUMP JUMPDEST POP SWAP1 JUMP JUMPDEST JUMPDEST DUP1 DUP3 GT ISZERO PUSH3 0x143 JUMPI PUSH1 0x0 DUP2 PUSH1 0x0 SWAP1 SSTORE POP PUSH1 0x1 ADD PUSH3 0x129 JUMP JUMPDEST POP SWAP1 JUMP JUMPDEST PUSH1 0x0 PUSH3 0x15E PUSH3 0x158 DUP5 PUSH3 0x23F JUMP JUMPDEST PUSH3 0x216 JUMP JUMPDEST SWAP1 POP DUP3 DUP2 MSTORE PUSH1 0x20 DUP2 ADD DUP5 DUP5 DUP5 ADD GT ISZERO PUSH3 0x17D JUMPI PUSH3 0x17C PUSH3 0x37A JUMP JUMPDEST JUMPDEST PUSH3 0x18A DUP5 DUP3 DUP6 PUSH3 0x275 JUMP JUMPDEST POP SWAP4 SWAP3 POP POP POP JUMP JUMPDEST PUSH1 0x0 DUP3 PUSH1 0x1F DUP4 ADD SLT PUSH3 0x1AA JUMPI PUSH3 0x1A9 PUSH3 0x375 JUMP JUMPDEST JUMPDEST DUP2 MLOAD PUSH3 0x1BC DUP5 DUP3 PUSH1 0x20 DUP7 ADD PUSH3 0x147 JUMP JUMPDEST SWAP2 POP POP SWAP3 SWAP2 POP POP JUMP JUMPDEST PUSH1 0x0 PUSH1 0x20 DUP3 DUP5 SUB SLT ISZERO PUSH3 0x1DE JUMPI PUSH3 0x1DD PUSH3 0x384 JUMP JUMPDEST JUMPDEST PUSH1 0x0 DUP3 ADD MLOAD PUSH8 0xFFFFFFFFFFFFFFFF DUP2 GT ISZERO PUSH3 0x1FF JUMPI PUSH3 0x1FE PUSH3 0x37F JUMP JUMPDEST JUMPDEST PUSH3 0x20D DUP5 DUP3 DUP6 ADD PUSH3 0x192 JUMP JUMPDEST SWAP2 POP POP SWAP3 SWAP2 POP POP JUMP JUMPDEST PUSH1 0x0 PUSH3 0x222 PUSH3 0x235 JUMP JUMPDEST SWAP1 POP PUSH3 0x230 DUP3 DUP3 PUSH3 0x2E1 JUMP JUMPDEST SWAP2 SWAP1 POP JUMP JUMPDEST PUSH1 0x0 PUSH1 0x40 MLOAD SWAP1 POP SWAP1 JUMP JUMPDEST PUSH1 0x0 PUSH8 0xFFFFFFFFFFFFFFFF DUP3 GT ISZERO PUSH3 0x25D JUMPI PUSH3 0x25C PUSH3 0x346 JUMP JUMPDEST JUMPDEST PUSH3 0x268 DUP3 PUSH3 0x389 JUMP JUMPDEST SWAP1 POP PUSH1 0x20 DUP2 ADD SWAP1 POP SWAP2 SWAP1 POP JUMP JUMPDEST PUSH1 0x0 JUMPDEST DUP4 DUP2 LT ISZERO PUSH3 0x295 JUMPI DUP1 DUP3 ADD MLOAD DUP2 DUP5 ADD MSTORE PUSH1 0x20 DUP2 ADD SWAP1 POP PUSH3 0x278 JUMP JUMPDEST DUP4 DUP2 GT ISZERO PUSH3 0x2A5 JUMPI PUSH1 0x0 DUP5 DUP5 ADD MSTORE JUMPDEST POP POP POP POP JUMP JUMPDEST PUSH1 0x0 PUSH1 0x2 DUP3 DIV SWAP1 POP PUSH1 0x1 DUP3 AND DUP1 PUSH3 0x2C4 JUMPI PUSH1 0x7F DUP3 AND SWAP2 POP JUMPDEST PUSH1 0x20 DUP3 LT DUP2 EQ ISZERO PUSH3 0x2DB JUMPI PUSH3 0x2DA PUSH3 0x317 JUMP JUMPDEST JUMPDEST POP SWAP2 SWAP1 POP JUMP JUMPDEST PUSH3 0x2EC DUP3 PUSH3 0x389 JUMP JUMPDEST DUP2 ADD DUP2 DUP2 LT PUSH8 0xFFFFFFFFFFFFFFFF DUP3 GT OR ISZERO PUSH3 0x30E JUMPI PUSH3 0x30D PUSH3 0x346 JUMP JUMPDEST JUMPDEST DUP1 PUSH1 0x40 MSTORE POP POP POP JUMP JUMPDEST PUSH32 0x4E487B7100000000000000000000000000000000000000000000000000000000 PUSH1 0x0 MSTORE PUSH1 0x22 PUSH1 0x4 MSTORE PUSH1 0x24 PUSH1 0x0 REVERT JUMPDEST PUSH32 0x4E487B7100000000000000000000000000000000000000000000000000000000 PUSH1 0x0 MSTORE PUSH1 0x41 PUSH1 0x4 MSTORE PUSH1 0x24 PUSH1 0x0 REVERT JUMPDEST PUSH1 0x0 DUP1 REVERT JUMPDEST PUSH1 0x0 DUP1 REVERT JUMPDEST PUSH1 0x0 DUP1 REVERT JUMPDEST PUSH1 0x0 DUP1 REVERT JUMPDEST PUSH1 0x0 PUSH1 0x1F NOT PUSH1 0x1F DUP4 ADD AND SWAP1 POP SWAP2 SWAP1 POP JUMP JUMPDEST PUSH2 0x212D DUP1 PUSH3 0x3AA PUSH1 0x0 CODECOPY PUSH1 0x0 RETURN INVALID PUSH1 0x80 PUSH1 0x40 MSTORE CALLVALUE DUP1 ISZERO PUSH2 0x10 JUMPI PUSH1 0x0 DUP1 REVERT JUMPDEST POP PUSH1 0x4 CALLDATASIZE LT PUSH2 0xF5 JUMPI PUSH1 0x0 CALLDATALOAD PUSH1 0xE0 SHR DUP1 PUSH4 0x5A7CD373 GT PUSH2 0x97 JUMPI DUP1 PUSH4 0xAA4FDEFB GT PUSH2 0x66 JUMPI DUP1 PUSH4 0xAA4FDEFB EQ PUSH2 0x275 JUMPI DUP1 PUSH4 0xCE05C1FA EQ PUSH2 0x27F JUMPI DUP1 PUSH4 0xD32BB1C9 EQ PUSH2 0x29D JUMPI DUP1 PUSH4 0xE2BA53F0 EQ PUSH2 0x2BB JUMPI PUSH2 0xF5 JUMP JUMPDEST DUP1 PUSH4 0x5A7CD373 EQ PUSH2 0x1ED JUMPI DUP1 PUSH4 0x87EE6D5B EQ PUSH2 0x209 JUMPI DUP1 PUSH4 0x95805DAD EQ PUSH2 0x227 JUMPI DUP1 PUSH4 0xA3EC138D EQ PUSH2 0x243 JUMPI PUSH2 0xF5 JUMP JUMPDEST DUP1 PUSH4 0x3477EE2E GT PUSH2 0xD3 JUMPI DUP1 PUSH4 0x3477EE2E EQ PUSH2 0x164 JUMPI DUP1 PUSH4 0x3C4101FB EQ PUSH2 0x195 JUMPI DUP1 PUSH4 0x462E91EC EQ PUSH2 0x1B3 JUMPI DUP1 PUSH4 0x544736E6 EQ PUSH2 0x1CF JUMPI PUSH2 0xF5 JUMP JUMPDEST DUP1 PUSH4 0x121B93F EQ PUSH2 0xFA JUMPI DUP1 PUSH4 0x1AF10679 EQ PUSH2 0x116 JUMPI DUP1 PUSH4 0x3197CBB6 EQ PUSH2 0x146 JUMPI JUMPDEST PUSH1 0x0 DUP1 REVERT JUMPDEST PUSH2 0x114 PUSH1 0x4 DUP1 CALLDATASIZE SUB DUP2 ADD SWAP1 PUSH2 0x10F SWAP2 SWAP1 PUSH2 0x142F JUMP JUMPDEST PUSH2 0x2D9 JUMP JUMPDEST STOP JUMPDEST PUSH2 0x130 PUSH1 0x4 DUP1 CALLDATASIZE SUB DUP2 ADD SWAP1 PUSH2 0x12B SWAP2 SWAP1 PUSH2 0x142F JUMP JUMPDEST PUSH2 0x6BE JUMP JUMPDEST PUSH1 0x40 MLOAD PUSH2 0x13D SWAP2 SWAP1 PUSH2 0x1742 JUMP JUMPDEST PUSH1 0x40 MLOAD DUP1 SWAP2 SUB SWAP1 RETURN JUMPDEST PUSH2 0x14E PUSH2 0x6FD JUMP JUMPDEST PUSH1 0x40 MLOAD PUSH2 0x15B SWAP2 SWAP1 PUSH2 0x19C1 JUMP JUMPDEST PUSH1 0x40 MLOAD DUP1 SWAP2 SUB SWAP1 RETURN JUMPDEST PUSH2 0x17E PUSH1 0x4 DUP1 CALLDATASIZE SUB DUP2 ADD SWAP1 PUSH2 0x179 SWAP2 SWAP1 PUSH2 0x142F JUMP JUMPDEST PUSH2 0x703 JUMP JUMPDEST PUSH1 0x40 MLOAD PUSH2 0x18C SWAP3 SWAP2 SWAP1 PUSH2 0x17D1 JUMP JUMPDEST PUSH1 0x40 MLOAD DUP1 SWAP2 SUB SWAP1 RETURN JUMPDEST PUSH2 0x19D PUSH2 0x7BF JUMP JUMPDEST PUSH1 0x40 MLOAD PUSH2 0x1AA SWAP2 SWAP1 PUSH2 0x1742 JUMP JUMPDEST PUSH1 0x40 MLOAD DUP1 SWAP2 SUB SWAP1 RETURN JUMPDEST PUSH2 0x1CD PUSH1 0x4 DUP1 CALLDATASIZE SUB DUP2 ADD SWAP1 PUSH2 0x1C8 SWAP2 SWAP1 PUSH2 0x13E6 JUMP JUMPDEST PUSH2 0x7E3 JUMP JUMPDEST STOP JUMPDEST PUSH2 0x1D7 PUSH2 0xA60 JUMP JUMPDEST PUSH1 0x40 MLOAD PUSH2 0x1E4 SWAP2 SWAP1 PUSH2 0x175D JUMP JUMPDEST PUSH1 0x40 MLOAD DUP1 SWAP2 SUB SWAP1 RETURN JUMPDEST PUSH2 0x207 PUSH1 0x4 DUP1 CALLDATASIZE SUB DUP2 ADD SWAP1 PUSH2 0x202 SWAP2 SWAP1 PUSH2 0x13B9 JUMP JUMPDEST PUSH2 0xA73 JUMP JUMPDEST STOP JUMPDEST PUSH2 0x211 PUSH2 0xC4B JUMP JUMPDEST PUSH1 0x40 MLOAD PUSH2 0x21E SWAP2 SWAP1 PUSH2 0x19C1 JUMP JUMPDEST PUSH1 0x40 MLOAD DUP1 SWAP2 SUB SWAP1 RETURN JUMPDEST PUSH2 0x241 PUSH1 0x4 DUP1 CALLDATASIZE SUB DUP2 ADD SWAP1 PUSH2 0x23C SWAP2 SWAP1 PUSH2 0x142F JUMP JUMPDEST PUSH2 0xC58 JUMP JUMPDEST STOP JUMPDEST PUSH2 0x25D PUSH1 0x4 DUP1 CALLDATASIZE SUB DUP2 ADD SWAP1 PUSH2 0x258 SWAP2 SWAP1 PUSH2 0x13B9 JUMP JUMPDEST PUSH2 0xD22 JUMP JUMPDEST PUSH1 0x40 MLOAD PUSH2 0x26C SWAP4 SWAP3 SWAP2 SWAP1 PUSH2 0x1778 JUMP JUMPDEST PUSH1 0x40 MLOAD DUP1 SWAP2 SUB SWAP1 RETURN JUMPDEST PUSH2 0x27D PUSH2 0xD66 JUMP JUMPDEST STOP JUMPDEST PUSH2 0x287 PUSH2 0x103C JUMP JUMPDEST PUSH1 0x40 MLOAD PUSH2 0x294 SWAP2 SWAP1 PUSH2 0x17AF JUMP JUMPDEST PUSH1 0x40 MLOAD DUP1 SWAP2 SUB SWAP1 RETURN JUMPDEST PUSH2 0x2A5 PUSH2 0x10CA JUMP JUMPDEST PUSH1 0x40 MLOAD PUSH2 0x2B2 SWAP2 SWAP1 PUSH2 0x19C1 JUMP JUMPDEST PUSH1 0x40 MLOAD DUP1 SWAP2 SUB SWAP1 RETURN JUMPDEST PUSH2 0x2C3 PUSH2 0x10D7 JUMP JUMPDEST PUSH1 0x40 MLOAD PUSH2 0x2D0 SWAP2 SWAP1 PUSH2 0x17AF JUMP JUMPDEST PUSH1 0x40 MLOAD DUP1 SWAP2 SUB SWAP1 RETURN JUMPDEST PUSH1 0x1 ISZERO ISZERO PUSH1 0x7 PUSH1 0x0 CALLER PUSH20 0xFFFFFFFFFFFFFFFFFFFFFFFFFFFFFFFFFFFFFFFF AND PUSH20 0xFFFFFFFFFFFFFFFFFFFFFFFFFFFFFFFFFFFFFFFF AND DUP2 MSTORE PUSH1 0x20 ADD SWAP1 DUP2 MSTORE PUSH1 0x20 ADD PUSH1 0x0 KECCAK256 PUSH1 0x0 ADD PUSH1 0x1 SWAP1 SLOAD SWAP1 PUSH2 0x100 EXP SWAP1 DIV PUSH1 0xFF AND ISZERO ISZERO EQ PUSH2 0x36F JUMPI PUSH1 0x40 MLOAD PUSH32 0x8C379A000000000000000000000000000000000000000000000000000000000 DUP2 MSTORE PUSH1 0x4 ADD PUSH2 0x366 SWAP1 PUSH2 0x18A1 JUMP JUMPDEST PUSH1 0x40 MLOAD DUP1 SWAP2 SUB SWAP1 REVERT JUMPDEST PUSH1 0x3 SLOAD TIMESTAMP LT PUSH2 0x3B3 JUMPI PUSH1 0x40 MLOAD PUSH32 0x8C379A000000000000000000000000000000000000000000000000000000000 DUP2 MSTORE PUSH1 0x4 ADD PUSH2 0x3AA SWAP1 PUSH2 0x1821 JUMP JUMPDEST PUSH1 0x40 MLOAD DUP1 SWAP2 SUB SWAP1 REVERT JUMPDEST PUSH1 0x1 ISZERO ISZERO PUSH1 0x4 PUSH1 0x0 SWAP1 SLOAD SWAP1 PUSH2 0x100 EXP SWAP1 DIV PUSH1 0xFF AND ISZERO ISZERO EQ PUSH2 0x409 JUMPI PUSH1 0x40 MLOAD PUSH32 0x8C379A000000000000000000000000000000000000000000000000000000000 DUP2 MSTORE PUSH1 0x4 ADD PUSH2 0x400 SWAP1 PUSH2 0x19A1 JUMP JUMPDEST PUSH1 0x40 MLOAD DUP1 SWAP2 SUB SWAP1 REVERT JUMPDEST PUSH1 0x0 ISZERO ISZERO PUSH1 0x7 PUSH1 0x0 CALLER PUSH20 0xFFFFFFFFFFFFFFFFFFFFFFFFFFFFFFFFFFFFFFFF AND PUSH20 0xFFFFFFFFFFFFFFFFFFFFFFFFFFFFFFFFFFFFFFFF AND DUP2 MSTORE PUSH1 0x20 ADD SWAP1 DUP2 MSTORE PUSH1 0x20 ADD PUSH1 0x0 KECCAK256 PUSH1 0x0 ADD PUSH1 0x0 SWAP1 SLOAD SWAP1 PUSH2 0x100 EXP SWAP1 DIV PUSH1 0xFF AND ISZERO ISZERO EQ PUSH2 0x49F JUMPI PUSH1 0x40 MLOAD PUSH32 0x8C379A000000000000000000000000000000000000000000000000000000000 DUP2 MSTORE PUSH1 0x4 ADD PUSH2 0x496 SWAP1 PUSH2 0x1861 JUMP JUMPDEST PUSH1 0x40 MLOAD DUP1 SWAP2 SUB SWAP1 REVERT JUMPDEST PUSH2 0x4A7 PUSH2 0x10CA JUMP JUMPDEST DUP2 LT PUSH2 0x4E8 JUMPI PUSH1 0x40 MLOAD PUSH32 0x8C379A000000000000000000000000000000000000000000000000000000000 DUP2 MSTORE PUSH1 0x4 ADD PUSH2 0x4DF SWAP1 PUSH2 0x1961 JUMP JUMPDEST PUSH1 0x40 MLOAD DUP1 SWAP2 SUB SWAP1 REVERT JUMPDEST DUP1 PUSH1 0x7 PUSH1 0x0 CALLER PUSH20 0xFFFFFFFFFFFFFFFFFFFFFFFFFFFFFFFFFFFFFFFF AND PUSH20 0xFFFFFFFFFFFFFFFFFFFFFFFFFFFFFFFFFFFFFFFF AND DUP2 MSTORE PUSH1 0x20 ADD SWAP1 DUP2 MSTORE PUSH1 0x20 ADD PUSH1 0x0 KECCAK256 PUSH1 0x1 ADD DUP2 SWAP1 SSTORE POP PUSH1 0x1 PUSH1 0x7 PUSH1 0x0 CALLER PUSH20 0xFFFFFFFFFFFFFFFFFFFFFFFFFFFFFFFFFFFFFFFF AND PUSH20 0xFFFFFFFFFFFFFFFFFFFFFFFFFFFFFFFFFFFFFFFF AND DUP2 MSTORE PUSH1 0x20 ADD SWAP1 DUP2 MSTORE PUSH1 0x20 ADD PUSH1 0x0 KECCAK256 PUSH1 0x0 ADD PUSH1 0x0 PUSH2 0x100 EXP DUP2 SLOAD DUP2 PUSH1 0xFF MUL NOT AND SWAP1 DUP4 ISZERO ISZERO MUL OR SWAP1 SSTORE POP PUSH1 0x0 PUSH1 0x7 PUSH1 0x0 CALLER PUSH20 0xFFFFFFFFFFFFFFFFFFFFFFFFFFFFFFFFFFFFFFFF AND PUSH20 0xFFFFFFFFFFFFFFFFFFFFFFFFFFFFFFFFFFFFFFFF AND DUP2 MSTORE PUSH1 0x20 ADD SWAP1 DUP2 MSTORE PUSH1 0x20 ADD PUSH1 0x0 KECCAK256 PUSH1 0x1 ADD SLOAD SWAP1 POP PUSH1 0x6 DUP2 DUP2 SLOAD DUP2 LT PUSH2 0x5E5 JUMPI PUSH2 0x5E4 PUSH2 0x1CB2 JUMP JUMPDEST JUMPDEST SWAP1 PUSH1 0x0 MSTORE PUSH1 0x20 PUSH1 0x0 KECCAK256 SWAP1 PUSH1 0x3 MUL ADD PUSH1 0x2 ADD CALLER SWAP1 DUP1 PUSH1 0x1 DUP2 SLOAD ADD DUP1 DUP3 SSTORE DUP1 SWAP2 POP POP PUSH1 0x1 SWAP1 SUB SWAP1 PUSH1 0x0 MSTORE PUSH1 0x20 PUSH1 0x0 KECCAK256 ADD PUSH1 0x0 SWAP1 SWAP2 SWAP1 SWAP2 SWAP1 SWAP2 PUSH2 0x100 EXP DUP2 SLOAD DUP2 PUSH20 0xFFFFFFFFFFFFFFFFFFFFFFFFFFFFFFFFFFFFFFFF MUL NOT AND SWAP1 DUP4 PUSH20 0xFFFFFFFFFFFFFFFFFFFFFFFFFFFFFFFFFFFFFFFF AND MUL OR SWAP1 SSTORE POP PUSH1 0x5 CALLER SWAP1 DUP1 PUSH1 0x1 DUP2 SLOAD ADD DUP1 DUP3 SSTORE DUP1 SWAP2 POP POP PUSH1 0x1 SWAP1 SUB SWAP1 PUSH1 0x0 MSTORE PUSH1 0x20 PUSH1 0x0 KECCAK256 ADD PUSH1 0x0 SWAP1 SWAP2 SWAP1 SWAP2 SWAP1 SWAP2 PUSH2 0x100 EXP DUP2 SLOAD DUP2 PUSH20 0xFFFFFFFFFFFFFFFFFFFFFFFFFFFFFFFFFFFFFFFF MUL NOT AND SWAP1 DUP4 PUSH20 0xFFFFFFFFFFFFFFFFFFFFFFFFFFFFFFFFFFFFFFFF AND MUL OR SWAP1 SSTORE POP POP POP JUMP JUMPDEST PUSH1 0x5 DUP2 DUP2 SLOAD DUP2 LT PUSH2 0x6CE JUMPI PUSH1 0x0 DUP1 REVERT JUMPDEST SWAP1 PUSH1 0x0 MSTORE PUSH1 0x20 PUSH1 0x0 KECCAK256 ADD PUSH1 0x0 SWAP2 POP SLOAD SWAP1 PUSH2 0x100 EXP SWAP1 DIV PUSH20 0xFFFFFFFFFFFFFFFFFFFFFFFFFFFFFFFFFFFFFFFF AND DUP2 JUMP JUMPDEST PUSH1 0x3 SLOAD DUP2 JUMP JUMPDEST PUSH1 0x6 DUP2 DUP2 SLOAD DUP2 LT PUSH2 0x713 JUMPI PUSH1 0x0 DUP1 REVERT JUMPDEST SWAP1 PUSH1 0x0 MSTORE PUSH1 0x20 PUSH1 0x0 KECCAK256 SWAP1 PUSH1 0x3 MUL ADD PUSH1 0x0 SWAP2 POP SWAP1 POP DUP1 PUSH1 0x0 ADD DUP1 SLOAD PUSH2 0x736 SWAP1 PUSH2 0x1BA8 JUMP JUMPDEST DUP1 PUSH1 0x1F ADD PUSH1 0x20 DUP1 SWAP2 DIV MUL PUSH1 0x20 ADD PUSH1 0x40 MLOAD SWAP1 DUP2 ADD PUSH1 0x40 MSTORE DUP1 SWAP3 SWAP2 SWAP1 DUP2 DUP2 MSTORE PUSH1 0x20 ADD DUP3 DUP1 SLOAD PUSH2 0x762 SWAP1 PUSH2 0x1BA8 JUMP JUMPDEST DUP1 ISZERO PUSH2 0x7AF JUMPI DUP1 PUSH1 0x1F LT PUSH2 0x784 JUMPI PUSH2 0x100 DUP1 DUP4 SLOAD DIV MUL DUP4 MSTORE SWAP2 PUSH1 0x20 ADD SWAP2 PUSH2 0x7AF JUMP JUMPDEST DUP3 ADD SWAP2 SWAP1 PUSH1 0x0 MSTORE PUSH1 0x20 PUSH1 0x0 KECCAK256 SWAP1 JUMPDEST DUP2 SLOAD DUP2 MSTORE SWAP1 PUSH1 0x1 ADD SWAP1 PUSH1 0x20 ADD DUP1 DUP4 GT PUSH2 0x792 JUMPI DUP3 SWAP1 SUB PUSH1 0x1F AND DUP3 ADD SWAP2 JUMPDEST POP POP POP POP POP SWAP1 DUP1 PUSH1 0x1 ADD SLOAD SWAP1 POP DUP3 JUMP JUMPDEST PUSH1 0x0 DUP1 SLOAD SWAP1 PUSH2 0x100 EXP SWAP1 DIV PUSH20 0xFFFFFFFFFFFFFFFFFFFFFFFFFFFFFFFFFFFFFFFF AND DUP2 JUMP JUMPDEST PUSH1 0x0 DUP1 SLOAD SWAP1 PUSH2 0x100 EXP SWAP1 DIV PUSH20 0xFFFFFFFFFFFFFFFFFFFFFFFFFFFFFFFFFFFFFFFF AND PUSH20 0xFFFFFFFFFFFFFFFFFFFFFFFFFFFFFFFFFFFFFFFF AND CALLER PUSH20 0xFFFFFFFFFFFFFFFFFFFFFFFFFFFFFFFFFFFFFFFF AND EQ PUSH2 0x871 JUMPI PUSH1 0x40 MLOAD PUSH32 0x8C379A000000000000000000000000000000000000000000000000000000000 DUP2 MSTORE PUSH1 0x4 ADD PUSH2 0x868 SWAP1 PUSH2 0x18C1 JUMP JUMPDEST PUSH1 0x40 MLOAD DUP1 SWAP2 SUB SWAP1 REVERT JUMPDEST PUSH1 0x0 ISZERO ISZERO PUSH1 0x4 PUSH1 0x0 SWAP1 SLOAD SWAP1 PUSH2 0x100 EXP SWAP1 DIV PUSH1 0xFF AND ISZERO ISZERO EQ PUSH2 0x8C7 JUMPI PUSH1 0x40 MLOAD PUSH32 0x8C379A000000000000000000000000000000000000000000000000000000000 DUP2 MSTORE PUSH1 0x4 ADD PUSH2 0x8BE SWAP1 PUSH2 0x1941 JUMP JUMPDEST PUSH1 0x40 MLOAD DUP1 SWAP2 SUB SWAP1 REVERT JUMPDEST PUSH1 0x0 DUP1 JUMPDEST PUSH2 0x8D3 PUSH2 0x10CA JUMP JUMPDEST DUP2 LT ISZERO PUSH2 0x93E JUMPI DUP3 DUP1 MLOAD SWAP1 PUSH1 0x20 ADD KECCAK256 PUSH1 0x6 DUP3 DUP2 SLOAD DUP2 LT PUSH2 0x8F6 JUMPI PUSH2 0x8F5 PUSH2 0x1CB2 JUMP JUMPDEST JUMPDEST SWAP1 PUSH1 0x0 MSTORE PUSH1 0x20 PUSH1 0x0 KECCAK256 SWAP1 PUSH1 0x3 MUL ADD PUSH1 0x0 ADD PUSH1 0x40 MLOAD PUSH2 0x914 SWAP2 SWAP1 PUSH2 0x172B JUMP JUMPDEST PUSH1 0x40 MLOAD DUP1 SWAP2 SUB SWAP1 KECCAK256 EQ ISZERO PUSH2 0x92B JUMPI PUSH1 0x1 SWAP2 POP PUSH2 0x93E JUMP JUMPDEST DUP1 DUP1 PUSH2 0x936 SWAP1 PUSH2 0x1C0B JUMP JUMPDEST SWAP2 POP POP PUSH2 0x8CB JUMP JUMPDEST POP PUSH1 0x0 ISZERO ISZERO DUP2 ISZERO ISZERO EQ PUSH2 0x986 JUMPI PUSH1 0x40 MLOAD PUSH32 0x8C379A000000000000000000000000000000000000000000000000000000000 DUP2 MSTORE PUSH1 0x4 ADD PUSH2 0x97D SWAP1 PUSH2 0x18E1 JUMP JUMPDEST PUSH1 0x40 MLOAD DUP1 SWAP2 SUB SWAP1 REVERT JUMPDEST PUSH1 0x6 PUSH1 0x40 MLOAD DUP1 PUSH1 0x60 ADD PUSH1 0x40 MSTORE DUP1 DUP5 DUP2 MSTORE PUSH1 0x20 ADD PUSH1 0x0 DUP2 MSTORE PUSH1 0x20 ADD PUSH1 0x0 PUSH8 0xFFFFFFFFFFFFFFFF DUP2 GT ISZERO PUSH2 0x9BB JUMPI PUSH2 0x9BA PUSH2 0x1CE1 JUMP JUMPDEST JUMPDEST PUSH1 0x40 MLOAD SWAP1 DUP1 DUP3 MSTORE DUP1 PUSH1 0x20 MUL PUSH1 0x20 ADD DUP3 ADD PUSH1 0x40 MSTORE DUP1 ISZERO PUSH2 0x9E9 JUMPI DUP2 PUSH1 0x20 ADD PUSH1 0x20 DUP3 MUL DUP1 CALLDATASIZE DUP4 CALLDATACOPY DUP1 DUP3 ADD SWAP2 POP POP SWAP1 POP JUMPDEST POP DUP2 MSTORE POP SWAP1 DUP1 PUSH1 0x1 DUP2 SLOAD ADD DUP1 DUP3 SSTORE DUP1 SWAP2 POP POP PUSH1 0x1 SWAP1 SUB SWAP1 PUSH1 0x0 MSTORE PUSH1 0x20 PUSH1 0x0 KECCAK256 SWAP1 PUSH1 0x3 MUL ADD PUSH1 0x0 SWAP1 SWAP2 SWAP1 SWAP2 SWAP1 SWAP2 POP PUSH1 0x0 DUP3 ADD MLOAD DUP2 PUSH1 0x0 ADD SWAP1 DUP1 MLOAD SWAP1 PUSH1 0x20 ADD SWAP1 PUSH2 0xA32 SWAP3 SWAP2 SWAP1 PUSH2 0x1165 JUMP JUMPDEST POP PUSH1 0x20 DUP3 ADD MLOAD DUP2 PUSH1 0x1 ADD SSTORE PUSH1 0x40 DUP3 ADD MLOAD DUP2 PUSH1 0x2 ADD SWAP1 DUP1 MLOAD SWAP1 PUSH1 0x20 ADD SWAP1 PUSH2 0xA59 SWAP3 SWAP2 SWAP1 PUSH2 0x11EB JUMP JUMPDEST POP POP POP POP POP JUMP JUMPDEST PUSH1 0x4 PUSH1 0x0 SWAP1 SLOAD SWAP1 PUSH2 0x100 EXP SWAP1 DIV PUSH1 0xFF AND DUP2 JUMP JUMPDEST PUSH1 0x0 DUP1 SLOAD SWAP1 PUSH2 0x100 EXP SWAP1 DIV PUSH20 0xFFFFFFFFFFFFFFFFFFFFFFFFFFFFFFFFFFFFFFFF AND PUSH20 0xFFFFFFFFFFFFFFFFFFFFFFFFFFFFFFFFFFFFFFFF AND CALLER PUSH20 0xFFFFFFFFFFFFFFFFFFFFFFFFFFFFFFFFFFFFFFFF AND EQ PUSH2 0xB01 JUMPI PUSH1 0x40 MLOAD PUSH32 0x8C379A000000000000000000000000000000000000000000000000000000000 DUP2 MSTORE PUSH1 0x4 ADD PUSH2 0xAF8 SWAP1 PUSH2 0x1841 JUMP JUMPDEST PUSH1 0x40 MLOAD DUP1 SWAP2 SUB SWAP1 REVERT JUMPDEST PUSH1 0x0 ISZERO ISZERO PUSH1 0x4 PUSH1 0x0 SWAP1 SLOAD SWAP1 PUSH2 0x100 EXP SWAP1 DIV PUSH1 0xFF AND ISZERO ISZERO EQ PUSH2 0xB57 JUMPI PUSH1 0x40 MLOAD PUSH32 0x8C379A000000000000000000000000000000000000000000000000000000000 DUP2 MSTORE PUSH1 0x4 ADD PUSH2 0xB4E SWAP1 PUSH2 0x1901 JUMP JUMPDEST PUSH1 0x40 MLOAD DUP1 SWAP2 SUB SWAP1 REVERT JUMPDEST PUSH1 0x0 ISZERO ISZERO PUSH1 0x7 PUSH1 0x0 DUP4 PUSH20 0xFFFFFFFFFFFFFFFFFFFFFFFFFFFFFFFFFFFFFFFF AND PUSH20 0xFFFFFFFFFFFFFFFFFFFFFFFFFFFFFFFFFFFFFFFF AND DUP2 MSTORE PUSH1 0x20 ADD SWAP1 DUP2 MSTORE PUSH1 0x20 ADD PUSH1 0x0 KECCAK256 PUSH1 0x0 ADD PUSH1 0x1 SWAP1 SLOAD SWAP1 PUSH2 0x100 EXP SWAP1 DIV PUSH1 0xFF AND ISZERO ISZERO EQ PUSH2 0xBED JUMPI PUSH1 0x40 MLOAD PUSH32 0x8C379A000000000000000000000000000000000000000000000000000000000 DUP2 MSTORE PUSH1 0x4 ADD PUSH2 0xBE4 SWAP1 PUSH2 0x1881 JUMP JUMPDEST PUSH1 0x40 MLOAD DUP1 SWAP2 SUB SWAP1 REVERT JUMPDEST PUSH1 0x1 PUSH1 0x7 PUSH1 0x0 DUP4 PUSH20 0xFFFFFFFFFFFFFFFFFFFFFFFFFFFFFFFFFFFFFFFF AND PUSH20 0xFFFFFFFFFFFFFFFFFFFFFFFFFFFFFFFFFFFFFFFF AND DUP2 MSTORE PUSH1 0x20 ADD SWAP1 DUP2 MSTORE PUSH1 0x20 ADD PUSH1 0x0 KECCAK256 PUSH1 0x0 ADD PUSH1 0x1 PUSH2 0x100 EXP DUP2 SLOAD DUP2 PUSH1 0xFF MUL NOT AND SWAP1 DUP4 ISZERO ISZERO MUL OR SWAP1 SSTORE POP POP JUMP JUMPDEST PUSH1 0x0 PUSH1 0x5 DUP1 SLOAD SWAP1 POP SWAP1 POP SWAP1 JUMP JUMPDEST PUSH1 0x0 DUP1 SLOAD SWAP1 PUSH2 0x100 EXP SWAP1 DIV PUSH20 0xFFFFFFFFFFFFFFFFFFFFFFFFFFFFFFFFFFFFFFFF AND PUSH20 0xFFFFFFFFFFFFFFFFFFFFFFFFFFFFFFFFFFFFFFFF AND CALLER PUSH20 0xFFFFFFFFFFFFFFFFFFFFFFFFFFFFFFFFFFFFFFFF AND EQ PUSH2 0xCE6 JUMPI PUSH1 0x40 MLOAD PUSH32 0x8C379A000000000000000000000000000000000000000000000000000000000 DUP2 MSTORE PUSH1 0x4 ADD PUSH2 0xCDD SWAP1 PUSH2 0x1801 JUMP JUMPDEST PUSH1 0x40 MLOAD DUP1 SWAP2 SUB SWAP1 REVERT JUMPDEST PUSH1 0x3C DUP2 PUSH2 0xCF3 SWAP2 SWAP1 PUSH2 0x1AC4 JUMP JUMPDEST TIMESTAMP PUSH2 0xCFE SWAP2 SWAP1 PUSH2 0x1A6E JUMP JUMPDEST PUSH1 0x3 DUP2 SWAP1 SSTORE POP PUSH1 0x1 PUSH1 0x4 PUSH1 0x0 PUSH2 0x100 EXP DUP2 SLOAD DUP2 PUSH1 0xFF MUL NOT AND SWAP1 DUP4 ISZERO ISZERO MUL OR SWAP1 SSTORE POP POP JUMP JUMPDEST PUSH1 0x7 PUSH1 0x20 MSTORE DUP1 PUSH1 0x0 MSTORE PUSH1 0x40 PUSH1 0x0 KECCAK256 PUSH1 0x0 SWAP2 POP SWAP1 POP DUP1 PUSH1 0x0 ADD PUSH1 0x0 SWAP1 SLOAD SWAP1 PUSH2 0x100 EXP SWAP1 DIV PUSH1 0xFF AND SWAP1 DUP1 PUSH1 0x0 ADD PUSH1 0x1 SWAP1 SLOAD SWAP1 PUSH2 0x100 EXP SWAP1 DIV PUSH1 0xFF AND SWAP1 DUP1 PUSH1 0x1 ADD SLOAD SWAP1 POP DUP4 JUMP JUMPDEST PUSH1 0x1 ISZERO ISZERO PUSH1 0x4 PUSH1 0x0 SWAP1 SLOAD SWAP1 PUSH2 0x100 EXP SWAP1 DIV PUSH1 0xFF AND ISZERO ISZERO EQ PUSH2 0xDBC JUMPI PUSH1 0x40 MLOAD PUSH32 0x8C379A000000000000000000000000000000000000000000000000000000000 DUP2 MSTORE PUSH1 0x4 ADD PUSH2 0xDB3 SWAP1 PUSH2 0x1921 JUMP JUMPDEST PUSH1 0x40 MLOAD DUP1 SWAP2 SUB SWAP1 REVERT JUMPDEST PUSH1 0x3 SLOAD TIMESTAMP GT PUSH2 0xE00 JUMPI PUSH1 0x40 MLOAD PUSH32 0x8C379A000000000000000000000000000000000000000000000000000000000 DUP2 MSTORE PUSH1 0x4 ADD PUSH2 0xDF7 SWAP1 PUSH2 0x1981 JUMP JUMPDEST PUSH1 0x40 MLOAD DUP1 SWAP2 SUB SWAP1 REVERT JUMPDEST PUSH1 0x0 PUSH2 0xE0A PUSH2 0xC4B JUMP JUMPDEST SWAP1 POP PUSH1 0x0 JUMPDEST DUP2 DUP2 LT ISZERO PUSH2 0xEF1 JUMPI PUSH1 0x0 PUSH1 0x5 DUP3 DUP2 SLOAD DUP2 LT PUSH2 0xE2D JUMPI PUSH2 0xE2C PUSH2 0x1CB2 JUMP JUMPDEST JUMPDEST SWAP1 PUSH1 0x0 MSTORE PUSH1 0x20 PUSH1 0x0 KECCAK256 ADD PUSH1 0x0 SWAP1 SLOAD SWAP1 PUSH2 0x100 EXP SWAP1 DIV PUSH20 0xFFFFFFFFFFFFFFFFFFFFFFFFFFFFFFFFFFFFFFFF AND SWAP1 POP PUSH1 0x0 PUSH1 0x7 PUSH1 0x0 DUP4 PUSH20 0xFFFFFFFFFFFFFFFFFFFFFFFFFFFFFFFFFFFFFFFF AND PUSH20 0xFFFFFFFFFFFFFFFFFFFFFFFFFFFFFFFFFFFFFFFF AND DUP2 MSTORE PUSH1 0x20 ADD SWAP1 DUP2 MSTORE PUSH1 0x20 ADD PUSH1 0x0 KECCAK256 PUSH1 0x1 ADD SLOAD SWAP1 POP PUSH1 0x6 DUP2 DUP2 SLOAD DUP2 LT PUSH2 0xEB5 JUMPI PUSH2 0xEB4 PUSH2 0x1CB2 JUMP JUMPDEST JUMPDEST SWAP1 PUSH1 0x0 MSTORE PUSH1 0x20 PUSH1 0x0 KECCAK256 SWAP1 PUSH1 0x3 MUL ADD PUSH1 0x1 ADD PUSH1 0x0 DUP2 SLOAD DUP1 SWAP3 SWAP2 SWAP1 PUSH2 0xED7 SWAP1 PUSH2 0x1C0B JUMP JUMPDEST SWAP2 SWAP1 POP SSTORE POP POP POP DUP1 DUP1 PUSH2 0xEE9 SWAP1 PUSH2 0x1C0B JUMP JUMPDEST SWAP2 POP POP PUSH2 0xE0F JUMP JUMPDEST POP PUSH1 0x0 DUP1 DUP1 PUSH2 0xEFE PUSH2 0x10CA JUMP JUMPDEST SWAP1 POP PUSH1 0x0 JUMPDEST DUP2 DUP2 LT ISZERO PUSH2 0x1035 JUMPI DUP4 PUSH1 0x6 DUP3 DUP2 SLOAD DUP2 LT PUSH2 0xF20 JUMPI PUSH2 0xF1F PUSH2 0x1CB2 JUMP JUMPDEST JUMPDEST SWAP1 PUSH1 0x0 MSTORE PUSH1 0x20 PUSH1 0x0 KECCAK256 SWAP1 PUSH1 0x3 MUL ADD PUSH1 0x1 ADD SLOAD GT ISZERO PUSH2 0xFA7 JUMPI PUSH1 0x6 DUP2 DUP2 SLOAD DUP2 LT PUSH2 0xF4C JUMPI PUSH2 0xF4B PUSH2 0x1CB2 JUMP JUMPDEST JUMPDEST SWAP1 PUSH1 0x0 MSTORE PUSH1 0x20 PUSH1 0x0 KECCAK256 SWAP1 PUSH1 0x3 MUL ADD PUSH1 0x1 ADD SLOAD SWAP4 POP DUP1 SWAP3 POP PUSH1 0x6 DUP4 DUP2 SLOAD DUP2 LT PUSH2 0xF77 JUMPI PUSH2 0xF76 PUSH2 0x1CB2 JUMP JUMPDEST JUMPDEST SWAP1 PUSH1 0x0 MSTORE PUSH1 0x20 PUSH1 0x0 KECCAK256 SWAP1 PUSH1 0x3 MUL ADD PUSH1 0x0 ADD PUSH1 0x2 SWAP1 DUP1 SLOAD PUSH2 0xF96 SWAP1 PUSH2 0x1BA8 JUMP JUMPDEST PUSH2 0xFA1 SWAP3 SWAP2 SWAP1 PUSH2 0x1275 JUMP JUMPDEST POP PUSH2 0x1022 JUMP JUMPDEST DUP4 PUSH1 0x6 DUP3 DUP2 SLOAD DUP2 LT PUSH2 0xFBC JUMPI PUSH2 0xFBB PUSH2 0x1CB2 JUMP JUMPDEST JUMPDEST SWAP1 PUSH1 0x0 MSTORE PUSH1 0x20 PUSH1 0x0 KECCAK256 SWAP1 PUSH1 0x3 MUL ADD PUSH1 0x1 ADD SLOAD EQ ISZERO PUSH2 0x1021 JUMPI PUSH1 0x40 MLOAD DUP1 PUSH1 0x40 ADD PUSH1 0x40 MSTORE DUP1 PUSH1 0xF DUP2 MSTORE PUSH1 0x20 ADD PUSH32 0x54686572652069732061207469652E0000000000000000000000000000000000 DUP2 MSTORE POP PUSH1 0x2 SWAP1 DUP1 MLOAD SWAP1 PUSH1 0x20 ADD SWAP1 PUSH2 0x101F SWAP3 SWAP2 SWAP1 PUSH2 0x1165 JUMP JUMPDEST POP JUMPDEST JUMPDEST DUP1 DUP1 PUSH2 0x102D SWAP1 PUSH2 0x1C0B JUMP JUMPDEST SWAP2 POP POP PUSH2 0xF03 JUMP JUMPDEST POP POP POP POP POP JUMP JUMPDEST PUSH1 0x1 DUP1 SLOAD PUSH2 0x1049 SWAP1 PUSH2 0x1BA8 JUMP JUMPDEST DUP1 PUSH1 0x1F ADD PUSH1 0x20 DUP1 SWAP2 DIV MUL PUSH1 0x20 ADD PUSH1 0x40 MLOAD SWAP1 DUP2 ADD PUSH1 0x40 MSTORE DUP1 SWAP3 SWAP2 SWAP1 DUP2 DUP2 MSTORE PUSH1 0x20 ADD DUP3 DUP1 SLOAD PUSH2 0x1075 SWAP1 PUSH2 0x1BA8 JUMP JUMPDEST DUP1 ISZERO PUSH2 0x10C2 JUMPI DUP1 PUSH1 0x1F LT PUSH2 0x1097 JUMPI PUSH2 0x100 DUP1 DUP4 SLOAD DIV MUL DUP4 MSTORE SWAP2 PUSH1 0x20 ADD SWAP2 PUSH2 0x10C2 JUMP JUMPDEST DUP3 ADD SWAP2 SWAP1 PUSH1 0x0 MSTORE PUSH1 0x20 PUSH1 0x0 KECCAK256 SWAP1 JUMPDEST DUP2 SLOAD DUP2 MSTORE SWAP1 PUSH1 0x1 ADD SWAP1 PUSH1 0x20 ADD DUP1 DUP4 GT PUSH2 0x10A5 JUMPI DUP3 SWAP1 SUB PUSH1 0x1F AND DUP3 ADD SWAP2 JUMPDEST POP POP POP POP POP DUP2 JUMP JUMPDEST PUSH1 0x0 PUSH1 0x6 DUP1 SLOAD SWAP1 POP SWAP1 POP SWAP1 JUMP JUMPDEST PUSH1 0x2 DUP1 SLOAD PUSH2 0x10E4 SWAP1 PUSH2 0x1BA8 JUMP JUMPDEST DUP1 PUSH1 0x1F ADD PUSH1 0x20 DUP1 SWAP2 DIV MUL PUSH1 0x20 ADD PUSH1 0x40 MLOAD SWAP1 DUP2 ADD PUSH1 0x40 MSTORE DUP1 SWAP3 SWAP2 SWAP1 DUP2 DUP2 MSTORE PUSH1 0x20 ADD DUP3 DUP1 SLOAD PUSH2 0x1110 SWAP1 PUSH2 0x1BA8 JUMP JUMPDEST DUP1 ISZERO PUSH2 0x115D JUMPI DUP1 PUSH1 0x1F LT PUSH2 0x1132 JUMPI PUSH2 0x100 DUP1 DUP4 SLOAD DIV MUL DUP4 MSTORE SWAP2 PUSH1 0x20 ADD SWAP2 PUSH2 0x115D JUMP JUMPDEST DUP3 ADD SWAP2 SWAP1 PUSH1 0x0 MSTORE PUSH1 0x20 PUSH1 0x0 KECCAK256 SWAP1 JUMPDEST DUP2 SLOAD DUP2 MSTORE SWAP1 PUSH1 0x1 ADD SWAP1 PUSH1 0x20 ADD DUP1 DUP4 GT PUSH2 0x1140 JUMPI DUP3 SWAP1 SUB PUSH1 0x1F AND DUP3 ADD SWAP2 JUMPDEST POP POP POP POP POP DUP2 JUMP JUMPDEST DUP3 DUP1 SLOAD PUSH2 0x1171 SWAP1 PUSH2 0x1BA8 JUMP JUMPDEST SWAP1 PUSH1 0x0 MSTORE PUSH1 0x20 PUSH1 0x0 KECCAK256 SWAP1 PUSH1 0x1F ADD PUSH1 0x20 SWAP1 DIV DUP2 ADD SWAP3 DUP3 PUSH2 0x1193 JUMPI PUSH1 0x0 DUP6 SSTORE PUSH2 0x11DA JUMP JUMPDEST DUP3 PUSH1 0x1F LT PUSH2 0x11AC JUMPI DUP1 MLOAD PUSH1 0xFF NOT AND DUP4 DUP1 ADD OR DUP6 SSTORE PUSH2 0x11DA JUMP JUMPDEST DUP3 DUP1 ADD PUSH1 0x1 ADD DUP6 SSTORE DUP3 ISZERO PUSH2 0x11DA JUMPI SWAP2 DUP3 ADD JUMPDEST DUP3 DUP2 GT ISZERO PUSH2 0x11D9 JUMPI DUP3 MLOAD DUP3 SSTORE SWAP2 PUSH1 0x20 ADD SWAP2 SWAP1 PUSH1 0x1 ADD SWAP1 PUSH2 0x11BE JUMP JUMPDEST JUMPDEST POP SWAP1 POP PUSH2 0x11E7 SWAP2 SWAP1 PUSH2 0x1302 JUMP JUMPDEST POP SWAP1 JUMP JUMPDEST DUP3 DUP1 SLOAD DUP3 DUP3 SSTORE SWAP1 PUSH1 0x0 MSTORE PUSH1 0x20 PUSH1 0x0 KECCAK256 SWAP1 DUP2 ADD SWAP3 DUP3 ISZERO PUSH2 0x1264 JUMPI SWAP2 PUSH1 0x20 MUL DUP3 ADD JUMPDEST DUP3 DUP2 GT ISZERO PUSH2 0x1263 JUMPI DUP3 MLOAD DUP3 PUSH1 0x0 PUSH2 0x100 EXP DUP2 SLOAD DUP2 PUSH20 0xFFFFFFFFFFFFFFFFFFFFFFFFFFFFFFFFFFFFFFFF MUL NOT AND SWAP1 DUP4 PUSH20 0xFFFFFFFFFFFFFFFFFFFFFFFFFFFFFFFFFFFFFFFF AND MUL OR SWAP1 SSTORE POP SWAP2 PUSH1 0x20 ADD SWAP2 SWAP1 PUSH1 0x1 ADD SWAP1 PUSH2 0x120B JUMP JUMPDEST JUMPDEST POP SWAP1 POP PUSH2 0x1271 SWAP2 SWAP1 PUSH2 0x1302 JUMP JUMPDEST POP SWAP1 JUMP JUMPDEST DUP3 DUP1 SLOAD PUSH2 0x1281 SWAP1 PUSH2 0x1BA8 JUMP JUMPDEST SWAP1 PUSH1 0x0 MSTORE PUSH1 0x20 PUSH1 0x0 KECCAK256 SWAP1 PUSH1 0x1F ADD PUSH1 0x20 SWAP1 DIV DUP2 ADD SWAP3 DUP3 PUSH2 0x12A3 JUMPI PUSH1 0x0 DUP6 SSTORE PUSH2 0x12F1 JUMP JUMPDEST DUP3 PUSH1 0x1F LT PUSH2 0x12B4 JUMPI DUP1 SLOAD DUP6 SSTORE PUSH2 0x12F1 JUMP JUMPDEST DUP3 DUP1 ADD PUSH1 0x1 ADD DUP6 SSTORE DUP3 ISZERO PUSH2 0x12F1 JUMPI PUSH1 0x0 MSTORE PUSH1 0x20 PUSH1 0x0 KECCAK256 SWAP2 PUSH1 0x1F ADD PUSH1 0x20 SWAP1 DIV DUP3 ADD JUMPDEST DUP3 DUP2 GT ISZERO PUSH2 0x12F0 JUMPI DUP3 SLOAD DUP3 SSTORE SWAP2 PUSH1 0x1 ADD SWAP2 SWAP1 PUSH1 0x1 ADD SWAP1 PUSH2 0x12D5 JUMP JUMPDEST JUMPDEST POP SWAP1 POP PUSH2 0x12FE SWAP2 SWAP1 PUSH2 0x1302 JUMP JUMPDEST POP SWAP1 JUMP JUMPDEST JUMPDEST DUP1 DUP3 GT ISZERO PUSH2 0x131B JUMPI PUSH1 0x0 DUP2 PUSH1 0x0 SWAP1 SSTORE POP PUSH1 0x1 ADD PUSH2 0x1303 JUMP JUMPDEST POP SWAP1 JUMP JUMPDEST PUSH1 0x0 PUSH2 0x1332 PUSH2 0x132D DUP5 PUSH2 0x1A01 JUMP JUMPDEST PUSH2 0x19DC JUMP JUMPDEST SWAP1 POP DUP3 DUP2 MSTORE PUSH1 0x20 DUP2 ADD DUP5 DUP5 DUP5 ADD GT ISZERO PUSH2 0x134E JUMPI PUSH2 0x134D PUSH2 0x1D15 JUMP JUMPDEST JUMPDEST PUSH2 0x1359 DUP5 DUP3 DUP6 PUSH2 0x1B66 JUMP JUMPDEST POP SWAP4 SWAP3 POP POP POP JUMP JUMPDEST PUSH1 0x0 DUP2 CALLDATALOAD SWAP1 POP PUSH2 0x1370 DUP2 PUSH2 0x20C9 JUMP JUMPDEST SWAP3 SWAP2 POP POP JUMP JUMPDEST PUSH1 0x0 DUP3 PUSH1 0x1F DUP4 ADD SLT PUSH2 0x138B JUMPI PUSH2 0x138A PUSH2 0x1D10 JUMP JUMPDEST JUMPDEST DUP2 CALLDATALOAD PUSH2 0x139B DUP5 DUP3 PUSH1 0x20 DUP7 ADD PUSH2 0x131F JUMP JUMPDEST SWAP2 POP POP SWAP3 SWAP2 POP POP JUMP JUMPDEST PUSH1 0x0 DUP2 CALLDATALOAD SWAP1 POP PUSH2 0x13B3 DUP2 PUSH2 0x20E0 JUMP JUMPDEST SWAP3 SWAP2 POP POP JUMP JUMPDEST PUSH1 0x0 PUSH1 0x20 DUP3 DUP5 SUB SLT ISZERO PUSH2 0x13CF JUMPI PUSH2 0x13CE PUSH2 0x1D1F JUMP JUMPDEST JUMPDEST PUSH1 0x0 PUSH2 0x13DD DUP5 DUP3 DUP6 ADD PUSH2 0x1361 JUMP JUMPDEST SWAP2 POP POP SWAP3 SWAP2 POP POP JUMP JUMPDEST PUSH1 0x0 PUSH1 0x20 DUP3 DUP5 SUB SLT ISZERO PUSH2 0x13FC JUMPI PUSH2 0x13FB PUSH2 0x1D1F JUMP JUMPDEST JUMPDEST PUSH1 0x0 DUP3 ADD CALLDATALOAD PUSH8 0xFFFFFFFFFFFFFFFF DUP2 GT ISZERO PUSH2 0x141A JUMPI PUSH2 0x1419 PUSH2 0x1D1A JUMP JUMPDEST JUMPDEST PUSH2 0x1426 DUP5 DUP3 DUP6 ADD PUSH2 0x1376 JUMP JUMPDEST SWAP2 POP POP SWAP3 SWAP2 POP POP JUMP JUMPDEST PUSH1 0x0 PUSH1 0x20 DUP3 DUP5 SUB SLT ISZERO PUSH2 0x1445 JUMPI PUSH2 0x1444 PUSH2 0x1D1F JUMP JUMPDEST JUMPDEST PUSH1 0x0 PUSH2 0x1453 DUP5 DUP3 DUP6 ADD PUSH2 0x13A4 JUMP JUMPDEST SWAP2 POP POP SWAP3 SWAP2 POP POP JUMP JUMPDEST PUSH2 0x1465 DUP2 PUSH2 0x1B1E JUMP JUMPDEST DUP3 MSTORE POP POP JUMP JUMPDEST PUSH2 0x1474 DUP2 PUSH2 0x1B30 JUMP JUMPDEST DUP3 MSTORE POP POP JUMP JUMPDEST PUSH1 0x0 DUP2 SLOAD PUSH2 0x1487 DUP2 PUSH2 0x1BA8 JUMP JUMPDEST PUSH2 0x1491 DUP2 DUP7 PUSH2 0x1A52 JUMP JUMPDEST SWAP5 POP PUSH1 0x1 DUP3 AND PUSH1 0x0 DUP2 EQ PUSH2 0x14AC JUMPI PUSH1 0x1 DUP2 EQ PUSH2 0x14BD JUMPI PUSH2 0x14F0 JUMP JUMPDEST PUSH1 0xFF NOT DUP4 AND DUP7 MSTORE DUP2 DUP7 ADD SWAP4 POP PUSH2 0x14F0 JUMP JUMPDEST PUSH2 0x14C6 DUP6 PUSH2 0x1A32 JUMP JUMPDEST PUSH1 0x0 JUMPDEST DUP4 DUP2 LT ISZERO PUSH2 0x14E8 JUMPI DUP2 SLOAD DUP2 DUP10 ADD MSTORE PUSH1 0x1 DUP3 ADD SWAP2 POP PUSH1 0x20 DUP2 ADD SWAP1 POP PUSH2 0x14C9 JUMP JUMPDEST DUP4 DUP9 ADD SWAP6 POP POP POP JUMPDEST POP POP POP SWAP3 SWAP2 POP POP JUMP JUMPDEST PUSH1 0x0 PUSH2 0x1504 DUP3 PUSH2 0x1A47 JUMP JUMPDEST PUSH2 0x150E DUP2 DUP6 PUSH2 0x1A5D JUMP JUMPDEST SWAP4 POP PUSH2 0x151E DUP2 DUP6 PUSH1 0x20 DUP7 ADD PUSH2 0x1B75 JUMP JUMPDEST PUSH2 0x1527 DUP2 PUSH2 0x1D24 JUMP JUMPDEST DUP5 ADD SWAP2 POP POP SWAP3 SWAP2 POP POP JUMP JUMPDEST PUSH1 0x0 PUSH2 0x153F PUSH1 0x2D DUP4 PUSH2 0x1A5D JUMP JUMPDEST SWAP2 POP PUSH2 0x154A DUP3 PUSH2 0x1D35 JUMP JUMPDEST PUSH1 0x40 DUP3 ADD SWAP1 POP SWAP2 SWAP1 POP JUMP JUMPDEST PUSH1 0x0 PUSH2 0x1562 PUSH1 0x20 DUP4 PUSH2 0x1A5D JUMP JUMPDEST SWAP2 POP PUSH2 0x156D DUP3 PUSH2 0x1D84 JUMP JUMPDEST PUSH1 0x20 DUP3 ADD SWAP1 POP SWAP2 SWAP1 POP JUMP JUMPDEST PUSH1 0x0 PUSH2 0x1585 PUSH1 0x1E DUP4 PUSH2 0x1A5D JUMP JUMPDEST SWAP2 POP PUSH2 0x1590 DUP3 PUSH2 0x1DAD JUMP JUMPDEST PUSH1 0x20 DUP3 ADD SWAP1 POP SWAP2 SWAP1 POP JUMP JUMPDEST PUSH1 0x0 PUSH2 0x15A8 PUSH1 0x1C DUP4 PUSH2 0x1A5D JUMP JUMPDEST SWAP2 POP PUSH2 0x15B3 DUP3 PUSH2 0x1DD6 JUMP JUMPDEST PUSH1 0x20 DUP3 ADD SWAP1 POP SWAP2 SWAP1 POP JUMP JUMPDEST PUSH1 0x0 PUSH2 0x15CB PUSH1 0x32 DUP4 PUSH2 0x1A5D JUMP JUMPDEST SWAP2 POP PUSH2 0x15D6 DUP3 PUSH2 0x1DFF JUMP JUMPDEST PUSH1 0x40 DUP3 ADD SWAP1 POP SWAP2 SWAP1 POP JUMP JUMPDEST PUSH1 0x0 PUSH2 0x15EE PUSH1 0x26 DUP4 PUSH2 0x1A5D JUMP JUMPDEST SWAP2 POP PUSH2 0x15F9 DUP3 PUSH2 0x1E4E JUMP JUMPDEST PUSH1 0x40 DUP3 ADD SWAP1 POP SWAP2 SWAP1 POP JUMP JUMPDEST PUSH1 0x0 PUSH2 0x1611 PUSH1 0x2B DUP4 PUSH2 0x1A5D JUMP JUMPDEST SWAP2 POP PUSH2 0x161C DUP3 PUSH2 0x1E9D JUMP JUMPDEST PUSH1 0x40 DUP3 ADD SWAP1 POP SWAP2 SWAP1 POP JUMP JUMPDEST PUSH1 0x0 PUSH2 0x1634 PUSH1 0x20 DUP4 PUSH2 0x1A5D JUMP JUMPDEST SWAP2 POP PUSH2 0x163F DUP3 PUSH2 0x1EEC JUMP JUMPDEST PUSH1 0x20 DUP3 ADD SWAP1 POP SWAP2 SWAP1 POP JUMP JUMPDEST PUSH1 0x0 PUSH2 0x1657 PUSH1 0x26 DUP4 PUSH2 0x1A5D JUMP JUMPDEST SWAP2 POP PUSH2 0x1662 DUP3 PUSH2 0x1F15 JUMP JUMPDEST PUSH1 0x40 DUP3 ADD SWAP1 POP SWAP2 SWAP1 POP JUMP JUMPDEST PUSH1 0x0 PUSH2 0x167A PUSH1 0x25 DUP4 PUSH2 0x1A5D JUMP JUMPDEST SWAP2 POP PUSH2 0x1685 DUP3 PUSH2 0x1F64 JUMP JUMPDEST PUSH1 0x40 DUP3 ADD SWAP1 POP SWAP2 SWAP1 POP JUMP JUMPDEST PUSH1 0x0 PUSH2 0x169D PUSH1 0x2A DUP4 PUSH2 0x1A5D JUMP JUMPDEST SWAP2 POP PUSH2 0x16A8 DUP3 PUSH2 0x1FB3 JUMP JUMPDEST PUSH1 0x40 DUP3 ADD SWAP1 POP SWAP2 SWAP1 POP JUMP JUMPDEST PUSH1 0x0 PUSH2 0x16C0 PUSH1 0x26 DUP4 PUSH2 0x1A5D JUMP JUMPDEST SWAP2 POP PUSH2 0x16CB DUP3 PUSH2 0x2002 JUMP JUMPDEST PUSH1 0x40 DUP3 ADD SWAP1 POP SWAP2 SWAP1 POP JUMP JUMPDEST PUSH1 0x0 PUSH2 0x16E3 PUSH1 0x36 DUP4 PUSH2 0x1A5D JUMP JUMPDEST SWAP2 POP PUSH2 0x16EE DUP3 PUSH2 0x2051 JUMP JUMPDEST PUSH1 0x40 DUP3 ADD SWAP1 POP SWAP2 SWAP1 POP JUMP JUMPDEST PUSH1 0x0 PUSH2 0x1706 PUSH1 0x20 DUP4 PUSH2 0x1A5D JUMP JUMPDEST SWAP2 POP PUSH2 0x1711 DUP3 PUSH2 0x20A0 JUMP JUMPDEST PUSH1 0x20 DUP3 ADD SWAP1 POP SWAP2 SWAP1 POP JUMP JUMPDEST PUSH2 0x1725 DUP2 PUSH2 0x1B5C JUMP JUMPDEST DUP3 MSTORE POP POP JUMP JUMPDEST PUSH1 0x0 PUSH2 0x1737 DUP3 DUP5 PUSH2 0x147A JUMP JUMPDEST SWAP2 POP DUP2 SWAP1 POP SWAP3 SWAP2 POP POP JUMP JUMPDEST PUSH1 0x0 PUSH1 0x20 DUP3 ADD SWAP1 POP PUSH2 0x1757 PUSH1 0x0 DUP4 ADD DUP5 PUSH2 0x145C JUMP JUMPDEST SWAP3 SWAP2 POP POP JUMP JUMPDEST PUSH1 0x0 PUSH1 0x20 DUP3 ADD SWAP1 POP PUSH2 0x1772 PUSH1 0x0 DUP4 ADD DUP5 PUSH2 0x146B JUMP JUMPDEST SWAP3 SWAP2 POP POP JUMP JUMPDEST PUSH1 0x0 PUSH1 0x60 DUP3 ADD SWAP1 POP PUSH2 0x178D PUSH1 0x0 DUP4 ADD DUP7 PUSH2 0x146B JUMP JUMPDEST PUSH2 0x179A PUSH1 0x20 DUP4 ADD DUP6 PUSH2 0x146B JUMP JUMPDEST PUSH2 0x17A7 PUSH1 0x40 DUP4 ADD DUP5 PUSH2 0x171C JUMP JUMPDEST SWAP5 SWAP4 POP POP POP POP JUMP JUMPDEST PUSH1 0x0 PUSH1 0x20 DUP3 ADD SWAP1 POP DUP2 DUP2 SUB PUSH1 0x0 DUP4 ADD MSTORE PUSH2 0x17C9 DUP2 DUP5 PUSH2 0x14F9 JUMP JUMPDEST SWAP1 POP SWAP3 SWAP2 POP POP JUMP JUMPDEST PUSH1 0x0 PUSH1 0x40 DUP3 ADD SWAP1 POP DUP2 DUP2 SUB PUSH1 0x0 DUP4 ADD MSTORE PUSH2 0x17EB DUP2 DUP6 PUSH2 0x14F9 JUMP JUMPDEST SWAP1 POP PUSH2 0x17FA PUSH1 0x20 DUP4 ADD DUP5 PUSH2 0x171C JUMP JUMPDEST SWAP4 SWAP3 POP POP POP JUMP JUMPDEST PUSH1 0x0 PUSH1 0x20 DUP3 ADD SWAP1 POP DUP2 DUP2 SUB PUSH1 0x0 DUP4 ADD MSTORE PUSH2 0x181A DUP2 PUSH2 0x1532 JUMP JUMPDEST SWAP1 POP SWAP2 SWAP1 POP JUMP JUMPDEST PUSH1 0x0 PUSH1 0x20 DUP3 ADD SWAP1 POP DUP2 DUP2 SUB PUSH1 0x0 DUP4 ADD MSTORE PUSH2 0x183A DUP2 PUSH2 0x1555 JUMP JUMPDEST SWAP1 POP SWAP2 SWAP1 POP JUMP JUMPDEST PUSH1 0x0 PUSH1 0x20 DUP3 ADD SWAP1 POP DUP2 DUP2 SUB PUSH1 0x0 DUP4 ADD MSTORE PUSH2 0x185A DUP2 PUSH2 0x1578 JUMP JUMPDEST SWAP1 POP SWAP2 SWAP1 POP JUMP JUMPDEST PUSH1 0x0 PUSH1 0x20 DUP3 ADD SWAP1 POP DUP2 DUP2 SUB PUSH1 0x0 DUP4 ADD MSTORE PUSH2 0x187A DUP2 PUSH2 0x159B JUMP JUMPDEST SWAP1 POP SWAP2 SWAP1 POP JUMP JUMPDEST PUSH1 0x0 PUSH1 0x20 DUP3 ADD SWAP1 POP DUP2 DUP2 SUB PUSH1 0x0 DUP4 ADD MSTORE PUSH2 0x189A DUP2 PUSH2 0x15BE JUMP JUMPDEST SWAP1 POP SWAP2 SWAP1 POP JUMP JUMPDEST PUSH1 0x0 PUSH1 0x20 DUP3 ADD SWAP1 POP DUP2 DUP2 SUB PUSH1 0x0 DUP4 ADD MSTORE PUSH2 0x18BA DUP2 PUSH2 0x15E1 JUMP JUMPDEST SWAP1 POP SWAP2 SWAP1 POP JUMP JUMPDEST PUSH1 0x0 PUSH1 0x20 DUP3 ADD SWAP1 POP DUP2 DUP2 SUB PUSH1 0x0 DUP4 ADD MSTORE PUSH2 0x18DA DUP2 PUSH2 0x1604 JUMP JUMPDEST SWAP1 POP SWAP2 SWAP1 POP JUMP JUMPDEST PUSH1 0x0 PUSH1 0x20 DUP3 ADD SWAP1 POP DUP2 DUP2 SUB PUSH1 0x0 DUP4 ADD MSTORE PUSH2 0x18FA DUP2 PUSH2 0x1627 JUMP JUMPDEST SWAP1 POP SWAP2 SWAP1 POP JUMP JUMPDEST PUSH1 0x0 PUSH1 0x20 DUP3 ADD SWAP1 POP DUP2 DUP2 SUB PUSH1 0x0 DUP4 ADD MSTORE PUSH2 0x191A DUP2 PUSH2 0x164A JUMP JUMPDEST SWAP1 POP SWAP2 SWAP1 POP JUMP JUMPDEST PUSH1 0x0 PUSH1 0x20 DUP3 ADD SWAP1 POP DUP2 DUP2 SUB PUSH1 0x0 DUP4 ADD MSTORE PUSH2 0x193A DUP2 PUSH2 0x166D JUMP JUMPDEST SWAP1 POP SWAP2 SWAP1 POP JUMP JUMPDEST PUSH1 0x0 PUSH1 0x20 DUP3 ADD SWAP1 POP DUP2 DUP2 SUB PUSH1 0x0 DUP4 ADD MSTORE PUSH2 0x195A DUP2 PUSH2 0x1690 JUMP JUMPDEST SWAP1 POP SWAP2 SWAP1 POP JUMP JUMPDEST PUSH1 0x0 PUSH1 0x20 DUP3 ADD SWAP1 POP DUP2 DUP2 SUB PUSH1 0x0 DUP4 ADD MSTORE PUSH2 0x197A DUP2 PUSH2 0x16B3 JUMP JUMPDEST SWAP1 POP SWAP2 SWAP1 POP JUMP JUMPDEST PUSH1 0x0 PUSH1 0x20 DUP3 ADD SWAP1 POP DUP2 DUP2 SUB PUSH1 0x0 DUP4 ADD MSTORE PUSH2 0x199A DUP2 PUSH2 0x16D6 JUMP JUMPDEST SWAP1 POP SWAP2 SWAP1 POP JUMP JUMPDEST PUSH1 0x0 PUSH1 0x20 DUP3 ADD SWAP1 POP DUP2 DUP2 SUB PUSH1 0x0 DUP4 ADD MSTORE PUSH2 0x19BA DUP2 PUSH2 0x16F9 JUMP JUMPDEST SWAP1 POP SWAP2 SWAP1 POP JUMP JUMPDEST PUSH1 0x0 PUSH1 0x20 DUP3 ADD SWAP1 POP PUSH2 0x19D6 PUSH1 0x0 DUP4 ADD DUP5 PUSH2 0x171C JUMP JUMPDEST SWAP3 SWAP2 POP POP JUMP JUMPDEST PUSH1 0x0 PUSH2 0x19E6 PUSH2 0x19F7 JUMP JUMPDEST SWAP1 POP PUSH2 0x19F2 DUP3 DUP3 PUSH2 0x1BDA JUMP JUMPDEST SWAP2 SWAP1 POP JUMP JUMPDEST PUSH1 0x0 PUSH1 0x40 MLOAD SWAP1 POP SWAP1 JUMP JUMPDEST PUSH1 0x0 PUSH8 0xFFFFFFFFFFFFFFFF DUP3 GT ISZERO PUSH2 0x1A1C JUMPI PUSH2 0x1A1B PUSH2 0x1CE1 JUMP JUMPDEST JUMPDEST PUSH2 0x1A25 DUP3 PUSH2 0x1D24 JUMP JUMPDEST SWAP1 POP PUSH1 0x20 DUP2 ADD SWAP1 POP SWAP2 SWAP1 POP JUMP JUMPDEST PUSH1 0x0 DUP2 SWAP1 POP DUP2 PUSH1 0x0 MSTORE PUSH1 0x20 PUSH1 0x0 KECCAK256 SWAP1 POP SWAP2 SWAP1 POP JUMP JUMPDEST PUSH1 0x0 DUP2 MLOAD SWAP1 POP SWAP2 SWAP1 POP JUMP JUMPDEST PUSH1 0x0 DUP2 SWAP1 POP SWAP3 SWAP2 POP POP JUMP JUMPDEST PUSH1 0x0 DUP3 DUP3 MSTORE PUSH1 0x20 DUP3 ADD SWAP1 POP SWAP3 SWAP2 POP POP JUMP JUMPDEST PUSH1 0x0 PUSH2 0x1A79 DUP3 PUSH2 0x1B5C JUMP JUMPDEST SWAP2 POP PUSH2 0x1A84 DUP4 PUSH2 0x1B5C JUMP JUMPDEST SWAP3 POP DUP3 PUSH32 0xFFFFFFFFFFFFFFFFFFFFFFFFFFFFFFFFFFFFFFFFFFFFFFFFFFFFFFFFFFFFFFFF SUB DUP3 GT ISZERO PUSH2 0x1AB9 JUMPI PUSH2 0x1AB8 PUSH2 0x1C54 JUMP JUMPDEST JUMPDEST DUP3 DUP3 ADD SWAP1 POP SWAP3 SWAP2 POP POP JUMP JUMPDEST PUSH1 0x0 PUSH2 0x1ACF DUP3 PUSH2 0x1B5C JUMP JUMPDEST SWAP2 POP PUSH2 0x1ADA DUP4 PUSH2 0x1B5C JUMP JUMPDEST SWAP3 POP DUP2 PUSH32 0xFFFFFFFFFFFFFFFFFFFFFFFFFFFFFFFFFFFFFFFFFFFFFFFFFFFFFFFFFFFFFFFF DIV DUP4 GT DUP3 ISZERO ISZERO AND ISZERO PUSH2 0x1B13 JUMPI PUSH2 0x1B12 PUSH2 0x1C54 JUMP JUMPDEST JUMPDEST DUP3 DUP3 MUL SWAP1 POP SWAP3 SWAP2 POP POP JUMP JUMPDEST PUSH1 0x0 PUSH2 0x1B29 DUP3 PUSH2 0x1B3C JUMP JUMPDEST SWAP1 POP SWAP2 SWAP1 POP JUMP JUMPDEST PUSH1 0x0 DUP2 ISZERO ISZERO SWAP1 POP SWAP2 SWAP1 POP JUMP JUMPDEST PUSH1 0x0 PUSH20 0xFFFFFFFFFFFFFFFFFFFFFFFFFFFFFFFFFFFFFFFF DUP3 AND SWAP1 POP SWAP2 SWAP1 POP JUMP JUMPDEST PUSH1 0x0 DUP2 SWAP1 POP SWAP2 SWAP1 POP JUMP JUMPDEST DUP3 DUP2 DUP4 CALLDATACOPY PUSH1 0x0 DUP4 DUP4 ADD MSTORE POP POP POP JUMP JUMPDEST PUSH1 0x0 JUMPDEST DUP4 DUP2 LT ISZERO PUSH2 0x1B93 JUMPI DUP1 DUP3 ADD MLOAD DUP2 DUP5 ADD MSTORE PUSH1 0x20 DUP2 ADD SWAP1 POP PUSH2 0x1B78 JUMP JUMPDEST DUP4 DUP2 GT ISZERO PUSH2 0x1BA2 JUMPI PUSH1 0x0 DUP5 DUP5 ADD MSTORE JUMPDEST POP POP POP POP JUMP JUMPDEST PUSH1 0x0 PUSH1 0x2 DUP3 DIV SWAP1 POP PUSH1 0x1 DUP3 AND DUP1 PUSH2 0x1BC0 JUMPI PUSH1 0x7F DUP3 AND SWAP2 POP JUMPDEST PUSH1 0x20 DUP3 LT DUP2 EQ ISZERO PUSH2 0x1BD4 JUMPI PUSH2 0x1BD3 PUSH2 0x1C83 JUMP JUMPDEST JUMPDEST POP SWAP2 SWAP1 POP JUMP JUMPDEST PUSH2 0x1BE3 DUP3 PUSH2 0x1D24 JUMP JUMPDEST DUP2 ADD DUP2 DUP2 LT PUSH8 0xFFFFFFFFFFFFFFFF DUP3 GT OR ISZERO PUSH2 0x1C02 JUMPI PUSH2 0x1C01 PUSH2 0x1CE1 JUMP JUMPDEST JUMPDEST DUP1 PUSH1 0x40 MSTORE POP POP POP JUMP JUMPDEST PUSH1 0x0 PUSH2 0x1C16 DUP3 PUSH2 0x1B5C JUMP JUMPDEST SWAP2 POP PUSH32 0xFFFFFFFFFFFFFFFFFFFFFFFFFFFFFFFFFFFFFFFFFFFFFFFFFFFFFFFFFFFFFFFF DUP3 EQ ISZERO PUSH2 0x1C49 JUMPI PUSH2 0x1C48 PUSH2 0x1C54 JUMP JUMPDEST JUMPDEST PUSH1 0x1 DUP3 ADD SWAP1 POP SWAP2 SWAP1 POP JUMP JUMPDEST PUSH32 0x4E487B7100000000000000000000000000000000000000000000000000000000 PUSH1 0x0 MSTORE PUSH1 0x11 PUSH1 0x4 MSTORE PUSH1 0x24 PUSH1 0x0 REVERT JUMPDEST PUSH32 0x4E487B7100000000000000000000000000000000000000000000000000000000 PUSH1 0x0 MSTORE PUSH1 0x22 PUSH1 0x4 MSTORE PUSH1 0x24 PUSH1 0x0 REVERT JUMPDEST PUSH32 0x4E487B7100000000000000000000000000000000000000000000000000000000 PUSH1 0x0 MSTORE PUSH1 0x32 PUSH1 0x4 MSTORE PUSH1 0x24 PUSH1 0x0 REVERT JUMPDEST PUSH32 0x4E487B7100000000000000000000000000000000000000000000000000000000 PUSH1 0x0 MSTORE PUSH1 0x41 PUSH1 0x4 MSTORE PUSH1 0x24 PUSH1 0x0 REVERT JUMPDEST PUSH1 0x0 DUP1 REVERT JUMPDEST PUSH1 0x0 DUP1 REVERT JUMPDEST PUSH1 0x0 DUP1 REVERT JUMPDEST PUSH1 0x0 DUP1 REVERT JUMPDEST PUSH1 0x0 PUSH1 0x1F NOT PUSH1 0x1F DUP4 ADD AND SWAP1 POP SWAP2 SWAP1 POP JUMP JUMPDEST PUSH32 0x4F6E6C79206F7267616E697A657220697320616C6C6F776420746F2073746172 PUSH1 0x0 DUP3 ADD MSTORE PUSH32 0x742074686520766F74696E672E00000000000000000000000000000000000000 PUSH1 0x20 DUP3 ADD MSTORE POP JUMP JUMPDEST PUSH32 0x54696D652069732075702120596F752063616E6E6F7420766F7465206E6F772E PUSH1 0x0 DUP3 ADD MSTORE POP JUMP JUMPDEST PUSH32 0x4F6E6C79206F7267616E697A65722063616E2061646420766F746572732E0000 PUSH1 0x0 DUP3 ADD MSTORE POP JUMP JUMPDEST PUSH32 0x596F757220766F74696E6720697320616C726561647920646F6E652E00000000 PUSH1 0x0 DUP3 ADD MSTORE POP JUMP JUMPDEST PUSH32 0x54686973206164647265737320697320616C726561647920617574686F72697A PUSH1 0x0 DUP3 ADD MSTORE PUSH32 0x656420746F2067697665206120766F74652E0000000000000000000000000000 PUSH1 0x20 DUP3 ADD MSTORE POP JUMP JUMPDEST PUSH32 0x596F7520617265206E6F7420617574686F72697A656420746F20676976652061 PUSH1 0x0 DUP3 ADD MSTORE PUSH32 0x20766F74652E0000000000000000000000000000000000000000000000000000 PUSH1 0x20 DUP3 ADD MSTORE POP JUMP JUMPDEST PUSH32 0x4F6E6C79206F7267616E697A657220697320616C6C6F776420746F2061646420 PUSH1 0x0 DUP3 ADD MSTORE PUSH32 0x63616E646964617465732E000000000000000000000000000000000000000000 PUSH1 0x20 DUP3 ADD MSTORE POP JUMP JUMPDEST PUSH32 0x546869732063616E64696461746520697320616C72656164792061646465642E PUSH1 0x0 DUP3 ADD MSTORE POP JUMP JUMPDEST PUSH32 0x596F752063616E6E6F7420616464206120766F7465722061742074686973206D PUSH1 0x0 DUP3 ADD MSTORE PUSH32 0x6F6D656E742E0000000000000000000000000000000000000000000000000000 PUSH1 0x20 DUP3 ADD MSTORE POP JUMP JUMPDEST PUSH32 0x526573756C742063616E206265207365656E20616674657220766F74696E6720 PUSH1 0x0 DUP3 ADD MSTORE PUSH32 0x656E64732E000000000000000000000000000000000000000000000000000000 PUSH1 0x20 DUP3 ADD MSTORE POP JUMP JUMPDEST PUSH32 0x596F752063616E6E6F742061646420612063616E646964617465206174207468 PUSH1 0x0 DUP3 ADD MSTORE PUSH32 0x6973206D6F6D656E742E00000000000000000000000000000000000000000000 PUSH1 0x20 DUP3 ADD MSTORE POP JUMP JUMPDEST PUSH32 0x506C6561736520656E74657220612076616C69642063616E646964617465206E PUSH1 0x0 DUP3 ADD MSTORE PUSH32 0x756D6265722E0000000000000000000000000000000000000000000000000000 PUSH1 0x20 DUP3 ADD MSTORE POP JUMP JUMPDEST PUSH32 0x456C656374696F6E2069732072756E6E696E672E20526573756C742063616E20 PUSH1 0x0 DUP3 ADD MSTORE PUSH32 0x6265207365656E20616674657220697420656E64732100000000000000000000 PUSH1 0x20 DUP3 ADD MSTORE POP JUMP JUMPDEST PUSH32 0x566F74696E6720686173206E6F74206265656E20737461727465642079657421 PUSH1 0x0 DUP3 ADD MSTORE POP JUMP JUMPDEST PUSH2 0x20D2 DUP2 PUSH2 0x1B1E JUMP JUMPDEST DUP2 EQ PUSH2 0x20DD JUMPI PUSH1 0x0 DUP1 REVERT JUMPDEST POP JUMP JUMPDEST PUSH2 0x20E9 DUP2 PUSH2 0x1B5C JUMP JUMPDEST DUP2 EQ PUSH2 0x20F4 JUMPI PUSH1 0x0 DUP1 REVERT JUMPDEST POP JUMP INVALID LOG2 PUSH5 0x6970667358 0x22 SLT KECCAK256 0x4A CALLDATASIZE 0xB1 PUSH30 0xDE482B334B63D45FEACB4BF54F1409593A57D1E3046E133E6432CFF46473 PUSH16 0x6C634300080700330000000000000000 "
				},
				"gasEstimates": {
					"creation": {
						"codeDepositCost": "1698600",
						"executionCost": "infinite",
						"totalCost": "infinite"
					},
					"external": {
						"addCandidate(string)": "infinite",
						"addPermissionForVote(address)": "31546",
						"candidates(uint256)": "infinite",
						"electName()": "infinite",
						"endTime()": "2497",
						"getCandidateNumbers()": "2511",
						"getGivenVotersNumber()": "2490",
						"isStarted()": "2560",
						"organizerName()": "2556",
						"resultCount()": "infinite",
						"start(uint256)": "infinite",
						"vote(uint256)": "159603",
						"voters(address)": "infinite",
						"votersAddresses(uint256)": "5002",
						"winnerName()": "infinite"
					}
				},
				"methodIdentifiers": {
					"addCandidate(string)": "462e91ec",
					"addPermissionForVote(address)": "5a7cd373",
					"candidates(uint256)": "3477ee2e",
					"electName()": "ce05c1fa",
					"endTime()": "3197cbb6",
					"getCandidateNumbers()": "d32bb1c9",
					"getGivenVotersNumber()": "87ee6d5b",
					"isStarted()": "544736e6",
					"organizerName()": "3c4101fb",
					"resultCount()": "aa4fdefb",
					"start(uint256)": "95805dad",
					"vote(uint256)": "0121b93f",
					"voters(address)": "a3ec138d",
					"votersAddresses(uint256)": "1af10679",
					"winnerName()": "e2ba53f0"
				}
			},
			"storageLayout": {
				"storage": [
					{
						"astId": 3,
						"contract": "contracts/Voting.sol:OnlineVoting",
						"label": "organizerName",
						"offset": 0,
						"slot": "0",
						"type": "t_address"
					},
					{
						"astId": 5,
						"contract": "contracts/Voting.sol:OnlineVoting",
						"label": "electName",
						"offset": 0,
						"slot": "1",
						"type": "t_string_storage"
					},
					{
						"astId": 7,
						"contract": "contracts/Voting.sol:OnlineVoting",
						"label": "winnerName",
						"offset": 0,
						"slot": "2",
						"type": "t_string_storage"
					},
					{
						"astId": 9,
						"contract": "contracts/Voting.sol:OnlineVoting",
						"label": "endTime",
						"offset": 0,
						"slot": "3",
						"type": "t_uint256"
					},
					{
						"astId": 11,
						"contract": "contracts/Voting.sol:OnlineVoting",
						"label": "isStarted",
						"offset": 0,
						"slot": "4",
						"type": "t_bool"
					},
					{
						"astId": 14,
						"contract": "contracts/Voting.sol:OnlineVoting",
						"label": "votersAddresses",
						"offset": 0,
						"slot": "5",
						"type": "t_array(t_address)dyn_storage"
					},
					{
						"astId": 18,
						"contract": "contracts/Voting.sol:OnlineVoting",
						"label": "candidates",
						"offset": 0,
						"slot": "6",
						"type": "t_array(t_struct(Candidate)31_storage)dyn_storage"
					},
					{
						"astId": 23,
						"contract": "contracts/Voting.sol:OnlineVoting",
						"label": "voters",
						"offset": 0,
						"slot": "7",
						"type": "t_mapping(t_address,t_struct(Voter)38_storage)"
					}
				],
				"types": {
					"t_address": {
						"encoding": "inplace",
						"label": "address",
						"numberOfBytes": "20"
					},
					"t_array(t_address)dyn_storage": {
						"base": "t_address",
						"encoding": "dynamic_array",
						"label": "address[]",
						"numberOfBytes": "32"
					},
					"t_array(t_struct(Candidate)31_storage)dyn_storage": {
						"base": "t_struct(Candidate)31_storage",
						"encoding": "dynamic_array",
						"label": "struct OnlineVoting.Candidate[]",
						"numberOfBytes": "32"
					},
					"t_bool": {
						"encoding": "inplace",
						"label": "bool",
						"numberOfBytes": "1"
					},
					"t_mapping(t_address,t_struct(Voter)38_storage)": {
						"encoding": "mapping",
						"key": "t_address",
						"label": "mapping(address => struct OnlineVoting.Voter)",
						"numberOfBytes": "32",
						"value": "t_struct(Voter)38_storage"
					},
					"t_string_storage": {
						"encoding": "bytes",
						"label": "string",
						"numberOfBytes": "32"
					},
					"t_struct(Candidate)31_storage": {
						"encoding": "inplace",
						"label": "struct OnlineVoting.Candidate",
						"members": [
							{
								"astId": 25,
								"contract": "contracts/Voting.sol:OnlineVoting",
								"label": "candidateName",
								"offset": 0,
								"slot": "0",
								"type": "t_string_storage"
							},
							{
								"astId": 27,
								"contract": "contracts/Voting.sol:OnlineVoting",
								"label": "voteCount",
								"offset": 0,
								"slot": "1",
								"type": "t_uint256"
							},
							{
								"astId": 30,
								"contract": "contracts/Voting.sol:OnlineVoting",
								"label": "voterAddressForCandidate",
								"offset": 0,
								"slot": "2",
								"type": "t_array(t_address)dyn_storage"
							}
						],
						"numberOfBytes": "96"
					},
					"t_struct(Voter)38_storage": {
						"encoding": "inplace",
						"label": "struct OnlineVoting.Voter",
						"members": [
							{
								"astId": 33,
								"contract": "contracts/Voting.sol:OnlineVoting",
								"label": "isVoted",
								"offset": 0,
								"slot": "0",
								"type": "t_bool"
							},
							{
								"astId": 35,
								"contract": "contracts/Voting.sol:OnlineVoting",
								"label": "votingPermission",
								"offset": 1,
								"slot": "0",
								"type": "t_bool"
							},
							{
								"astId": 37,
								"contract": "contracts/Voting.sol:OnlineVoting",
								"label": "votingCandidateNumber",
								"offset": 0,
								"slot": "1",
								"type": "t_uint256"
							}
						],
						"numberOfBytes": "64"
					},
					"t_uint256": {
						"encoding": "inplace",
						"label": "uint256",
						"numberOfBytes": "32"
					}
				}
			},
			"userdoc": {
				"kind": "user",
				"methods": {},
				"version": 1
			}
		}
	}
}